:020000040800F2
:10000000A85A002029020008E1220008C92000089F
:10001000DD220008D5050008412600080000000088
:100020000000000000000000000000006123000844
:100030003D08000800000000F1220008112400081B
:10004000430200084302000843020008430200087C
:10005000430200084302000843020008430200086C
:10006000430200084302000843020008430200085C
:10007000430200084302000843020008430200084C
:10008000430200084302000843020008FD0500087F
:10009000D9050008E5050008F1050008430200083D
:1000A00043020008F124000843020008430200084C
:1000B000430200084302000843020008430200080C
:1000C00043020008430200084302000843020008FC
:1000D00043020008430200084302000843020008EC
:1000E00043020008430200084302000843020008DC
:1000F00043020008430200084302000843020008CC
:1001000043020008430200084302000843020008BB
:1001100043020008430200084302000843020008AB
:10012000430200084302000843020008430200089B
:100130004302000800000000000000004302000825
:10014000430200084302000843020008430200087B
:10015000430200084302000843020008430200086B
:10016000430200084302000843020008430200085B
:1001700043020008430200080000000000000000E5
:10018000430200084302000800F002F800F03CF8C7
:100190000AA090E8000C82448344AAF10107DA45E2
:1001A00001D100F031F8AFF2090EBAE80F0013F0F8
:1001B000010F18BFFB1A43F001031847D44E00008B
:1001C000F44E0000103A24BF78C878C1FAD852071C
:1001D00024BF30C830C144BF04680C6070470000C1
:1001E0000023002400250026103A28BF78C1FBD840
:1001F000520728BF30C148BF0B6070471FB504F0DD
:100200009BFE1FBD10B510BD00F062F91146FFF74F
:10021000F5FF02F089FA00F080F903B4FFF7F2FF6E
:1002200003BC00F083F900000948804709480047F3
:10023000FEE7FEE7FEE7FEE7FEE7FEE7FEE7FEE796
:10024000FEE7FEE704480549054A064B70470000F3
:10025000DD24000889010008A84E0020A85A0020CB
:10026000A8560020A856002053EA020C00F069802E
:100270002DE9F04B4FF00006002B1FBFB3FA83F5BA
:1002800003FA05F424FA05F65E4012BF1643B2FAEB
:1002900082F502FA05F4C5F120051EBF22FA05FC1D
:1002A00044EA0C04203556EA044C4FEA144418BFC3
:1002B000641C4FF000084FF00009904271EB030CF2
:1002C00039D3002919BFB1FA81F701FA07F6B0FA5C
:1002D00080F700FA07F6C7F120071EBF20FA07FCD7
:1002E00046EA0C062037B6FBF4FCA7EB0507103FE7
:1002F00007F01F0BCBF120062CFA06F60CFA0BFBCD
:1003000044BFB3460026202FA4BF5E464FF0000B2B
:100310005BEA060C08BF4FF0010B19EB0B0948EB29
:100320000608ABFB027C06FB02CC0BFB03CCC01B1C
:1003300071EB0C01C1E70B46024641464846BDE859
:10034000F08B13B5084318BF4FF0FF300146AFF3F1
:100350000080BDE81C407047032A40F2308010F056
:10036000030C00F0158011F8013BBCF1020F624450
:1003700098BF11F801CB00F8013B38BF11F8013BE1
:10038000A2F1040298BF00F801CB38BF00F8013B8E
:1003900011F0030300F06280083AC0F0088051F8C1
:1003A000043B083A51F804CBA0E80810F5E7121D09
:1003B0005CBF51F8043B40F8043BAFF30080D20728
:1003C00024BF11F8013B11F801CB48BF11F8012BF4
:1003D00024BF00F8013B00F801CB48BF00F8012B17
:1003E000704702F0FF0343EA032242EA024200F0B0
:1003F00002B84FF0000200B51346944696462039E5
:1004000022BFA0E80C50A0E80C50B1F12001BFF4CD
:10041000F7AF090728BFA0E80C5048BF0CC05DF833
:1004200004EB890028BF40F8042B08BF704748BF81
:1004300020F8022B11F0804F18BF00F8012B7047F5
:1004400070477047704710B500F03AF8006810BD6B
:1004500010B5044600F034F8046010BD10B5203A21
:10046000C0F00B80B1E81850A0E81850B1E818505F
:10047000A0E81850203ABFF4F5AF5FEA027C24BF31
:10048000B1E81850A0E8185044BF18C918C0BDE81A
:1004900010405FEA827C24BF51F8043B40F8043BE3
:1004A00008BF7047D20728BF31F8023B48BF11F898
:1004B000012B28BF20F8023B48BF00F8012B7047F2
:1004C00000487047180000200048704718000020BE
:1004D0007546FFF7F9FFAE4605006946534620F022
:1004E0000700854618B020B5FFF7ACFEBDE82040F8
:1004F0004FF000064FF000074FF000084FF0000BE0
:10050000AC46ACE8C009ACE8C009ACE8C009ACE84E
:10051000C00921F007018D46704710B50446AFF3BE
:1005200000802046BDE81040FFF777BE0149182043
:10053000ABBEFEE7260002007047000040F27805DF
:1005400040F210269FED218A40F20C079FED20AA71
:100550004FF00008C2F20005C2F20006C2F2000726
:10056000B6EE009A002407E0C5F804803068C0F8B1
:1005700034800A2002F0F2F828780028F4D0388875
:1005800000EE104AB8EE400A01EE100A20EE080A0A
:10059000B8EE411A80EE010A04F048FB20EE090A89
:1005A00030EE090A85ED010A95ED010A306820EE6A
:1005B0000A0ABCEEC00A80ED0D0A388804F10A016F
:1005C000B1FBF0F202FB1014D3E700BFD00FC9401B
:1005D00000C07944FEE7000040F2A010C2F2000023
:1005E00000F0C4BA40F2A010C2F2000000F0BEBA9F
:1005F00040F2A010C2F2000000F0B8BA40F2A01021
:10060000C2F2000000F0B2BA84B040F2000BC4F2B3
:10061000020B02F039F840F2780640F2011740F27E
:100620000C0AC2F200066D46C0F201274FF0010825
:100630004FF06409C2F2000AB068294600224FF068
:10064000FF3302F0F1F80028F6D10098B84219D033
:1006500003281BD00128EFD19DF804000328EBD319
:100660009DF805000138B0FA80F040093070BDF8FF
:100670000600AAF80000BAF80000632898BFAAF89C
:100680000090D9E786F80180D6E700BF9DF8040006
:100690000028D1D09DF805400A2C28BF0A24002C40
:1006A000CAD058464FF48071012200F0B3FD642097
:1006B00002F054F858464FF48071002200F0AAFD71
:1006C000642002F04BF8022CB6D358464FF48071E8
:1006D000012200F09FFD642002F040F858464FF4DC
:1006E0008071002200F096FD642002F037F8022CA1
:1006F000A2D058464FF48071012200F08BFD642097
:1007000002F02CF858464FF48071002200F082FD70
:10071000642002F023F8042C8ED358464FF48071E5
:10072000012200F077FD642002F018F858464FF4DB
:100730008071002200F06EFD642002F00FF8042C9E
:100740003FF47AAF58464FF48071012200F062FD09
:10075000642002F003F858464FF48071002200F044
:1007600059FD642001F0FAFF062CFFF465AF5846EE
:100770004FF48071012200F04DFD642001F0EEFF86
:1007800058464FF48071002200F044FD642001F0CF
:10079000E5FF062C3FF450AF58464FF4807101221C
:1007A00000F038FD642001F0D9FF58464FF4807105
:1007B000002200F02FFD642001F0D0FF082CFFF490
:1007C0003BAF58464FF48071012200F023FD6420B6
:1007D00001F0C4FF58464FF48071002200F01AFD6A
:1007E000642001F0BBFF082C3FF426AF58464FF4BD
:1007F0008071012200F00EFD642001F0AFFF584629
:100800004FF48071002200F005FD642001F0A6FF86
:100810000A2CFFF411AF58464FF48071012200F00A
:10082000F9FC642001F09AFF58464FF480710022D1
:1008300000F0F0FC642001F091FFFDE6704700003D
:1008400072B600BFFEE7000084B001F0B3FFE846D7
:1008500040F2780908F1050600F10A05C2F2000924
:1008600002240427D9F804000094306040468DF833
:10087000047001F0E7FE284601F080FF0A35F1E739
:1008800090F82020013A012A08D8006800F11402EB
:100890000020136819431160704700BF00F1240263
:1008A00001204FF480211368194311607047000044
:1008B00010B590F820E0D0F800C0AEF1010EBEF106
:1008C000010FDCF808E00FD81EF0E05F16D0CEF381
:1008D000016E012000FA0EF018608B68C3B1486801
:1008E00043EAC00316E000BF00F1240101204FF4E9
:1008F00080220B681A430A6010BD00BF00F124017A
:1009000001204FF400120B681A430A6010BD00BFAB
:1009100008684305D1E9030403430CEB0E10C0F84B
:100920008031C0F88441097D012905D100F5C271EB
:100930000B6843F480730B605168C0F88C11126827
:1009400000F5C071C0F88821002001220B681A430D
:100950000A6010BDB0B590F82020013A012A2FD8C6
:1009600046F20060C4F20000026842F00102026038
:10097000026822F47C520260D1F814E0CC694A6A21
:100980000368012C43EA022202600EF01F024FF0BE
:10099000010303FA02F2C3696FEA020C23EA0203BD
:1009A000C36113D02CBBC36803EA0C03C360CB68DC
:1009B0008C8844EA034300EBCE0423640B4611E029
:1009C000416A41F4802141620120B0BDC3681343F4
:1009D000C3600B688C8844EA034300EBCE042364B5
:1009E00001F10C038C681B8843EA044300EBCE043E
:1009F000636443688D6943EA0204D1F810E0096A30
:100A0000002D08BF03EA0C0444604369BEF1000FE7
:100A100043EA020408BF03EA0C040129446102D13D
:100A2000C1691143C161016821F001010160002029
:100A3000B0BD00007047000010B590F82040013CA8
:100A4000012C7BD8D0F800C0002900F08180DCF8B0
:100A50001040A40700F081800CEB011CDCF8B041D1
:100A60000CF5D87E14F004049460DCF8B04119BF92
:100A7000E4085460640D1460DEF800400CF5DA7E82
:100A800004F00204D460DCF8B44124075ABFDEF855
:100A9000004004F00F0408241461DEF8004000292F
:100AA000C4F307249461DEF800404FEA1444546113
:100AB000DCF8B8211A70026802EB0112D2F8B821F2
:100AC0004FEA12225A70026802EB0112D2F8B821E2
:100AD0004FEA12429A70026802EB0112D2F8B82172
:100AE0004FEA1262DA70026802EB0112D2F8BC21FE
:100AF0001A71026802EB0112D2F8BC214FEA1222ED
:100B00005A71026802EB0112D2F8BC214FEA12427C
:100B10009A71026802EB0112D2F8BC214FEA12620C
:100B2000DA71006814BF00F1100100F10C0100201F
:100B300020220B681A430A6010BD00BF00F1240197
:100B400001204FF480220B681A430A6010BD00BFD9
:100B5000DCF80C40A4077FF47FAF00F124010120F2
:100B60004FF400120B681A430A6010BD2DE9F04FD4
:100B700081B0044600684669D0F804908768D0F8D0
:100B80000CB0D0F810A0D0F81880F10704D10025DF
:100B900030071DD424E000BFF90710D00121BA07A7
:100BA000816009D4780700F1AF80380700F1B68082
:100BB000204600F03BFA02E0204600F039FA00251A
:100BC000F80500F18780F80300F1B180300707D500
:100BD0001BF0100004D0206845F400751021C1609E
:100BE000700708D51BF0080005D020680821C160F7
:100BF000204600F0BBF9B00706D52068C068800722
:100C000002D0204600F0B4F9700607D51AF01000A3
:100C100004D0206845F4806510210161B00608D534
:100C20001AF0080005D0206808210161204600F074
:100C3000C9F9F00606D520680069800702D0204671
:100C400000F0C2F9B00308D519F0100005D02068F3
:100C500010214160204600F0B9F9F00308D519F0E1
:100C6000080005D0206808214160204600F0EAF91C
:100C7000300440F19B805FEA497040F1948006F4B3
:100C8000807008EA102028435FEA8871014648BF57
:100C900041F00201B20558BF01465FEA48700D46B7
:100CA00048BF45F00405700558BF0D46300540F1BA
:100CB0007A8018F0700000F076801038000905285E
:100CC0006CD8DFE800F003595D61656945F00805FF
:100CD00064E000BF20684FF48071BA0581600BD4D6
:100CE000780515D438051DD4204600F0A3F9F80383
:100CF0007FF56CAF1BE000BF204600F09DF9F803C4
:100D00007FF564AF13E000BF4FF4006558E700BF04
:100D100005F50055F8037FF559AF08E04FF480550D
:100D20004EE700BF05F58045F8037FF54FAF20681B
:100D30004FF48031BA0381600AD4780310D43803A9
:100D400014D4204600F07AF930073FF541AF47E769
:100D5000204600F075F930073FF53AAF40E700BF95
:100D600005F5004530073FF533AF39E705F5803528
:100D700030073FF52DAF33E745F010050EE000BF1B
:100D800045F020050AE000BF45F0400506E000BF41
:100D900045F0800502E000BF45F480752068816958
:100DA00021F07001816120680421416055B1606AC1
:100DB00040EA05012046616201B0BDE8F04FFFF74F
:100DC00039BE00BF01B0BDE8F08F0000B0B5C8B1BA
:100DD000044690F8200010B9204600F071F8206811
:100DE000016841F00101016000F01AFA054600BFF8
:100DF00020684168C90707D100F012FA401B0B2890
:100E0000F6D312E00120B0BD016821F002010160BB
:100E100000F006FA054600BF2068416889070DD535
:100E200000F0FEF9401B0B28F6D3606A052140F460
:100E300000306062012084F82010B0BD217E02687D
:100E4000012922F0800208BF80320260617E0268C0
:100E5000012922F0400208BF40320260A17E0268F0
:100E6000012922F0200208BF20320260E17E0268E0
:100E7000012922F0100218BF10320260217F02689F
:100E8000012922F0080208BF08320260617F02686F
:100E9000012922F0040208BF04320260D4E901C231
:100EA000D4E9033561691A432A431143ACF10102C5
:100EB0001143C16100200121606284F82010B0BD9F
:100EC00080B586B0016846F20040C4F2000081425D
:100ED00002D006B080BD00BF002143F63002019170
:100EE000C4F20202136900F5CE3043F000731361BF
:100EF000136903F000730193019B0191136843F0A0
:100F000001031360126802F001020192019A4FF48A
:100F1000C05201920222CDE902210321049109214C
:100F2000059101A900F090F813200521002200F09E
:100F300033FA132000F020FA14200521002200F0DB
:100F40002BFA142000F018FA15200521002200F0D9
:100F500023FA152000F010FA16200521002200F0D7
:100F60001BFA162000F008FA06B080BD704700009A
:100F700010B58CB0016846F20042C4F20002914202
:100F800002D00CB010BD00BF08A901AC4B1D002160
:100F90002246FFF751FD0028F3D1039800220428D0
:100FA00008BF043420680599089040F28000C2F21E
:100FB000000000688DF8241008A9002301F0C2FC8D
:100FC0000CB010BD70470000704700007047000073
:100FD000B0B5044690F8200001281DD1022084F805
:100FE00020002068016821F00101016000F018F97B
:100FF000054600BF20684068C00713D000F010F914
:10100000401B0B28F6D3606A40F400306062052074
:1010100084F820000120B0BD606A40F400206062C6
:101020000120B0BD00206062B0BD0000704700002C
:1010300070470000704700007047000070470000D4
:1010400070470000704700002DE9F04F82B000F1BA
:101050003E4241F6004502F1FF77C4F20205082244
:101060004FEAB726A84208BF0722072E38BF4FEA2B
:10107000B7224FF0010A002400274FF00008009229
:1010800008E000BF023708F10108202F04F1040432
:1010900000F0B4800E680AFA08F916EA090FF1D0D8
:1010A000D1F804A00AF0030BABF10106012E17D80A
:1010B0000322866802FA07FECA6826EA0E06BA40CC
:1010C000324382604268CAF3001522EA090205FA37
:1010D00008F54FEA480C6FEA0E062A4342600BE01F
:1010E0000322BA40D643BBF1030FBC4604D1BC4631
:1010F0004FF0030B22E000BFC2688D68324005FA52
:101100000CF52A43BBF1020FC26017D16FF0030246
:1011100002EA5802024404F01C030F25D2F820E032
:1011200005FA03FA0D692EEA0A0E05FA03F343EAFB
:101130000E031362D1F804A00AF0030B02680BFA45
:101140000CF332401A431AF4403F4FF0010A026098
:1011500098D0002243F644030192C4F202031A68B5
:1011600043F6004E42F480421A601A68C4F2010E3F
:1011700002F480420192019A28F003024FF6084CD3
:101180007244CFF6FF7C52F80C3004F00C060F25A9
:10119000B540AB43009D05FA06F6334342F80C30E8
:1011A000DEF808204B6842EA090643F60C4CDD02E3
:1011B00058BF22EA0906CEF80860C4F2010CDCF838
:1011C00000209D0242EA090658BF22EA0906CCF82F
:1011D0000060DEF804209D0342EA090658BF22EAB7
:1011E0000906CEF80460DEF80020DB0342EA0906B7
:1011F00058BF22EA0906CEF8006043E702B0BDE816
:10120000F08F0000426902EA0103914341EA034181
:1012100081617047002A08BF09048161704700009E
:1012200044F2A870C2F200000068704740F200006B
:1012300044F2A871C2F20000C2F2000100780A680C
:10124000104408607047000080B543F60040C4F2C7
:101250000200016841F400710160016841F480619D
:101260000160016841F480710160032000F0C0F862
:101270000F2000F005F800F05DF8002080BD0000B0
:10128000B0B586B0002543F644010195C4F20201D1
:101290000A68044642F001020A60096801A801F0E8
:1012A000010101910199694600F062F900F080F9AD
:1012B0004DF683614000C4F21B31A0FB01014FF0E9
:1012C000FF3000EB914140F2C8100022C2F2000052
:1012D000C4F2010240F2E733C0E90021C0E9025341
:1012E0000561856100F0CAFB054618B1284606B0C5
:1012F000B0BD00BF40F2C810C2F2000000F0EEFB2B
:1013000005460028F2D1192000F036F80F2C0DD830
:10131000192021460022002500F03EF840F204008A
:10132000C2F200000460284606B0B0BD0125284680
:1013300006B0B0BD82B0002043F640010190C4F277
:1013400002014A6842F480424A604A6802F48042DC
:101350000192019A00900868002240F080500860D5
:1013600008680F2100F08050009000986FF0010095
:1013700002B000F011B80000002848BF704700F02C
:101380001F01012202FA01F14EF200124009CEF2D1
:10139000000242F82010704710B54EF60C5CCEF2F9
:1013A000000CDCF80030C3F3022E8EF00704042C8E
:1013B00028BF0424BEF103034FF0FF3E0EFA04F4ED
:1013C00038BF0023A14399400EFA03F39A43114317
:1013D00000F00F02043A624409010C3200F160434C
:1013E000B0F1FF3FC8BF03F56442117010BD0000AB
:1013F0004EF60C51CEF200010A684FF6FF031A4078
:1014000060F30A2242F0806040F0FD70086070478F
:101410002DE9F041002800F08B8043F60808C4F263
:1014200002080446D8F8F8030D4600F00700884289
:1014300007D288F8F853D8F8F80300F00700A8425C
:1014400076D12068810717D5410705D5D8F8001057
:1014500041F4E051C8F80010010705D5D8F8001094
:1014600041F46041C8F80010D8F80010A26821F0DB
:10147000F0011143C8F80010C0073FD1D8F8F803B5
:1014800000F00700A84207D988F8F853D8F8F80305
:1014900000F00700A8424BD12068410707D5D8F8D3
:1014A0000010E26821F4E0511143C8F80010000771
:1014B00008D5D8F80000216920F4604040EAC10056
:1014C000C8F8000000F088F8D8F8001044F67472EC
:1014D000C1F30311C0F60002515C40F2080220FA89
:1014E00001F140F20400C2F200000068C2F2000202
:1014F0001160FFF7C5FE0020BDE8F0816068811E25
:10150000022907D258F8081C89015CBF0120BDE8F8
:10151000F08111E0012807D158F8081C89035CBF4D
:101520000120BDE8F08107E058F8081C890703D4C2
:101530000120BDE8F08100BFD8F8001021F00301C0
:101540000843C8F80000FFF76BFE064641F28837F3
:10155000D8F80000616800F00C00B0EB810F8DD06E
:10156000FFF75EFE801BB842F2D90320BDE8F08190
:101570000F22026043F60802C4F20202136803F06D
:1015800003034360136803F0F0038360136803F4FC
:10159000E053C360D2F800C04FF4E05303EADC0329
:1015A0000361D2F8F80300F00700086070470000FC
:1015B00040F2080043F60801C2F20000C4F2020142
:1015C0000068096844F68472C1F34231C0F6000233
:1015D000515CC8407047000010B543F60404C4F2E3
:1015E0000204606800F00C0008280BD0042819BF22
:1015F00042F20040C0F2F40047F64000C0F27D1015
:1016000010BD00BF206821682368490247F64001E9
:10161000C0F27D1100F03F02C3F388105CBF42F2BC
:101620000041C0F2F401A1FB00010023FEF71CFE03
:1016300021680222C1F3014102EB4101B0FBF1F04C
:1016400010BD00002DE9F04182B000286AD00446A8
:10165000007843F60006C007C4F202060BD0B0685B
:1016600000F00C00042840F0A1803068800302D50F
:101670006068002856D0207880071AD5B06810F02E
:101680000C0F09D0B06800F00C00082840F0A880CA
:101690007068400200F1A4803068800702D5E068DD
:1016A00001283FD13068216920F0F80040EAC100EC
:1016B00030602078000739D4207840074ED4A569DF
:1016C0005DB3B06800F00C00082840F0BD80012D2B
:1016D00028D07068E16900F480028A4222D1216A30
:1016E00000F03F028A421DD147F6C071626A014094
:1016F000B1EB821F16D1A26A0023CFF6FF7303EB72
:10170000C23200F440316FF30F0291420AD1E16A14
:1017100000F07060B0EB016F04D1002002B0BDE8B2
:10172000F08100BF012002B0BDE8F08160690028AF
:1017300040F20000C4F2472076D00121C0F8801E9C
:10174000FFF76EFD054600BF706F8007B4D4FFF74A
:1017500067FD401B0228F7D9DDE000BF306C10F0B8
:1017600080580AD100200190306C40F080503064E5
:10177000306C00F080500190019847F20007C4F2ED
:1017800000073868C00541D4386840F4807038607C
:10179000FFF746FD054600BF3868C00536D4FFF7A1
:1017A0003FFD401B0228F7D9B5E000BFB06800F04C
:1017B0000C00082803D1706840023FF556AF6068FE
:1017C000B0F5803F07D0B0F5A02F40F08D80306895
:1017D00040F480203060306840F4803030608DE02C
:1017E000E068002852D00020C4F2472001210160A7
:1017F000FFF716FD054600BF306880073FF552AF82
:10180000FFF70EFD401B0228F6D984E0A0680128EE
:1018100005D005284ED1306F40F004003067306F9E
:1018200040F0010030674FE00021C0F8801EFFF754
:10183000F7FC0546706F80077FF53EAFFFF7F0FCC1
:10184000401B0228F6D966E00027C4F24727002093
:101850003866FFF7E5FC022D05460BD130688001A4
:101860005ED5FFF7DDFC401B02284FF00300F5D9E1
:1018700054E700BF306880017FF54FAFFFF7D0FC21
:10188000401B02284FF00300F4D947E70020C4F2C0
:10189000472000210160FFF7C3FC05463068800740
:1018A0007FF507AFFFF7BCFC401B02284FF0030099
:1018B000F4D933E7316F002821F001013167316F2E
:1018C00021F0040131674DD0FFF7AAFC054641F233
:1018D000883700BF306F800756D4FFF7A1FC401B4C
:1018E000B842F7D917E000BF3168002821F48031F1
:1018F0003160316821F4802131604FD0FFF790FCD6
:10190000054600BF306880033FF5B5AEFFF788FCA1
:10191000401B6428F6D9032002B0BDE8F08100BF67
:1019200004F11C052FCD08430021CFF6FF7140EADA
:10193000821001EBC3316FF30F0140EA05600843E9
:10194000706001203866FFF76BFC04463068800148
:101950003FF5E3AEFFF764FC001B02284FF00300E5
:10196000F4D9DBE6FFF75CFC054641F2883700BF9F
:10197000306F800708D5FFF753FC401BB8424FF08B
:101980000300F5D9CAE600BFB8F1000F7FF497AEA7
:10199000306C20F08050306491E600BFFFF740FCCF
:1019A000054600BF306880037FF565AEFFF738FC61
:1019B000401B64284FF00300F4D9AFE670470000E5
:1019C0007047000010B590F83C20012A4FF0020249
:1019D00051D080F83D200268D2F804E0D2F808C067
:1019E0000C682EF07003234341F2FF74C4F200042C
:1019F000A24253600EDC40F2FF73C4F200039A422D
:101A000016DCB2F1804F2BD040F20043C4F2000349
:101A100024E000BF40F2FF33C4F201039A4213DC1A
:101A200041F60003C4F200039A4219D0002313E0E8
:101A300040F60003C4F200039A4211D040F600437E
:101A4000C4F200030AE000BF44F20003C4F2010341
:101A50009A4205D040F20043C4F201039A4204D1F5
:101A600049682CF08003194391600121002280F81D
:101A70003D1080F83C20104610BD0000002804BF37
:101A80000120704710B5044690F83D0028B90020A9
:101A900084F83C00204600F01FF8022084F83D0046
:101AA0002068211D00F02AFD012084F8460084F8FA
:101AB0003E0084F83F0084F8400084F8410084F838
:101AC000420084F8430084F8440084F8450084F818
:101AD0003D00002010BD00007047000090F83D1050
:101AE00001291CBF01207047022180F83D100068C9
:101AF00041F2FF72C168C4F20002904241F001015C
:101B0000C1600DDC40F2FF71C4F20001884215DCB7
:101B1000B0F1804F2AD040F20041C4F2000123E02E
:101B200040F2FF31C4F20101884213DC41F60001AA
:101B3000C4F20001884219D0002113E040F60001F0
:101B4000C4F20001884211D040F60041C4F2000105
:101B50000AE000BF44F20001C4F20101884205D04E
:101B600040F20041C4F20101884206D1816801F0CF
:101B70000701062904BF00207047016841F00101F8
:101B800001600020704700007047000070B50446F7
:101B90000068C5680669B10716D515F0020113D0B3
:101BA0006FF002010161012121778069800703D074
:101BB0002046FFF7E9FF05E0204600F08FF82046B9
:101BC00000F0EAF900202077700719D515F004001D
:101BD00016D020686FF0040101610221217780692D
:101BE00010F4407F04D02046FFF7CEFF06E000BF90
:101BF000204600F073F8204600F0CEF90020207750
:101C0000300717D515F0080014D020686FF00801D0
:101C1000016104212177C069800703D02046FFF7C6
:101C2000B3FF05E0204600F059F8204600F0B4F973
:101C300000202077F00619D515F0100016D0206886
:101C40006FF01001016108212177C06910F4407F15
:101C500004D02046FFF798FF06E000BF204600F0C2
:101C60003DF8204600F098F900202077F00718BFD3
:101C700015F0010002D1300609D412E020686FF09F
:101C800001010161204600F013FA300609D515F074
:101C9000800006D020686FF0800101612046FFF7C8
:101CA0008DFE700609D515F0400006D020686FF053
:101CB00040010161204600F005FAB00658BF70BD32
:101CC00015F0200008D021686FF0200220460A613C
:101CD000BDE87040FFF774BE70BD000070470000A3
:101CE0002DE9F04190F83C30012B04BF0220BDE803
:101CF000F0814FEAB202032A00F2FC80DFE802F032
:101D0000023E7EBE036840F200471C6A1A6A24F055
:101D1000020422F001021A621A46D3F804E052F8D3
:101D200018CF8E6843F48065C4F20107BD4244EACF
:101D3000060405D1CE6824F00C0426F004063443D2
:101D40000E68BD4207D1D1E905572EF4407E45EA21
:101D50000E0545EA070E2CF073073743C3F804E07D
:101D60009F614F6809695F631C629F6947F00807BC
:101D70009F619F6927F004079F61B1E0036840F20B
:101D800000481C6A1A6A24F0200422F010021A6229
:101D90001A46D3F804E052F818CF8F6843F48065F0
:101DA000C4F20108454544EA071407D1CF686FF033
:101DB000400624F0C00406EA071634430F68454580
:101DC00007D1D1E905562EF4406E4EEA850545EA65
:101DD000860E2CF4E64646EA0727C3F804E09F6126
:101DE0004F6809699F631C629F6947F400679F61A0
:101DF0009F6927F480679F6171E000BF036840F22C
:101E000000481C6A1A6A24F4007422F480721A6270
:101E10001A46D3F804E052F81CCF8F6843F480656B
:101E2000C4F20108454544EA072408D1CF6840F2CE
:101E3000FF463F0224F4406427EA060634430F6855
:101E4000454507D1D1E905562EF4405E4EEA051509
:101E500045EA061E2CF073063743C3F804E0DF6141
:101E60004F680969DF631C62DF6947F00807DF61BB
:101E7000DF6927F00407DF6132E000BF036840F24A
:101E80000045D3F820C01A6A43F4806722F48052D8
:101E90001A621A465C6852F81CEFD1F800808E680E
:101EA000C4F20105AF4204D14D6924F4804444EAF0
:101EB00085142CF4005747EA06372EF4E64646EA26
:101EC00008265C60DE614E6809691E641F62DF6976
:101ED00047F40067DF61DF6927F48067DF6109028B
:101EE0001368194311600021002280F83C20084645
:101EF000BDE8F0810121002280F83C200846BDE8C1
:101F0000F0810000002804BF0120704710B504468E
:101F100090F83D0028B9002084F83C00204600F0ED
:101F20001FF8022084F83D002068211D00F0E6FA29
:101F3000012084F8460084F83E0084F83F0084F8CD
:101F4000400084F8410084F8420084F8430084F89B
:101F5000440084F8450084F83D00002010BD0000D6
:101F600081B0006840F20041C4F20001884201D013
:101F700001B070470020009043F64000C4F2020018
:101F8000016841F002010160006800F00200009069
:101F9000009801B0704700007047000041B1082967
:101FA00010D0042914BF00F1410200F13F020BE000
:101FB00090F83E20012A1CBF01207047022280F8C1
:101FC0003E2013E000F140021278012A1CBF0120DC
:101FD00070470222082907D0042914BF80F8412045
:101FE00080F83F2002E000BF80F84020006801F048
:101FF0001F010122036A02FA01F123EA01020262CF
:10200000026A114341F2FF72C4F20002904201627F
:102010000CDC40F2FF71C4F20001884214DCB0F124
:10202000804F37D040F2004116E000BF40F2FF3150
:10203000C4F20101884215DC41F60001C4F200013E
:10204000884227D0002115E040F60001C4F20001CB
:1020500088421FD040F60041C4F20001884219D0E6
:102060001FE000BF44F20001C4F20101884211D018
:1020700040F20041C4F20101884212D1416C40F2A9
:10208000004340F48062C4F2010341F400419A42EB
:10209000416406D1816801F00701062904BF0020D0
:1020A0007047016841F001010160002070470000A5
:1020B00000680021C4F20101884208BFFFF7B6B8EA
:1020C0007047000070470000FEE7000080B540F256
:1020D000A01046F20041C2F20000C4F20001072243
:1020E000002380E80E0000F10C014FF4002C4FF4A7
:1020F000801E81E8085083618383FEF767FE002815
:1021000008BF80BDBDE88040FEF79ABB10B5102027
:102110001021002200F0CCFB40F27804C2F200044F
:10212000A06040F23D5044F68C72C0F60000C0F64C
:102130000002002100F05AFCE06042F2853044F6D3
:10214000F872C0F60000C0F60002002100F04EFC5C
:10215000206140F2096044F6B072C0F60000C0F69B
:102160000002002100F042FC606140F6490044F6A4
:10217000D472C0F60000C0F60002002100F036FC68
:10218000A06142F2D53045F21C02C0F60000C0F654
:102190000002002100F02AFCE06110BD70B586B09D
:1021A000002543F6300005950095C4F20200016851
:1021B000002441F0800101600168C4F2020401F0D2
:1021C00080010091009900950168002241F0010111
:1021D000016001684FF4987601F0010100910099C7
:1021E0000095016841F00401016000684FF49871A6
:1021F00000F00400009000982046FFF70BF8012043
:1022000002900220CDE9030501A920460196FEF7C0
:102210001BFF06B070BD0000B0B590B040F20045A5
:1022200040F21020C4F200050021C2F20000532247
:1022300040F2E733CDE90811CDE90611CDE90411EB
:10224000C0E90052C0E9021301618161FFF75AFE43
:10225000002818BFFEF7F4FA40F21020C2F2000086
:1022600008A9FFF7AFFB002818BFFEF7E9FA6020C6
:1022700040F2102401900020C2F20004CDE90200D7
:10228000059001A920460022FFF72AFD002818BF6B
:10229000FEF7D6FA2068A84202D010B0B0BD00BF49
:1022A000002043F630010B90C4F202010A6842F0AC
:1022B00004020A60096801F004010B910B994021A6
:1022C0000B910221CDE90C11CDE90E0105F501308C
:1022D0000BA9FEF7B9FE10B0B0BD0000FEE700008C
:1022E000FEE7000000000000000000000000000009
:1022F000EFF30980BFF36F8F154B1A681EF0100FB4
:1023000008BF20ED108A20E9F04F10602DE9090088
:102310004FF0500080F31188BFF34F8FBFF36F8FE2
:1023200001F0C8FC4FF0000080F31188BDE80900FF
:1023300019680868B0E8F04F1EF0100F08BFB0EC45
:10234000108A80F30988BFF36F8F704700BF00BF0A
:1023500098000020000000000000000000000000C5
:10236000074B19680868B0E8F04F80F30988BFF39D
:102370006F8F4FF0000080F31188704700BF00BFDF
:102380009800002040F200084CF6CD474FF0FF3592
:102390000126C4F20208CCF6CC4704E0642000F029
:1023A000DDF9013D0136A6FB0704A00800EB800023
:1023B000401903D140461021FEF724FFE00800EB4E
:1023C000800005EB40000028E8D140462021FEF7C0
:1023D00019FFE3E784B000F0EDF940F2780600F56C
:1023E000FA744FF012080127C2F200066D4600BFD2
:1023F000CDF800808DF8047030788DF805002846FF
:1024000000F020F9204600F0B9F904F5FA74EFE77E
:1024100080B54EF21000CEF20000006802F0FEF926
:10242000012808BF80BDBDE8804001F063BD000009
:10243000B0B592B0002443F64000CDE90A44CDE99E
:1024400008440594CDE90344CDE901440094C4F265
:1024500002000168022541F080510160006800F02F
:1024600080500090009847F200000094C4F20000F1
:10247000016841F480410160006800F480400090F0
:102480000098012006904FF4803007904FF48000B0
:102490000D9019200E904FF4A870CDE90F0504207F
:1024A000119006A80C95FFF7CDF818B172B600BFD1
:1024B000FEE700BF0F20CDE901054FF4A0500490C6
:1024C0004FF48050059001A805210394FEF7A0FF6A
:1024D00010B172B6FEE700BF12B0B0BD4EF6885024
:1024E000CEF20000016841F4700101607047000005
:1024F00040F2C810C2F20000FFF748BBB0B540F68A
:10250000FF3E0568C4F2000E40F2004C7045C4F274
:10251000010C27DCB0F1804F31D040F20043C4F20F
:10252000000398422BD040F60003C4F20003984207
:1025300025D041F6FF73C4F2000398422ADC7045AF
:102540003CDCB0F1804F5FD040F20043C4F20003A6
:10255000984259D040F60003C4F20003984253D089
:1025600057E000BF40F60043C4F20003984206D093
:10257000604504D00023C4F201039842D9D14B68CE
:1025800025F0700243EA020541F6FF73C4F200032E
:102590009842D4DD43F6FF73C4F20103984221DC74
:1025A00042F20003C4F2000398422DD00023C4F28B
:1025B0000103984228D0604526D02AE040F6004327
:1025C000C4F2000398421FD041F60003C4F2000396
:1025D000984219D041F60043C4F20003984213D048
:1025E00017E000BF44F20003C4F2010398420BD08D
:1025F00044F60003C4F20103984205D044F20043BC
:10260000C4F20103984204D1CB6825F4407243EA36
:1026100002050A688C684B69C46240F48064826277
:10262000644504BF09690163026825F0800142F036
:10263000040219430260012242610160B0BD000042
:10264000FEE7000080B588B001680022CDE90622CF
:10265000CDE904220392B1F5006F029239BF0291D5
:10266000002103910421027904910021CDE9051292
:10267000421D40F2A010C2F2000002A901ABFEF719
:1026800017F908B080BD0000B0B58AB00020202145
:102690004FF6E0750990CDE90500CDE90010CDE9D0
:1026A0000250049040F2A0100124C2F200006946DA
:1026B000CDE90744FEF74EF9002818BFFEF7C0F831
:1026C0006020009040F2A010C2F20000694605941C
:1026D0000295FEF73FF9002818BFFEF7B1F8022077
:1026E000059041F20800009040F60C0001904FF672
:1026F000FF70CDE9020040F2A010C2F2000069466E
:10270000FEF728F9002818BFFEF79AF840F2A01447
:10271000C2F200042046FEF75BFC20460221FEF7D1
:10272000AFF80AB0B0BD0000FEF78EFDFFF780FEE7
:10273000FFF734FDFFF7CAFCFFF76EFD40F21020F3
:10274000C2F200000021FFF729FC00F03BF8FFF780
:10275000DDFC00F04BF800BFFEE70000EFF3058161
:1027600000291CBF6FF005007047002804BF00203F
:10277000704780B501F0EEF8002080BD10B582B042
:10278000EFF3058121B16FF0050002B010BD00BF6D
:10279000044602F053F8211A0129019006DB01A832
:1027A00001F018F9002002B010BD00BF6FF0030067
:1027B00002B010BDEFF30580002808BF02F03EB85C
:1027C00002F042B8EFF3058000281CBF6FF005004F
:1027D000704740F29C10C2F200000168002911BF4E
:1027E0004FF0FF30012101600020704710B5EFF37A
:1027F000058000281CBF6FF0050010BD40F29C1042
:10280000C2F20000016801291CBF4FF0FF3010BD6B
:102810004EF61F51CEF2000100240C70022101601F
:1028200001F0C8F9204610BD10B582B01C46B0FAC0
:1028300080F3B1FA81F25B095209EFF3058CBCF128
:10284000000F42EA030219D0002C18BF01242243D2
:1028500015D10022019201AA01F0B0FE01281BD17E
:102860000198B0B14EF60450CEF200004FF0805106
:102870000160BFF34F8FBFF36F8F0AE022B16FF09B
:10288000030002B010BD00BF224601F0C1FD0128C7
:1028900006D1002002B010BD6FF0020002B010BDE2
:1028A0006FF00100002C08BF6FF0020002B010BDF5
:1028B00070B582B0154600294FF00004EFF3058291
:1028C00018BF002802D1204602B070BD002AFAD1FC
:1028D000B5B1D5E902321BB3502A26D32A6922B3F7
:1028E0006E6901FB00F4A6424FF00004EBD30094A4
:1028F00001F05CFB06460028E5D02C6807E000BF2D
:102900000022002401F00EFB0028DCD006463046F1
:10291000214600F09DFF3446204602B070BD00BF46
:102920001AB92A690AB96A6922B10024204602B09C
:1029300070BD00BF0022002401F0F4FA0646002812
:10294000DBD1C0E7B0B582B01C46B0FA80F3B1FA73
:1029500081F5EFF305825B096D09002A43EA050260
:102960000AD0002C18BF012422430BD06FF00305BE
:10297000284602B0B0BD00BFF2B16FF00305284693
:1029800002B0B0BD0022019201AA002301F094FC24
:10299000012821D1019828B34EF60450CEF2000050
:1029A0004FF080510160BFF34F8FBFF36F8F002551
:1029B000284602B0B0BD00BF22460023002501F02A
:1029C00065FB0128D4D06FF00105002C08BF6FF023
:1029D0000205284602B0B0BD6FF00205284602B0DD
:1029E000B0BD00BF0025284602B0B0BDF0B585B02F
:1029F0008C4600230493EFF3058140B139B94AB105
:102A00009469002C08BF1824382C15D900231846C7
:102A100005B0F0BD00218023182404AF9AB26346AC
:102A20000094019701F08EFE01280CBF049B002347
:102A3000184605B0F0BD00BF1179C90720D156690D
:102A4000D2E902574FEA960E1168002E734608BF6E
:102A500080238DB15C2F13D312690023002A18BF85
:102A6000002ED4D0CDE9004272466346029501F0B3
:102A700099FE05B0F0BD00BF17B91269002ACCD08D
:102A80000023184605B0F0BD2DE9F041044600F0E2
:102A9000EFFD40F29806C2F20006F06840F24835B9
:102AA0000130F0603068C2F2000558B1306900288A
:102AB00040F007813068E16AC06A884298BF34609C
:102AC000FFE000BF3460F068012840F0FA8028463B
:102AD00000F074FD05F1140000F070FD05F1280010
:102AE00000F06CFD05F13C0000F068FD05F15000C0
:102AF00000F064FD05F1640000F060FD05F1780070
:102B000000F05CFD05F18C0000F058FD05F1A0001F
:102B100000F054FD05F1B40000F050FD05F1C800CF
:102B200000F04CFD05F1DC0000F048FD05F1F0007F
:102B300000F044FD05F5827000F040FD05F58C7055
:102B400000F03CFD05F5967000F038FD05F5A0702D
:102B500000F034FD05F5AA7000F030FD05F5B47005
:102B600000F02CFD05F5BE7000F028FD05F5C870DD
:102B700000F024FD05F5D27000F020FD05F5DC70B5
:102B800000F01CFD05F5E67000F018FD05F5F0708D
:102B900000F014FD05F5FA7000F010FD05F5027067
:102BA00000F00CFD05F5077000F008FD05F50C7050
:102BB00000F004FD05F5117000F000FD05F516703C
:102BC00000F0FCFC05F51B7000F0F8FC05F520702A
:102BD00000F0F4FC05F5257000F0F0FC05F52A7016
:102BE00000F0ECFC05F52F7000F0E8FC05F5347002
:102BF00000F0E4FC05F5397000F0E0FC05F53E70EE
:102C000000F0DCFC05F5437000F0D8FC05F54870D9
:102C100000F0D4FC05F54D7000F0D0FC05F55270C5
:102C200000F0CCFC05F5577000F0C8FC05F55C70B1
:102C300000F0C4FC05F5617000F0C0FC05F566709D
:102C400000F0BCFC05F56B7000F0B8FC05F5707089
:102C500000F0B4FC05F5757000F0B0FC05F57A7075
:102C600000F0ACFC05F57F7000F0A8FC05F5826073
:102C700000F0A4FC05F2244000F0A0FC05F58760FC
:102C800000F09CFC05F24C4000F098FC40F27418F7
:102C9000C2F20008404600F091FC08F114073846E3
:102CA00000F08CFC06F1640000F088FC06F13C00AA
:102CB00000F084FC06F1500000F080FCC6F81C8097
:102CC00037627068716A421CE06A726088426264AE
:102CD00088BF706200EB800005EB8000211D00F0D2
:102CE000AFFC00F0E9FC306988B13068E16AC06A85
:102CF000884228BFBDE8F0814EF60450CEF20000B5
:102D00004FF080510160BFF34F8FBFF36F8FBDE86D
:102D1000F081000040F2980540F248364EF6045823
:102D2000C2F20005C2F20006CEF200084FF0805752
:102D300003E000BF204600F0D7FCA868D0B100F047
:102D400097FCA86CC468201D00F00AFCE8680138F4
:102D5000E860A8680138A86000F0AEFC94F859005B
:102D60000228EAD00128E5D070B9206B00F0BCFC45
:102D7000E0E700BF30680228DFD3C8F80070BFF377
:102D80004F8FBFF36F8FD8E74FF0500080F311885B
:102D9000BFF36F8FBFF34F8FFEE700002DE9F047C1
:102DA0000A9C8246206B16460F46DDE908599100C1
:102DB000A5229846FDF715FB206B002F00EB86003F
:102DC000A0F1040020F0070656D0387884F83400CB
:102DD000387800284BD0787884F835007878002847
:102DE00045D0B87884F83600B87800283FD0F87815
:102DF00084F83700F878D0B3387984F83800387917
:102E0000A8B3787984F83900787980B3B87984F8F0
:102E10003A00B87958B3F87984F83B00F87930B3C0
:102E2000387A84F83C00387A08B3787A84F83D0020
:102E3000787AE0B1B87A84F83E00B87AB8B1F87A16
:102E400084F83F00F87A90B1387B84F84000387BF2
:102E500068B1787B84F84100787B40B1B87B84F816
:102E60004200B87B00281CBFF87B84F84300002098
:102E700084F8430003E000BF002084F834000027FA
:102E8000201D372D28BF3725E562C4E9135700F010
:102E9000A1FB04F1180000F09DFBC5F13800A06112
:102EA00030465146424624616462676584F8587032
:102EB00000F042FBB9F1000F206018BFC9F80040D4
:102EC000BDE8F08708480068006880F308884FF084
:102ED000000080F3148862B661B6BFF34F8FBFF372
:102EE0006F8F00DF00BF000008ED00E081B0002020
:102EF000009040F21000C2F2000000684FF0500154
:102F000081F31188BFF36F8FBFF34F8F013007D06C
:102F1000FEE700BF009830B9009820B9009810B9BA
:102F200000980028F6D001B07047000088B040F249
:102F3000101AC2F2000A0DF11009EB46DAF8080087
:102F400005681DB1C068046801E000BF002400F0FE
:102F5000A9FE01F073FCDAF810100646884220D36F
:102F6000002DCAF8106051D0A6424FD301F078FD71
:102F7000DAF80800C068C7683D1D284600F0F0FA7E
:102F800097F82800410745D400F0FE0087F8280094
:102F900084E000BF6860DAF8080039462D6100F06F
:102FA0001DFBDAF80800016831B3C068C568046821
:102FB0002F1D384600F0D4FA296A2846884795F82C
:102FC00028004007EDD5A8692044A042E2D8DAF8ED
:102FD0000000002800F04881002004A931C101F060
:102FE0001DFCDAF8000049460022002301F04EF8EB
:102FF0000028D6D138E100BFDAF80C10CAF810600A
:10300000CAE9021001F02CFD1AE100BF65B10022EF
:1030100010E000BFB8693F610119B14279601FD962
:103020000AF1080021E000BFDAF80C000068B0FAED
:1030300080F04209DAF80000A11B00F061FC01F009
:103040000FFD002840F0FC804EF60450CEF2000048
:103050004FF080510160BFF34F8FBFF36F8FEFE0F0
:10306000311B814206D20AF10C000068294600F0AB
:10307000B5FA13E0DAF80000002800F01381002010
:1030800004A991C101F0CAFBDAF800004946002208
:10309000002300F0FBFF002800F00481396A384665
:1030A0008847CDE00098B0F1FF3F07DCDDE9012063
:1030B000039990470098002800F1C280029E706931
:1030C00010B1301D00F04CFA01F0B8FBDAF8101026
:1030D000074688420DD30098CAF8107009283FD9D6
:1030E000AEE000BF6860DAF8080021462D6100F00C
:1030F00075FADAF80800016841B3C068C568D0F80D
:1031000000802C1D204600F02BFA296A28468847AB
:1031100095F828004007ECD5A86940444045E1D81F
:10312000DAF80000002800F095800020CDE90408BE
:10313000069501F073FBDAF80000494600220023EF
:1031400000F0A4FF0028D4D184E000BFDAF80C100E
:10315000CAE902100098CAF81070092800F27080BD
:10316000DFE800F00606064448620606444800BF51
:1031700096F82800019A40F00101B06986F82810FD
:103180008318314641F8043FBB42366106D9974265
:103190000AF1080007D293420AD204E0BA1A824226
:1031A00006D20AF10C00006800F018FA48E000BFEF
:1031B000316A3046884796F82800400740D5DAF84B
:1031C000000000285AD00198B169069608440021F1
:1031D000CDE9041001F022FBDAF800004946002294
:1031E000002300F053FF58BB48E000BF96F82800CA
:1031F00022E000BF96F8280040F00101019886F80F
:1032000028100028B06143D0384431460AF10C023E
:1032100041F8040F3661B84288BF0AF1080210680D
:1032200000F0DCF90CE000BF96F82800810703D419
:10323000304600F059FA03E000F0FE0086F828005E
:10324000DAF800005946002201F0E2F800287FF485
:1032500029AF73E64FF0500080F31188BFF36F8FF2
:10326000BFF34F8FFEE700BF4FF0500080F311888F
:10327000BFF36F8FBFF34F8FFEE700BF4FF05000DB
:1032800080F31188BFF36F8FBFF34F8FFEE700BF4E
:103290004FF0500080F31188BFF36F8FBFF34F8F53
:1032A000FEE700BF4FF0500080F31188BFF36F8F2F
:1032B000BFF34F8FFEE70000F0B581B0044600F089
:1032C000D7F994F94560012E0FDB04F1240500BF06
:1032D000286850B1284601F089FB002818BF00F08B
:1032E000E9FBF0B2013E0128F2D8FF2684F84560E0
:1032F00000F0E2F900F0BCF994F94470012F0EDB04
:1033000004F11005286850B1284601F06FFB002831
:1033100018BF00F0CFFBF8B2013F0128F2D884F8C3
:10332000446001B0BDE8F04000F0C6B970B5044695
:1033300000F0B8FC40F24C1CC2F2000CDCF80400B7
:1033400050B19CF80000002818BF4FF000404FF02B
:1033500000057CBB8DE000BF40F2A870C2F2000007
:10336000C21D22F0070210F00701A0EB020318BFF4
:10337000104600224FF48045CCE90602002918BF10
:1033800003F580454119083921F00701CCF80410F4
:10339000C1E90022DCF80420091AC0E9002101205B
:1033A0008CF800004FF00040CCE90211002C4FF0E7
:1033B00000055ED020405CD104F1100020F007022F
:1033C000600708BF04F10802002A4FF0000550D042
:1033D000DCF8080082424CD8604650F818EFDEF85E
:1033E000045095422BD2DEF80010B9B174464D68F6
:1033F000954217D20B68ABB15D68954216D218683A
:10340000A0B14568954215D204689CB165689542A3
:1034100014D22168A6460029E9D110E00CF1180069
:103420000DE000BF8E46204609E000BF9E460846DC
:1034300005E000BF8646184601E000BFA646DCF85E
:1034400004108E4514D00168DEF80040AB1A112B31
:1034500004604DD30EEB0205680719D04FF0500001
:1034600080F31188BFF36F8FBFF34F8FFEE700BF6C
:10347000002501F0F5FA68075BD04FF0500080F3AB
:103480001188BFF36F8FBFF34F8F00BFFEE700BF00
:103490000CF118006B60CEF8042000BF0368AB424B
:1034A0000AD21868A8420BD20368AB4204D218684B
:1034B0001A46A842F2D304E00246184601E000BFD3
:1034C0001A4653686C68D618AE4202D11C441546A1
:1034D00054602B19834207D1DCF80430984203D0A2
:1034E000D0E9000323446B60AA42286018BF15602E
:1034F00001F10805DEF80400DCE90212091A914224
:10350000CCF8081038BFCCF80C109CF8001000293B
:1035100018BF40F00040CEF80400DCF81000002195
:103520000130CEF80010CCF8100001F099FA6807CD
:10353000A3D1284670BD0000034642F6ED60C0F6F8
:1035400000004FF0807C21F0010103E903106FF0CF
:10355000020043F8240CA3F1440043F8202C7047E8
:10356000D0E9013201699A60D1F804C082688445CB
:10357000536008BF4A600022026108680138086091
:103580000868704744F6AC13C2F20003036044F2CB
:10359000AC70C2F20000086080201060704700002C
:1035A00044F60863C2F20003036044F60820C2F246
:1035B000000008604FF48070106070474FF0FF31DA
:1035C000024642F8081F00214260C0E90322016060
:1035D00070470000002101617047000010B5D1F86C
:1035E00000E01EF1010213D000F1080462681368C4
:1035F000734511D853681C68744511D85A6814680B
:1036000074450FD854682368A4467345EED90BE07F
:103610000269D2F804C007E09446224604E000BFE5
:103620009C4601E094461A46C1F804C0CCF8081044
:103630008A605160086101680131016010BD0000BD
:10364000D0F800C0436808619A684B608A609A6845
:10365000996051600CF1010101607047DFF80C00C6
:10366000016841F4700101607047000088ED00E0DE
:103670004FF0500080F31188BFF36F8FBFF34F8F6F
:1036800040F21000C2F2000001684A1C026009B159
:10369000704700BF4EF60450CEF2000000680006EE
:1036A00008BF70474FF0500080F31188BFF36F8F51
:1036B000BFF34F8FFEE7000040F21000C2F200009F
:1036C000016839B10139016018BF7047002080F3EB
:1036D000118870474FF0500080F31188BFF36F8F4F
:1036E000BFF34F8FFEE7000070B5002808BF70BD24
:1036F00040F24C15C2F200050446287854F8041C28
:10370000002818BF4FF0004008420DD0A4F1080671
:1037100032689AB14FF0500080F31188BFF36F8F79
:10372000BFF34F8FFEE700BF4FF0500080F31188CA
:10373000BFF36F8FBFF34F8FFEE700BF21EA00009A
:1037400044F8040C00F0AEFA54F8041CA8680844CD
:10375000A86005F1180000BF0368B3420AD21868D8
:10376000B04225D20368B34204D218681A46B04268
:10377000F2D301E0024618465368D418B44202D18D
:103780001944164651607318834206D16B689842FB
:1037900003D0D0E9000319447160B242306018BF11
:1037A0001660686901306861BDE8704001F058B981
:1037B0001A465368D418B442E5D1E1E74EF210003E
:1037C000CEF2000000210160816040F20801C2F2E7
:1037D0000001096844F6D352C1F26202A1FB021251
:1037E0004FF0FF3101EB92114160072101607047FA
:1037F00040F26C10EFF305811029C2F2000011D3E2
:103800004EF2F032CEF20002895C0278914209D287
:103810004FF0500080F31188BFF36F8FBFF34F8FCD
:10382000FEE700BF4EF60C51CEF200010968406879
:1038300001F4E061814298BF70474FF0500080F37F
:103840001188BFF36F8FBFF34F8F00BFFEE70000FB
:1038500044F6646CC2F2000CDCF8002022B363462C
:1038600053F8082F42B3634653F8102F52B3634600
:1038700053F8182F62B3634653F8202F72B3634690
:1038800053F8282F82B3634653F8302F92B3634620
:1038900053F8382F002A18BF7047072219600CEB25
:1038A000C2014860704700BF0022634619600CEBFC
:1038B000C2014860704700BF012219600CEBC201D1
:1038C00048607047022219600CEBC20148607047E3
:1038D000032219600CEBC201486070470422196092
:1038E0000CEBC20148607047052219600CEBC20165
:1038F00048607047062219600CEBC20148607047AF
:1039000070B515460E460446FFF7B2FE94F8440023
:10391000FF2804BF002084F8440094F84500FF28E5
:1039200004BF002084F84500FFF7C6FEA06B28B155
:103930002046BDE87040FFF7BFBC00BF04F1240083
:1039400031462A4600F0F8F82046BDE87040FFF7FF
:10395000B3BC000070B588B340F29805C2F2000510
:103960000446686950B14FF0500080F31188BFF3EE
:103970006F8FBFF34F8F00BFFEE700BF6869013054
:103980006861AE6928680430FFF7EAFD2868A41969
:10399000446005D3286A29680431FFF71FFE08E058
:1039A000E86929680431FFF719FEE86A844238BFE4
:1039B000EC6201F055F8002818BF70BD4EF60450B7
:1039C000CEF200004FF080510160BFF34F8FBFF384
:1039D0006F8F70BD70B588B1D1B140F29804C2F25A
:1039E00000046269F2B14FF0500080F31188BFF318
:1039F0006F8FBFF34F8F00BFFEE700BF4FF0500047
:103A000080F31188BFF36F8FBFF34F8FFEE700BFC6
:103A10004FF0500080F31188BFF36F8FBFF34F8FCB
:103A2000FEE700BF626901326261A26903689A42DF
:103A3000194403D2994203D316E000BF994201D33F
:103A4000914211D90160A56920688E1A0430FFF7F0
:103A500087FD2068AD19456008D3206A21680431CC
:103A6000FFF7BCFD0BE000BF016008E0E0692168E2
:103A70000431FFF7B3FDE06A854238BFE56200F02C
:103A8000EFFF002818BF70BD4EF60450CEF20000C4
:103A90004FF080510160BFF34F8FBFF36F8F70BD48
:103AA00040F29801C2F200018A6B026089694160AC
:103AB0007047000040F29800C2F20000012101634B
:103AC0007047000070B5D8B140F29804C2F200040B
:103AD0000D4621681831FFF781FDA6692068043082
:103AE000FFF73EFD681C15D02068AD19456019D35D
:103AF000206A21680431BDE87040FFF76FBD00BF48
:103B00004FF0500080F31188BFF36F8FBFF34F8FDA
:103B1000FEE700BF54F8500B011D2046BDE8704081
:103B2000FFF78EBDE06921680431FFF757FDE06AB9
:103B3000854238BFE56270BDF0B581B0C0B140F2DA
:103B40009804C2F200040D46216816461831FFF7AA
:103B500077FDA76920680430FFF702FD96B154F89D
:103B6000500B011D204601B0BDE8F040FFF768BDD5
:103B70004FF0500080F31188BFF36F8FBFF34F8F6A
:103B8000FEE700BF2068ED19456007D3206A216871
:103B9000043101B0BDE8F040FFF720BDE0692168C5
:103BA0000431FFF71BFDE06A854238BFE56201B0D2
:103BB000F0BD000010B588B00020CDE9050006A8D2
:103BC00005A904AAFFF7DEFC059800283ED0069C54
:103BD000002C45D05C21049A079107995C2949D1B2
:103BE00007992063022084F8590007A80021CDE935
:103BF000001042F61550C0F6000028A100230294E0
:103C0000FFF7CCF82046FEF73FFF079840F29804F4
:103C1000C2F20004A062B0B100F09AFF411C33D0A0
:103C2000012810D14FF0500080F31188BFF36F8F3F
:103C3000BFF34F8F4FF0FF30E06201202061002082
:103C4000A06100F095F808B010BD00BF4FF0500023
:103C500080F31188BFF36F8FBFF34F8FFEE700BF74
:103C60004FF0500080F31188BFF36F8FBFF34F8F79
:103C7000FEE700BF4FF0500080F31188BFF36F8F55
:103C8000BFF34F8FFEE700BF4FF0500080F3118865
:103C9000BFF36F8FBFF34F8FFEE700BF49444C4522
:103CA0000000000040F29800C2F2000041690131BA
:103CB0004161704780B540F2980EC2F2000EDEF806
:103CC000141019B10121CEF8301080BD0021CEF8BA
:103CD0003010DEF8241040F2483C01EB8103C2F2C0
:103CE000000C5CF823208AB101EB81020CEB82030B
:103CF00053F8042F5268181D82421A6020D0D068F1
:103D0000CEF80000CEF8241080BD00BF0CEB83027B
:103D1000A2F12803E1B15A6922BB012918D01A681F
:103D200012BB022914D053F8142CFAB903290FD06E
:103D300053F8282C0439002AA3F15003EAD0D3E722
:103D400052681A60D068CEF80000CEF8241080BD0A
:103D50004FF0500080F31188BFF36F8FBFF34F8F88
:103D6000FEE700BF0139BFE70239BDE70339BBE712
:103D7000B0B584B04EF2004CCEF2000C4CF2702183
:103D8000C4F20F11DCF800294B1C9A420AD14FF003
:103D9000500080F31188BFF36F8FBFF34F8F00BFC8
:103DA000FEE700BFDCF800298A4209D14FF050003D
:103DB00080F31188BFF36F8FBFF34F8FFEE700BF13
:103DC0009CF800100291FF218CF800109CF8001064
:103DD0008DF807109DF8071001F0500240F26C11A9
:103DE000C2F200010A7007224A609DF90720B2F171
:103DF000FF3F69DC032200BFD31C4B609DF8070026
:103E000040008DF807009DF90700B0F1FF3F23DC6B
:103E1000931C4B609DF8070040008DF807009DF94A
:103E20000700B0F1FF3F17DC531C4B609DF8070003
:103E300040008DF807009DF90700B0F1FF3F0BDC53
:103E40004A609DF80700043A40008DF807009DF98C
:103E500007000028D0D4131D032B35D14FF4407038
:103E6000486002988CF80000DCF8200940F47000EB
:103E7000CCF82009DCF8200940F07040CCF820098B
:103E8000FFF79CFC40F21004C2F2000400252560FC
:103E9000FFF7E4FB4EF63470CEF20000016841F00B
:103EA00040410160FFF70EF8FFF704FF039520681B
:103EB0004FF0500181F31188BFF36F8FBFF34F8F25
:103EC000013011D0FEE700BF4FF0500080F31188A1
:103ED000BFF36F8FBFF34F8FFEE700BF039830B97A
:103EE000039820B9039810B903980028F6D0002051
:103EF00004B0B0BD80B54FF0500080F31188BFF31F
:103F00006F8FBFF34F8F00F0A9FC30B14EF6045015
:103F1000CEF200004FF080510160002080F3118844
:103F200080BD00002DE9F041B0B306464843503053
:103F300014460F46FFF7FAF9054650B34FF0000854
:103F4000284685F84680002F18BF50302860C5E904
:103F50000F67FFF78DFB2868D5E90F12C5F8388089
:103F600002FB0103013901FB0201C5E90103FF2046
:103F7000E96085F8440085F8450005F11000FFF779
:103F80001DFB05F12400FFF719FBFFF795FB85F8F2
:103F90004C402846BDE8F0814FF0500080F3118876
:103FA000BFF36F8FBFF34F8FFEE7000070B582B095
:103FB00070B11C46B3B1F9B9F2B14FF0500080F3C3
:103FC0001188BFF36F8FBFF34F8F00BFFEE700BFB5
:103FD0004FF0500080F31188BFF36F8FBFF34F8F06
:103FE000FEE700BF4FF0500080F31188BFF36F8FE2
:103FF000BFF34F8FFEE700BF51B14AB94FF05000F9
:1040000080F31188BFF36F8FBFF34F8FFEE700BFC0
:1040100050230193019B502B2ED1019B069E01231F
:10402000002984F8463014BF22602460C4E90F01DF
:10403000FFF71EFB2068D4E90F12002502FB0103E5
:10404000013901FB0201A563C4E90103FF20E1601E
:1040500084F8440084F8450004F11000FFF7AEFA3C
:1040600004F12400FFF7AAFAFFF726FB204684F8A4
:104070004C6002B070BD00BF4FF0500080F311885B
:10408000BFF36F8FBFF34F8FFEE700002DE9F04FB6
:1040900083B00292C0B11D4617460E460446E9B1F0
:1040A000022D03D1E06B012840F0888000F0B6FBC0
:1040B00010BB0FB34FF0500080F31188BFF36F8F28
:1040C000BFF34F8FFEE700BF4FF0500080F3118821
:1040D000BFF36F8FBFF34F8FFEE700BF206C002848
:1040E000DED04FF0500080F31188BFF36F8FBFF325
:1040F0004F8F00BFFEE700BFFFF7BAFAA06B022D9B
:1041000066D0E16B884263D304F1100801206F464A
:104110000DF108090DE000BF2046FFF7CDF800F0D3
:104120009FFCFFF7A5FAA06BE16B88424FF00000FF
:104130004ED30299002973D0C00702D03846FFF74A
:10414000AFFCFFF7B9FAFFF7ADFDFFF791FA94F86E
:104150004400FF2804BF002084F8440094F8450080
:10416000FF2804BF002084F84500FFF7A5FA384671
:10417000494600F095FA002858D1FFF779FAD4F8AB
:1041800038A0D4F83CB0FFF797FADA45C4D10299C9
:104190004046FFF797FC2046FFF78EF800F060FCE2
:1041A0000028BED14EF60450CEF200004FF08051F0
:1041B0000160BFF34F8FBFF36F8FB2E74FF0500036
:1041C00080F31188BFF36F8FBFF34F8FFEE700BFFF
:1041D000A76B226CD2B19DB3E0683146FCF7BCF806
:1041E000E168206C2268091A9142E16003D2A1685B
:1041F00040420844E060A81EB0FA80F04009394609
:10420000002F18BF012108403F1A26E02068002532
:1042100020BBA06800F0A4FBA56005461EE000BF1F
:10422000FFF74AFA002003B0BDE8F08F2046FFF701
:1042300043F800F015FC002003B0BDE8F08F00BF8C
:1042400060683146FCF788F8216CD4E90102084423
:104250009042606001D3206860600025781CA063F4
:1042600054F8240FA0B1204600F0C0FB50B14EF628
:104270000450CEF200004FF080510160BFF34F8F29
:10428000BFF36F8FFFF718FA012003B0BDE8F08F7E
:10429000002DF7D04EF60450CEF200004FF08051C2
:1042A0000160BFF34F8FBFF36F8FFFF705FA012057
:1042B00003B0BDE8F08F00002DE9F04700B31E46C3
:1042C000144605460F4629B3022E02D1E86B012899
:1042D00052D1FFF78DFAEFF311884FF0500080F3C1
:1042E0001188BFF36F8FBFF34F8FA86B022E1FD0C3
:1042F000E96B88421CD3002088F31188BDE8F08761
:104300004FF0500080F31188BFF36F8FBFF34F8FD2
:10431000FEE700BF286C0028D6D04FF0500080F395
:104320001188BFF36F8FBFF34F8F00BFFEE700BF51
:1043300095F84590A86BD5F838A02A6C32B36EB3C7
:10434000E8683946FCF708F8E968286C2A68091A11
:104350009142E96003D2A96840420844E860B01E77
:10436000B0FA80F040095146BAF1000F18BF0121A0
:104370000840AAEB000A1EE04FF0500080F31188BD
:10438000BFF36F8FBFF34F8FFEE700BF286890B970
:10439000A86800F0E5FA0020A8600CE068683946DB
:1043A000FBF7DAFF296CD5E9010208449042686006
:1043B00001D3286868600AF10100B9F1FF0FA86312
:1043C00010D155F8240FB8B1284600F00FFB014674
:1043D000002C4FF0010018BF002913D188F3118879
:1043E000BDE8F08709F1010085F84500012088F358
:1043F0001188BDE8F08700BF012088F31188BDE86F
:10440000F08700BF0120206088F31188BDE8F087A5
:104410002DE9F04F83B0029290B116460D46044646
:10442000002949D000F0FAF9A0B99EB14FF0500030
:1044300080F31188BFF36F8FBFF34F8FFEE700BF8C
:104440004FF0500080F31188BFF36F8FBFF34F8F91
:10445000FEE700BFFFF70CF9D4F838A0BAF1000F5F
:1044600038D0226C52B1D4E902308118E16099420F
:1044700024BF2168E1602846FBF76EFFAAF1010026
:10448000A06354F8100F80B1204600F0AFFA002866
:1044900000F086804EF60450CEF200004FF08051BE
:1044A0000160BFF34F8FBFF36F8F0126FFF704F951
:1044B000304603B0BDE8F08F206C0028B2D04FF03A
:1044C000500080F31188BFF36F8FBFF34F8F00BF91
:1044D000FEE700BF002E4FF0000662D0EB465846C4
:1044E00004F12408FFF7DCFA0DF10809FFF7E4F8FE
:1044F000FFF7D8FBFFF7BCF894F84400FF2808BF8B
:1045000084F8446094F84500FF2808BF84F84560AB
:10451000FFF7D2F85846494600F0C2F860B120468D
:10452000FEF7CAFE00F09CFAFFF7A2F8A76BFFF7B0
:10453000C3F81FBB3CE000BFFFF79AF8A76BFFF77B
:10454000BBF82FB12046FEF7B7FE00F089FA15E060
:1045500002994046FFF7B6FA2046FEF7ADFE00F09E
:104560007FFA58B94EF60450CEF200004FF0805159
:104570000160BFF34F8FBFF36F8F00BFFFF778F875
:10458000D4F838A0BAF1000F7FF46BAF029800287E
:10459000ACD10026FFF790F8304603B0BDE8F08FAD
:1045A0000126FFF789F8304603B0BDE8F08F00BF61
:1045B0000026304603B0BDE8F08F00002DE9F0433F
:1045C00081B000283ED0914605460E46002943D0D2
:1045D000FFF70EF9EFF311884FF0500080F31188C8
:1045E000BFF36F8FBFF34F8FAC6B002C42D095F8A9
:1045F00044702A6C52B1D5E902308118E9609942C1
:1046000024BF2968E9603046FBF7A6FE601EFF2F35
:10461000A86335D155F8100F00283BD0284600F08C
:10462000E5F90146B9F1000F4FF0010004D000296F
:104630001CBF0120C9F8000088F3118801B0BDE853
:10464000F08300BF4FF0500080F31188BFF36F8FED
:10465000BFF34F8FFEE700BF286C0028B8D04FF0A3
:10466000500080F31188BFF36F8FBFF34F8F00BFEF
:10467000FEE700BF002088F3118801B0BDE8F08399
:10468000781C85F84400012088F3118801B0BDE84A
:10469000F08300BF012088F3118801B0BDE8F083EA
:1046A000B0B5D8B10D4619B30446FEF7E1FF40F2AC
:1046B000980CC2F2000CDCF8182029684B1C21D0A1
:1046C000D4E9000EDCF83830834221D072451FD384
:1046D0000124FEF7F1FF2046B0BD00BF4FF05000AF
:1046E00080F31188BFF36F8FBFF34F8FFEE700BFDA
:1046F0004FF0500080F31188BFF36F8FBFF34F8FDF
:10470000FEE700BF0024FEF7D7FF2046B0BD00BF84
:10471000A2EB0E0291420DD9881A2860DCF838000D
:104720002060DCF8180060600024FEF7C5FF20461A
:10473000B0BD00BF002001242860FEF7BDFF204669
:10474000B0BD00002DE9F04383B0074690009846C5
:1047500015468946FEF7EAFDF8B106465C20FEF7ED
:10476000E5FDB8B10446DDE90A100022266384F8AD
:104770005920CDE90010384649462A46434602945E
:10478000FEF70CFB2046FEF77FF9012003B0BDE8E1
:10479000F08300BF3046FEF7A7FF4FF0FF3003B0B5
:1047A000BDE8F08370B586B00B9CCCB10C9E0EB307
:1047B0005C250495049D5C2D26D1049DDDF828C060
:1047C000022586F8595005AD3463CDE900C502963F
:1047D000FEF7E4FA3046FEF757F9059806B070BDCB
:1047E0004FF0500080F31188BFF36F8FBFF34F8FEE
:1047F000FEE700BF4FF0500080F31188BFF36F8FCA
:10480000BFF34F8FFEE700BF4FF0500080F31188D9
:10481000BFF36F8FBFF34F8FFEE7000040F29800A9
:10482000C2F20000016900290FBF01204069B0FAFF
:1048300080F0400918BF40007047000040F2980027
:10484000C2F200008069704780B5FEF7D1FF40F2E8
:104850009800C2F20000806980BD00002DE9F0439D
:1048600081B040F29806C2F20006706940B1706BE8
:10487000002401307063204601B0BDE8F08300BF22
:10488000B06910F10109C6F8189020D3F0690068EA
:1048900050B14FF0500080F31188BFF36F8FBFF31A
:1048A0004F8F00BFFEE700BFF069316AF1613062EF
:1048B000B06B0130B063F069006828B1F069C0687E
:1048C000C068406802E000BF4FF0FF30F062F06A5D
:1048D00040F248388145C2F2000801D200242EE09F
:1048E000F0690024006813E0F86A716A884288BFA2
:1048F000706200EB800008EB80002946FEF7A0FE06
:10490000F86A3168C96AF269884228BF01241068D0
:1049100090B1F069C068C7683D4655F8040F8145FD
:104920000CD32846FEF71CFEB86A0028DCD007F13D
:104930001800FEF715FED7E74FF0FF30F062306841
:10494000C06A00EB800058F82000012888BF0124CD
:10495000306B002818BF0124204601B0BDE8F08369
:1049600070B588B140F29806C2F20006044630687D
:10497000A0420BD04FF0500080F31188BFF36F8F2F
:10498000BFF34F8FFEE700BF002070BD206D18B34E
:10499000411EE06AE26C216590424FF0000008BFC2
:1049A00070BDC1B9251D2846FEF7DAFDE06CC0F1E7
:1049B0003801E062A161716A884240F2483188BFE3
:1049C000706200EB8000C2F2000101EB800029461A
:1049D000FEF736FE012070BD4FF0500080F31188C5
:1049E000BFF36F8FBFF34F8FFEE7000070B5C06855
:1049F000C5686DB105F118042046FEF7B1FD40F21F
:104A00009806C2F20006706960B106F164001AE00F
:104A10004FF0500080F31188BFF36F8FBFF34F8FBB
:104A2000FEE700BF2C1D2046FEF79AFDE86A716A7A
:104A3000884240F2483188BF706200EB8000C2F2C9
:104A4000000101EB80002146FEF7FAFDE86A3168BB
:104A5000C96A884292BF00200120306370BD000007
:104A60002DE9F04140F29805C2F20005686968B18D
:104A7000FEF7FEFD686901386861686980B100244D
:104A8000FEF71AFE2046BDE8F08100BF4FF050004F
:104A900080F31188BFF36F8FBFF34F8FFEE700BF26
:104AA000E8680028EBD0686E88B340F24836C2F25E
:104AB00000064FF0010800BF286FC76807F1180013
:104AC000FEF74EFD3C1D2046FEF74AFDF86A696A76
:104AD000884288BF686200EB800006EB80002146B8
:104AE000FEF7AEFDF86A2968C96A884228BFC5F892
:104AF0003080686E0028DFD1E869006820B1E8697D
:104B0000C068C068406801E04FF0FF30E8626C6B3D
:104B10004CB10126FFF7A2FE002818BF2E63013C0E
:104B2000F8D100206863286B0028A8D04EF6045006
:104B3000CEF200004FF080510160BFF34F8F01248F
:104B4000BFF36F8FFEF7B8FD2046BDE8F08100008F
:104B500070B586B0FEF78CFD40F21016C2F200066A
:104B6000306808BB06F114042046FEF727FD06F165
:104B700028052846FEF722FD40F2582240F2F8238D
:104B8000C6E902450025C2F20002C2F200030A2073
:104B900010210095FFF70AFA306028B145F289012B
:104BA000C0F60001FEF754FEFEF786FD3068D8B16E
:104BB0000020CDE9040005A804A903AAFEF7F0FC33
:104BC000DDE903200221059DCDE9001042F62D709C
:104BD000C0F6000009A100230295FFF7E3FD706015
:104BE00010B1012006B070BD4FF0500080F3118865
:104BF000BFF36F8FBFF34F8FFEE700BF546D72207E
:104C0000537663004100080218BF04200A0E18BF43
:104C100040F001004FF07F4232EA010108BF40F04E
:104C20000200012808BF05207047000000B510EE03
:104C3000101A2DED028B81B0524A6846B2EB410F3B
:104C40002ED94FF0E640B0EB410F94BF00204FF05B
:104C5000FF3000900098B0EE408A00286ADB10F028
:104C6000010F4BD068EE080A9FED471A9FED470AE7
:104C700000EE810A9FED461A10F0020F00EE801A36
:104C8000B7EE000A00EE810A02BF01B0BDEC028B54
:104C900000BD00BF01B0B1EE400ABDEC028B00BD0B
:104CA0003C4B21F00042934241D911F0004FDFED1F
:104CB0003A0A20EE201ADFED390A19BF31EE601AE8
:104CC00071EE200A31EE201A71EE600ABDEEE01A94
:104CD00011EE100A9FED321A00F0030000EEC10A37
:104CE0009FED301A009000EEC10A9FED2F1A00EEE2
:104CF000C10A9FED2E1A00EEC10AABE728EE080AA2
:104D00009FED2B1ADFED2B0A10F0020F40EE010A87
:104D10009FED291A00EE201A61EE000AB0EE480A53
:104D200008EE200AB6D101B0BDEC028B00BD00F048
:104D300059F88FE718EE100A4000B0F17F4F0DD2FE
:104D400018EE100AFFF75EFF042808BF00F042F8D3
:104D5000B0EE480A01B0BDEC028B00BD09D10120C4
:104D6000FBF776FB01B0BDEC028B5DF804EB00F0C5
:104D700029B801B0B0EE480ABDEC028B5DF804EB37
:104D800000F01CB8B61F927EB93AB2BACA9F2A3D4B
:104D9000DDFFFFBE490E494683F9223F0000004B6C
:104DA0000000C93F00A0FD390020A2331A61342C55
:104DB000336D4CB9DA82083CA0AA2ABE30EE000A54
:104DC00070470000DFED020A80EEA00A7047000085
:104DD000000000009FED020A20EE000A704700006C
:104DE000000000102DE9F0014FF07F42B2EB410FBF
:104DF0009FBF4FF0FF310160BDE8F00170474FF0F9
:104E0000004242EA0123C1F3C752783A551112F029
:104E10001F0C434CCCF120067C44C1F3C752A2F1D5
:104E200078024FEA621204EB820254F8254008BF70
:104E3000D2E9015612D0556804FA0CF425FA06F7A7
:104E40003C43976805FA0CF527FA06F8D26807FA8A
:104E50000CFCF24045EA08054CEA0206A4FB034CB0
:104E6000A5FB0352A6FB03631D449D4234BF0126EC
:104E700000261319334416B1934202D903E093423A
:104E800001D2012200E00022624402F1200C9206CD
:104E9000DC0C42EA443200EE102A5B03DFED210A0B
:104EA000F8EEC01A00EE103A4FEA9C1C11F0004FC9
:104EB000B8EE400AC0F800C020EE201A00EE105AEA
:104EC000DFED190AB8EE400A20EE200A71EE810AE1
:104ED00070EE800A10EE902A02F500626FF30B026A
:104EE00000EE902A70EEE11A31EEC11ADFED101AD1
:104EF00030EE411A9FED0D0A20EE800A01EE210AE4
:104F00009FED0C1A00EE810A04BFBDE8F001704766
:104F1000CCF180510160BDE8F001B1EE400A70476C
:104F200038010000000000360000802C22AAFD2974
:104F3000DB0FC92F0000C92FF1EE100A4FF6FF71E9
:104F4000C0F2C03120EA010040F04070E1EE100AEA
:104F500070470000000000006E83F9A22915444E3E
:104F6000D15727FCC0DD34F5999562DB4190433C75
:104F7000AB6351FE000000000000000001020304CA
:104F80000607080900000000010203045050000851
:104F90000000000000000000000000000000000011
:104FA00000040000180000000000000000000000E5
:104FB0007D5000080000000000000000000000001C
:104FC00000000000000400001800000000000000C5
:104FD000000000006F50000800000000000000000A
:104FE00000000000000000000002000008000000B7
:104FF00000000000000000006050000800000000F9
:10500000000000000000000000000000000200009E
:1050100018000000000000000000000040500008E0
:105020000000000000000000000000000000000080
:105030000002000008000000000000000000000066
:105040005374617475735F53656E645F547361006C
:105050004272656174684C65645F5F5461736B0094
:105060005374617475734C65645F5461736B00466F
:105070006565646261636B5F5461736B0043616E6D
:105080005F52785F5461736B00546D725100000081
:10509000B05000080000002018000000C401000803
:1050A000C850000818000020905A0000E0010008D5
:1050B00001000000100000000024F400D0070000F0
:0850C000AAAAAAAA0000000040
:040000050800018965
:00000001FF
