:020000040800F2
:10000000B85A00202902000829210008F91E00081A
:10001000252100080D060008052400080000000046
:10002000000000000000000000000000A121000806
:10003000490600080000000031210008D521000811
:10004000430200084302000843020008430200087C
:10005000430200084302000843020008430200086C
:10006000430200084302000843020008430200085C
:10007000430200084302000843020008430200084C
:100080004302000843020008430200083506000846
:10009000110600081D060008290600084302000892
:1000A00043020008B522000843020008430200088A
:1000B000430200084302000843020008430200080C
:1000C00043020008430200084302000843020008FC
:1000D00043020008430200084302000843020008EC
:1000E00043020008430200084302000843020008DC
:1000F00043020008430200084302000843020008CC
:1001000043020008430200084302000843020008BB
:1001100043020008430200084302000843020008AB
:10012000430200084302000843020008430200089B
:100130004302000800000000000000004302000825
:10014000430200084302000843020008430200087B
:10015000430200084302000843020008430200086B
:10016000430200084302000843020008430200085B
:1001700043020008430200080000000000000000E5
:10018000430200084302000800F002F800F03CF8C7
:100190000AA090E8000C82448344AAF10107DA45E2
:1001A00001D100F031F8AFF2090EBAE80F0013F0F8
:1001B000010F18BFFB1A43F001031847F44B00006E
:1001C000144C0000103A24BF78C878C1FAD85207FE
:1001D00024BF30C830C144BF04680C6070470000C1
:1001E0000023002400250026103A28BF78C1FBD840
:1001F000520728BF30C148BF0B6070471FB504F0DD
:100200002BFD1FBD10B510BD00F062F91146FFF7C0
:10021000F5FF02F031F900F080F903B4FFF7F2FFC7
:1002200003BC00F083F900000948804709480047F3
:10023000FEE7FEE7FEE7FEE7FEE7FEE7FEE7FEE796
:10024000FEE7FEE704480549054A064B70470000F3
:10025000A122000889010008B84E0020B85A0020E9
:10026000B8560020B856002053EA020C00F069800E
:100270002DE9F04B4FF00006002B1FBFB3FA83F5BA
:1002800003FA05F424FA05F65E4012BF1643B2FAEB
:1002900082F502FA05F4C5F120051EBF22FA05FC1D
:1002A00044EA0C04203556EA044C4FEA144418BFC3
:1002B000641C4FF000084FF00009904271EB030CF2
:1002C00039D3002919BFB1FA81F701FA07F6B0FA5C
:1002D00080F700FA07F6C7F120071EBF20FA07FCD7
:1002E00046EA0C062037B6FBF4FCA7EB0507103FE7
:1002F00007F01F0BCBF120062CFA06F60CFA0BFBCD
:1003000044BFB3460026202FA4BF5E464FF0000B2B
:100310005BEA060C08BF4FF0010B19EB0B0948EB29
:100320000608ABFB027C06FB02CC0BFB03CCC01B1C
:1003300071EB0C01C1E70B46024641464846BDE859
:10034000F08B13B5084318BF4FF0FF300146AFF3F1
:100350000080BDE81C407047032A40F2308010F056
:10036000030C00F0158011F8013BBCF1020F624450
:1003700098BF11F801CB00F8013B38BF11F8013BE1
:10038000A2F1040298BF00F801CB38BF00F8013B8E
:1003900011F0030300F06280083AC0F0088051F8C1
:1003A000043B083A51F804CBA0E80810F5E7121D09
:1003B0005CBF51F8043B40F8043BAFF30080D20728
:1003C00024BF11F8013B11F801CB48BF11F8012BF4
:1003D00024BF00F8013B00F801CB48BF00F8012B17
:1003E000704702F0FF0343EA032242EA024200F0B0
:1003F00002B84FF0000200B51346944696462039E5
:1004000022BFA0E80C50A0E80C50B1F12001BFF4CD
:10041000F7AF090728BFA0E80C5048BF0CC05DF833
:1004200004EB890028BF40F8042B08BF704748BF81
:1004300020F8022B11F0804F18BF00F8012B7047F5
:1004400070477047704710B500F03AF8006810BD6B
:1004500010B5044600F034F8046010BD10B5203A21
:10046000C0F00B80B1E81850A0E81850B1E818505F
:10047000A0E81850203ABFF4F5AF5FEA027C24BF31
:10048000B1E81850A0E8185044BF18C918C0BDE81A
:1004900010405FEA827C24BF51F8043B40F8043BE3
:1004A00008BF7047D20728BF31F8023B48BF11F898
:1004B000012B28BF20F8023B48BF00F8012B7047F2
:1004C00000487047180000200048704718000020BE
:1004D0007546FFF7F9FFAE4605006946534620F022
:1004E0000700854618B020B5FFF7ACFEBDE82040F8
:1004F0004FF000064FF000074FF000084FF0000BE0
:10050000AC46ACE8C009ACE8C009ACE8C009ACE84E
:10051000C00921F007018D46704710B50446AFF3BE
:1005200000802046BDE81040FFF777BE0149182043
:10053000ABBEFEE72600020070470000002440F238
:10054000AC179FED2F8A9FED2F9A9FED2FBA40F2A7
:100550000E0948F21F5A0026C4F20204C2F2000734
:10056000B7EE00AAC2F20009C5F2EB1A4FF0010B78
:10057000387850B920461021002200F063FD642035
:1005800001F0DCFF38780028F4D0B0B200EE100A99
:10059000B8EE400A20EE080A80EE090A04F0D6F907
:1005A00030EE0A0A20EE0B0ABDEEC00AB9F80000D0
:1005B00010EE101A4843A0FB0A01B9F80000C1F37D
:1005C0004F15A0EB511820461021012200F03AFDF2
:1005D000284601F0B3FF20461021002200F032FD32
:1005E0001FFA88F001F0AAFF1BFA86F0A0FB0A129E
:1005F0005109642201FB120638780028BAD0C4E7FA
:10060000D00FC9400000C84200004842FEE7000089
:1006100040F2B010C2F2000000F096B940F2B01003
:10062000C2F2000000F090B940F2B010C2F2000037
:1006300000F08AB940F2B010C2F2000000F084B9B4
:10064000012001F07BFFFBE77047000072B600BF9E
:10065000FEE70000012001F071FFFBE790F8202089
:10066000013A012A08D8006800F11402002013683A
:1006700019431160704700BF00F1240201204FF4BC
:1006800080211368194311607047000010B590F87D
:1006900020E0D0F800C0AEF1010EBEF1010FDCF891
:1006A00008E00FD81EF0E05F16D0CEF3016E0120F7
:1006B00000FA0EF018608B68C3B1486843EAC003C3
:1006C00016E000BF00F1240101204FF480220B68E6
:1006D0001A430A6010BD00BF00F1240101204FF44D
:1006E00000120B681A430A6010BD00BF086843057A
:1006F000D1E9030403430CEB0E10C0F88031C0F8BD
:100700008441097D012905D100F5C2710B6843F4CC
:1007100080730B605168C0F88C11126800F5C071CD
:10072000C0F88821002001220B681A430A6010BD1E
:10073000B0B590F82020013A012A2FD846F2006087
:10074000C4F20000026842F001020260026822F472
:100750007C520260D1F814E0CC694A6A0368012C2B
:1007600043EA022202600EF01F024FF0010303FA77
:1007700002F2C3696FEA020C23EA0203C36113D0D9
:100780002CBBC36803EA0C03C360CB688C8844EAC3
:10079000034300EBCE0423640B4611E0416A41F4AD
:1007A000802141620120B0BDC3681343C3600B6860
:1007B0008C8844EA034300EBCE04236401F10C036C
:1007C0008C681B8843EA044300EBCE0463644368EF
:1007D0008D6943EA0204D1F810E0096A002D08BFD0
:1007E00003EA0C0444604369BEF1000F43EA0204CB
:1007F00008BF03EA0C040129446102D1C169114315
:10080000C161016821F0010101600020B0BD00005C
:100810007047000010B590F82040013C012C7BD8B7
:10082000D0F800C0002900F08180DCF81040A40757
:1008300000F081800CEB011CDCF8B0410CF5D87E97
:1008400014F004049460DCF8B04119BFE40854606B
:10085000640D1460DEF800400CF5DA7E04F002044A
:10086000D460DCF8B44124075ABFDEF8004004F03D
:100870000F0408241461DEF800400029C4F30724A3
:100880009461DEF800404FEA14445461DCF8B8216A
:100890001A70026802EB0112D2F8B8214FEA122254
:1008A0005A70026802EB0112D2F8B8214FEA1242E4
:1008B0009A70026802EB0112D2F8B8214FEA126274
:1008C000DA70026802EB0112D2F8BC211A710268D8
:1008D00002EB0112D2F8BC214FEA12225A710268CF
:1008E00002EB0112D2F8BC214FEA12429A7102685F
:1008F00002EB0112D2F8BC214FEA1262DA710068F1
:1009000014BF00F1100100F10C01002020220B683F
:100910001A430A6010BD00BF00F1240101204FF40A
:1009200080220B681A430A6010BD00BFDCF80C403F
:10093000A4077FF47FAF00F1240101204FF40012DF
:100940000B681A430A6010BD2DE9F04F81B00446D0
:1009500000684669D0F804908768D0F80CB0D0F8E9
:1009600010A0D0F81880F10704D1002530071DD45D
:1009700024E000BFF90710D00121BA07816009D433
:10098000780700F1AF80380700F1B680204600F00C
:100990006DFA02E0204600F06BFA0025F80500F140
:1009A0008780F80300F1B180300707D51BF01000F5
:1009B00004D0206845F400751021C160700708D587
:1009C0001BF0080005D020680821C160204600F017
:1009D000BBF9B00706D52068C068800702D0204662
:1009E00000F0B4F9700607D51AF0100004D02068A2
:1009F00045F4806510210161B00608D51AF00800A1
:100A000005D0206808210161204600F0FBF9F006BE
:100A100006D520680069800702D0204600F0F4F96E
:100A2000B00308D519F0100005D0206810214160EE
:100A3000204600F0EBF9F00308D519F0080005D0C6
:100A4000206808214160204600F01CFA300440F183
:100A50009B805FEA497040F1948006F4807008EA58
:100A6000102028435FEA8871014648BF41F0020127
:100A7000B20558BF01465FEA48700D4648BF45F0D1
:100A80000405700558BF0D46300540F17A8018F016
:100A9000700000F076801038000905286CD8DFE877
:100AA00000F003595D61656945F0080564E000BF29
:100AB00020684FF48071BA0581600BD4780515D495
:100AC00038051DD4204600F0D5F9F8037FF56CAF4A
:100AD0001BE000BF204600F0CFF9F8037FF564AFBC
:100AE00013E000BF4FF4006558E700BF05F500555F
:100AF000F8037FF559AF08E04FF480554EE700BF8B
:100B000005F58045F8037FF54FAF20684FF480313D
:100B1000BA0381600AD4780310D4380314D4204671
:100B200000F0ACF930073FF541AF47E7204600F051
:100B3000A7F930073FF53AAF40E700BF05F500459C
:100B400030073FF533AF39E705F5803530073FF51E
:100B50002DAF33E745F010050EE000BF45F020054E
:100B60000AE000BF45F0400506E000BF45F0800503
:100B700002E000BF45F480752068816921F07001B2
:100B8000816120680421416055B1606A40EA050135
:100B90002046616201B0BDE8F04FFFF739BE00BFEB
:100BA00001B0BDE8F08F0000B0B5C8B1044690F8C0
:100BB000200010B9204600F071F82068016841F06B
:100BC0000101016000F044FA054600BF2068416859
:100BD000C90707D100F03CFA401B0B28F6D312E0FE
:100BE0000120B0BD016821F00201016000F030FA7F
:100BF000054600BF2068416889070DD500F028FA36
:100C0000401B0B28F6D3606A052140F40030606277
:100C1000012084F82010B0BD217E0268012922F055
:100C2000800208BF80320260617E0268012922F0E2
:100C3000400208BF40320260A17E0268012922F012
:100C4000200208BF20320260E17E0268012922F002
:100C5000100218BF10320260217F0268012922F0C1
:100C6000080208BF08320260617F0268012922F091
:100C7000040208BF04320260D4E901C2D4E903359A
:100C800061691A432A431143ACF101021143C16166
:100C900000200121606284F82010B0BD80B586B0CC
:100CA000016846F20040C4F20000814202D006B062
:100CB00080BD00BF002143F630020191C4F2020260
:100CC000136900F5CE3043F000731361136903F02C
:100CD00000730193019B0191136843F001031360BA
:100CE000126802F001020192019A4FF4C05201927F
:100CF0000222CDE90221032104910921059101A9D4
:100D000000F0C2F813200521002200F05DFA132044
:100D100000F04AFA14200521002200F055FA1420B0
:100D200000F042FA15200521002200F04DFA1520AE
:100D300000F03AFA16200521002200F045FA1620AC
:100D400000F032FA06B080BD7047000080B58AB06E
:100D5000016846F20042C4F20002914202D00AB099
:100D600080BD00BF03AA01AB0021FFF753FD05982A
:100D700070B1049840F20111C0F201218842EED115
:100D800040F2A000C2F20000012181700AB080BDD3
:100D90000398032820D00128E1D19DF8040040F2F7
:100DA000A001C2F200010870BDF8050040F20C027B
:100DB00000BA000CC2F20002108040F27800C2F2C9
:100DC000000000680028CAD00978128842EA014170
:100DD000009169460FE000BF9DF8040040F2A001B9
:100DE000C2F20001487040F27C00C2F200000068CC
:100DF0000028B4D001310022002303F069F90AB0C1
:100E000080BD000070470000704700007047000080
:100E1000B0B5044690F8200001281DD1022084F8C6
:100E200020002068016821F00101016000F010F944
:100E3000054600BF20684068C00713D000F008F9DD
:100E4000401B0B28F6D3606A40F400306062052036
:100E500084F820000120B0BD606A40F40020606288
:100E60000120B0BD00206062B0BD000070470000EE
:100E70007047000070470000704700007047000096
:100E800070470000704700002DE9F04F82B000F17C
:100E90003E4241F6004502F1FF77C4F20205082206
:100EA0004FEAB726A84208BF0722072E38BF4FEAED
:100EB000B7224FF0010A002400274FF000080092EB
:100EC00008E000BF023708F10108202F04F10404F4
:100ED00000F0B4800E680AFA08F916EA090FF1D09A
:100EE000D1F804A00AF0030BABF10106012E17D8CC
:100EF0000322866802FA07FECA6826EA0E06BA408E
:100F0000324382604268CAF3001522EA090205FAF8
:100F100008F54FEA480C6FEA0E062A4342600BE0E0
:100F20000322BA40D643BBF1030FBC4604D1BC46F2
:100F30004FF0030B22E000BFC2688D68324005FA13
:100F40000CF52A43BBF1020FC26017D16FF0030208
:100F500002EA5802024404F01C030F25D2F820E0F4
:100F600005FA03FA0D692EEA0A0E05FA03F343EABD
:100F70000E031362D1F804A00AF0030B02680BFA07
:100F80000CF332401A431AF4403F4FF0010A02605A
:100F900098D0002243F644030192C4F202031A6877
:100FA00043F6004E42F480421A601A68C4F2010E01
:100FB00002F480420192019A28F003024FF6084C95
:100FC0007244CFF6FF7C52F80C3004F00C060F256B
:100FD000B540AB43009D05FA06F6334342F80C30AA
:100FE000DEF808204B6842EA090643F60C4CDD02A5
:100FF00058BF22EA0906CEF80860C4F2010CDCF8FA
:1010000000209D0242EA090658BF22EA0906CCF8F0
:101010000060DEF804209D0342EA090658BF22EA78
:101020000906CEF80460DEF80020DB0342EA090678
:1010300058BF22EA0906CEF8006043E702B0BDE8D7
:10104000F08F0000002A08BF09048161704700008A
:1010500044F2B870C2F200000068704740F200002D
:1010600044F2B871C2F20000C2F2000100780A68CE
:10107000104408607047000080B543F60040C4F299
:101080000200016841F400710160016841F480616F
:101090000160016841F480710160032000F0C0F834
:1010A0000F2000F005F800F05DF8002080BD000082
:1010B000B0B586B0002543F644010195C4F20201A3
:1010C0000A68044642F001020A60096801A801F0BA
:1010D000010101910199694600F062F900F080F97F
:1010E0004DF683614000C4F21B31A0FB01014FF0BB
:1010F000FF3000EB914140F2D8100022C2F2000014
:10110000C4F2010240F2E733C0E90021C0E9025312
:101110000561856100F0CAFB054618B1284606B096
:10112000B0BD00BF40F2D810C2F2000000F0EEFBEC
:1011300005460028F2D1192000F036F80F2C0DD802
:10114000192021460022002500F03EF840F204005C
:10115000C2F200000460284606B0B0BD0125284652
:1011600006B0B0BD82B0002043F640010190C4F249
:1011700002014A6842F480424A604A6802F48042AE
:101180000192019A00900868002240F080500860A7
:1011900008680F2100F08050009000986FF0010067
:1011A00002B000F011B80000002848BF704700F0FE
:1011B0001F01012202FA01F14EF200124009CEF2A3
:1011C000000242F82010704710B54EF60C5CCEF2CB
:1011D000000CDCF80030C3F3022E8EF00704042C60
:1011E00028BF0424BEF103034FF0FF3E0EFA04F4BF
:1011F00038BF0023A14399400EFA03F39A431143E9
:1012000000F00F02043A624409010C3200F160431D
:10121000B0F1FF3FC8BF03F56442117010BD00007C
:101220004EF60C51CEF200010A684FF6FF031A4049
:1012300060F30A2242F0806040F0FD700860704761
:101240002DE9F041002800F08B8043F60808C4F235
:1012500002080446D8F8F8030D4600F0070088425B
:1012600007D288F8F853D8F8F80300F00700A8422E
:1012700076D12068810717D5410705D5D8F8001029
:1012800041F4E051C8F80010010705D5D8F8001066
:1012900041F46041C8F80010D8F80010A26821F0AD
:1012A000F0011143C8F80010C0073FD1D8F8F80387
:1012B00000F00700A84207D988F8F853D8F8F803D7
:1012C00000F00700A8424BD12068410707D5D8F8A5
:1012D0000010E26821F4E0511143C8F80010000743
:1012E00008D5D8F80000216920F4604040EAC10028
:1012F000C8F8000000F088F8D8F8001044F69442CE
:10130000C1F30311C0F60002515C40F2080220FA5A
:1013100001F140F20400C2F200000068C2F20002D3
:101320001160FFF7C5FE0020BDE8F0816068811EF6
:10133000022907D258F8081C89015CBF0120BDE8CA
:10134000F08111E0012807D158F8081C89035CBF1F
:101350000120BDE8F08107E058F8081C890703D494
:101360000120BDE8F08100BFD8F8001021F0030192
:101370000843C8F80000FFF76BFE064641F28837C5
:10138000D8F80000616800F00C00B0EB810F8DD040
:10139000FFF75EFE801BB842F2D90320BDE8F08162
:1013A0000F22026043F60802C4F20202136803F03F
:1013B00003034360136803F0F0038360136803F4CE
:1013C000E053C360D2F800C04FF4E05303EADC03FB
:1013D0000361D2F8F80300F00700086070470000CE
:1013E00040F2080043F60801C2F20000C4F2020114
:1013F0000068096844F6A442C1F34231C0F6000215
:10140000515CC8407047000010B543F60404C4F2B4
:101410000204606800F00C0008280BD0042819BFF3
:1014200042F20040C0F2F40047F64000C0F27D10E6
:1014300010BD00BF206821682368490247F64001BB
:10144000C0F27D1100F03F02C3F388105CBF42F28E
:101450000041C0F2F401A1FB00010023FEF704FFEC
:1014600021680222C1F3014102EB4101B0FBF1F01E
:1014700010BD00002DE9F04182B000286AD004467A
:10148000007843F60006C007C4F202060BD0B0682D
:1014900000F00C00042840F0A1803068800302D5E1
:1014A0006068002856D0207880071AD5B06810F000
:1014B0000C0F09D0B06800F00C00082840F0A8809C
:1014C0007068400200F1A4803068800702D5E068AF
:1014D00001283FD13068216920F0F80040EAC100BE
:1014E00030602078000739D4207840074ED4A569B1
:1014F0005DB3B06800F00C00082840F0BD80012DFD
:1015000028D07068E16900F480028A4222D1216A01
:1015100000F03F028A421DD147F6C071626A014065
:10152000B1EB821F16D1A26A0023CFF6FF7303EB43
:10153000C23200F440316FF30F0291420AD1E16AE6
:1015400000F07060B0EB016F04D1002002B0BDE884
:10155000F08100BF012002B0BDE8F0816069002881
:1015600040F20000C4F2472076D00121C0F8801E6E
:10157000FFF76EFD054600BF706F8007B4D4FFF71C
:1015800067FD401B0228F7D9DDE000BF306C10F08A
:1015900080580AD100200190306C40F080503064B7
:1015A000306C00F080500190019847F20007C4F2BF
:1015B00000073868C00541D4386840F4807038604E
:1015C000FFF746FD054600BF3868C00536D4FFF773
:1015D0003FFD401B0228F7D9B5E000BFB06800F01E
:1015E0000C00082803D1706840023FF556AF6068D0
:1015F000B0F5803F07D0B0F5A02F40F08D80306867
:1016000040F480203060306840F4803030608DE0FD
:10161000E068002852D00020C4F247200121016078
:10162000FFF716FD054600BF306880073FF552AF53
:10163000FFF70EFD401B0228F6D984E0A0680128C0
:1016400005D005284ED1306F40F004003067306F70
:1016500040F0010030674FE00021C0F8801EFFF726
:10166000F7FC0546706F80077FF53EAFFFF7F0FC93
:10167000401B0228F6D966E00027C4F24727002065
:101680003866FFF7E5FC022D05460BD13068800176
:101690005ED5FFF7DDFC401B02284FF00300F5D9B3
:1016A00054E700BF306880017FF54FAFFFF7D0FCF3
:1016B000401B02284FF00300F4D947E70020C4F292
:1016C000472000210160FFF7C3FC05463068800712
:1016D0007FF507AFFFF7BCFC401B02284FF003006B
:1016E000F4D933E7316F002821F001013167316F00
:1016F00021F0040131674DD0FFF7AAFC054641F205
:10170000883700BF306F800756D4FFF7A1FC401B1D
:10171000B842F7D917E000BF3168002821F48031C2
:101720003160316821F4802131604FD0FFF790FCA7
:10173000054600BF306880033FF5B5AEFFF788FC73
:10174000401B6428F6D9032002B0BDE8F08100BF39
:1017500004F11C052FCD08430021CFF6FF7140EAAC
:10176000821001EBC3316FF30F0140EA05600843BB
:10177000706001203866FFF76BFC0446306880011A
:101780003FF5E3AEFFF764FC001B02284FF00300B7
:10179000F4D9DBE6FFF75CFC054641F2883700BF71
:1017A000306F800708D5FFF753FC401BB8424FF05D
:1017B0000300F5D9CAE600BFB8F1000F7FF497AE79
:1017C000306C20F08050306491E600BFFFF740FCA1
:1017D000054600BF306880037FF565AEFFF738FC33
:1017E000401B64284FF00300F4D9AFE670470000B7
:1017F0007047000010B590F83C20012A4FF002021B
:1018000051D080F83D200268D2F804E0D2F808C038
:101810000C682EF07003234341F2FF74C4F20004FD
:10182000A24253600EDC40F2FF73C4F200039A42FE
:1018300016DCB2F1804F2BD040F20043C4F200031B
:1018400024E000BF40F2FF33C4F201039A4213DCEC
:1018500041F60003C4F200039A4219D0002313E0BA
:1018600040F60003C4F200039A4211D040F6004350
:10187000C4F200030AE000BF44F20003C4F2010313
:101880009A4205D040F20043C4F201039A4204D1C7
:1018900049682CF08003194391600121002280F8EF
:1018A0003D1080F83C20104610BD0000002804BF09
:1018B0000120704710B5044690F83D0028B900207B
:1018C00084F83C00204600F01FF8022084F83D0018
:1018D0002068211D00F0F4FC012084F8460084F803
:1018E0003E0084F83F0084F8400084F8410084F80A
:1018F000420084F8430084F8440084F8450084F8EA
:101900003D00002010BD00007047000090F83D1021
:1019100001291CBF01207047022180F83D1000689A
:1019200041F2FF72C168C4F20002904241F001012D
:10193000C1600DDC40F2FF71C4F20001884215DC89
:10194000B0F1804F2AD040F20041C4F2000123E000
:1019500040F2FF31C4F20101884213DC41F600017C
:10196000C4F20001884219D0002113E040F60001C2
:10197000C4F20001884211D040F60041C4F20001D7
:101980000AE000BF44F20001C4F20101884205D020
:1019900040F20041C4F20101884206D1816801F0A1
:1019A0000701062904BF00207047016841F00101CA
:1019B00001600020704700007047000070B50446C9
:1019C0000068C5680669B10716D515F0020113D085
:1019D0006FF002010161012121778069800703D046
:1019E0002046FFF7E9FF05E0204600F08FF820468B
:1019F00000F0EAF900202077700719D515F00400EF
:101A000016D020686FF004010161022121778069FE
:101A100010F4407F04D02046FFF7CEFF06E000BF61
:101A2000204600F073F8204600F0CEF90020207721
:101A3000300717D515F0080014D020686FF00801A2
:101A4000016104212177C069800703D02046FFF798
:101A5000B3FF05E0204600F059F8204600F0B4F945
:101A600000202077F00619D515F0100016D0206858
:101A70006FF01001016108212177C06910F4407FE7
:101A800004D02046FFF798FF06E000BF204600F094
:101A90003DF8204600F098F900202077F00718BFA5
:101AA00015F0010002D1300609D412E020686FF071
:101AB00001010161204600F013FA300609D515F046
:101AC000800006D020686FF0800101612046FFF79A
:101AD0008DFE700609D515F0400006D020686FF025
:101AE00040010161204600F005FAB00658BF70BD04
:101AF00015F0200008D021686FF0200220460A610E
:101B0000BDE87040FFF774BE70BD00007047000074
:101B10002DE9F04190F83C30012B04BF0220BDE8D4
:101B2000F0814FEAB202032A00F2FC80DFE802F003
:101B3000023E7EBE036840F200471C6A1A6A24F027
:101B4000020422F001021A621A46D3F804E052F8A5
:101B500018CF8E6843F48065C4F20107BD4244EAA1
:101B6000060405D1CE6824F00C0426F004063443A4
:101B70000E68BD4207D1D1E905572EF4407E45EAF3
:101B80000E0545EA070E2CF073073743C3F804E04F
:101B90009F614F6809695F631C629F6947F008078E
:101BA0009F619F6927F004079F61B1E0036840F2DD
:101BB00000481C6A1A6A24F0200422F010021A62FB
:101BC0001A46D3F804E052F818CF8F6843F48065C2
:101BD000C4F20108454544EA071407D1CF686FF005
:101BE000400624F0C00406EA071634430F68454552
:101BF00007D1D1E905562EF4406E4EEA850545EA37
:101C0000860E2CF4E64646EA0727C3F804E09F61F7
:101C10004F6809699F631C629F6947F400679F6171
:101C20009F6927F480679F6171E000BF036840F2FD
:101C300000481C6A1A6A24F4007422F480721A6242
:101C40001A46D3F804E052F81CCF8F6843F480653D
:101C5000C4F20108454544EA072408D1CF6840F2A0
:101C6000FF463F0224F4406427EA060634430F6827
:101C7000454507D1D1E905562EF4405E4EEA0515DB
:101C800045EA061E2CF073063743C3F804E0DF6113
:101C90004F680969DF631C62DF6947F00807DF618D
:101CA000DF6927F00407DF6132E000BF036840F21C
:101CB0000045D3F820C01A6A43F4806722F48052AA
:101CC0001A621A465C6852F81CEFD1F800808E68E0
:101CD000C4F20105AF4204D14D6924F4804444EAC2
:101CE00085142CF4005747EA06372EF4E64646EAF8
:101CF00008265C60DE614E6809691E641F62DF6948
:101D000047F40067DF61DF6927F48067DF6109025C
:101D10001368194311600021002280F83C20084616
:101D2000BDE8F0810121002280F83C200846BDE892
:101D3000F0810000002804BF0120704710B5044660
:101D400090F83D0028B9002084F83C00204600F0BF
:101D50001FF8022084F83D002068211D00F0B0FA31
:101D6000012084F8460084F83E0084F83F0084F89F
:101D7000400084F8410084F8420084F8430084F86D
:101D8000440084F8450084F83D00002010BD0000A8
:101D900081B0006840F20041C4F20001884201D0E5
:101DA00001B070470020009043F64000C4F20200EA
:101DB000016841F002010160006800F0020000903B
:101DC000009801B0704700007047000041B1082939
:101DD00010D0042914BF00F1410200F13F020BE0D2
:101DE00090F83E20012A1CBF01207047022280F893
:101DF0003E2013E000F140021278012A1CBF0120AE
:101E000070470222082907D0042914BF80F8412016
:101E100080F83F2002E000BF80F84020006801F019
:101E20001F010122036A02FA01F123EA01020262A0
:101E3000026A114341F2FF72C4F200029042016251
:101E40000CDC40F2FF71C4F20001884214DCB0F1F6
:101E5000804F37D040F2004116E000BF40F2FF3122
:101E6000C4F20101884215DC41F60001C4F2000110
:101E7000884227D0002115E040F60001C4F200019D
:101E800088421FD040F60041C4F20001884219D0B8
:101E90001FE000BF44F20001C4F20101884211D0EA
:101EA00040F20041C4F20101884212D1416C40F27B
:101EB000004340F48062C4F2010341F400419A42BD
:101EC000416406D1816801F00701062904BF0020A2
:101ED0007047016841F00101016000207047000077
:101EE00000680021C4F20101884208BFFFF7B6B8BC
:101EF0007047000070470000FEE7000080B540F228
:101F0000B01046F20041C2F20000C4F20001072204
:101F1000002380E80E0000F10C014FF4002C4FF478
:101F2000801E81E8085083618383FEF73DFE002810
:101F300008BF80BDBDE88040FEF788BB10B5042017
:101F40000321002200F03CFB40F28004C2F20004B6
:101F5000206008201021002200F032FB6060102079
:101F60001021002200F02CFBA06040F23D5044F60E
:101F7000AC42C0F60000C0F60002002100F06AFB8F
:101F8000E06042F2C51044F61852C0F60000C0F6F8
:101F90000002002100F05EFB206140F2416044F647
:101FA000D042C0F60000C0F60002002100F052FB53
:101FB000606140F2556044F6F442C0F60000C0F69D
:101FC0000002002100F046FBA06142F2CD1044F671
:101FD0003C52C0F60000C0F60002002100F03AFBBF
:101FE000E06110BD70B586B0002543F63000059560
:101FF0000095C4F202000168002441F080010160F4
:102000000168C4F2020401F080010091009900957A
:102010000168002241F00101016001684FF49876E7
:1020200001F00101009100990095016841F004015F
:10203000016000684FF4987100F00400009000986F
:102040002046FEF7FFFF012002900220CDE90305A4
:1020500001A920460196FEF717FF06B070BD0000EB
:10206000B0B590B040F2004540F22020C4F2000527
:102070000021C2F20000532240F2E733CDE90811FB
:10208000CDE90611CDE90411C0E90052C0E90213FF
:1020900001618161FFF74EFE002818BFFEF7D6FAF6
:1020A00040F22020C2F2000008A9FFF7A3FB00289D
:1020B00018BFFEF7CBFA602040F2202401900020E8
:1020C000C2F20004CDE90200059001A920460022D9
:1020D000FFF71EFD002818BFFEF7B8FA2068A842D7
:1020E00002D010B0B0BD00BF002043F630010B900D
:1020F000C4F202010A6842F004020A60096801F0B1
:1021000004010B910B9940210B910221CDE90C1197
:10211000CDE90E0105F501300BA9FEF7B5FE10B0B3
:10212000B0BD0000FEE70000FEE700000000000078
:10213000EFF30980BFF36F8F154B1A681EF0100F75
:1021400008BF20ED108A20E9F04F10602DE909004A
:102150004FF0500080F31188BFF34F8FBFF36F8FA4
:1021600001F0B4FC4FF0000080F31188BDE80900D5
:1021700019680868B0E8F04F1EF0100F08BFB0EC07
:10218000108A80F30988BFF36F8F704700BF00BFCC
:10219000A40000200000000000000000000000007B
:1021A000074B19680868B0E8F04F80F30988BFF35F
:1021B0006F8F4FF0000080F31188704700BF00BFA1
:1021C000A4000020012000F0B9F9FBE7012000F095
:1021D000B5F9FBE780B54EF21000CEF200000068C2
:1021E00002F0B6F9012808BF80BDBDE8804001F0CB
:1021F0008DBD0000B0B592B0002443F64000CDE99B
:102200000A44CDE908440594CDE90344CDE90144ED
:102210000094C4F202000168022541F0805101607F
:10222000006800F080500090009847F20000009491
:10223000C4F20000016841F480410160006800F4CC
:10224000804000900098012006904FF48030079065
:102250004FF480000D9019200E904FF4A870CDE936
:102260000F050420119006A80C95FFF703F918B18B
:1022700072B600BFFEE700BF0F20CDE901054FF4A5
:10228000A05004904FF48050059001A805210394BC
:10229000FEF7D6FF10B172B6FEE700BF12B0B0BDB8
:1022A0004EF68850CEF20000016841F470010160E2
:1022B0007047000040F2D810C2F20000FFF77EBB6A
:1022C000B0B540F6FF3E0568C4F2000E40F2004C87
:1022D0007045C4F2010C27DCB0F1804F31D040F2E0
:1022E0000043C4F2000398422BD040F60003C4F22E
:1022F0000003984225D041F6FF73C4F200039842D0
:102300002ADC70453CDCB0F1804F5FD040F20043E6
:10231000C4F20003984259D040F60003C4F200030F
:10232000984253D057E000BF40F60043C4F2000388
:10233000984206D0604504D00023C4F201039842BD
:10234000D9D14B6825F0700243EA020541F6FF73CC
:10235000C4F200039842D4DD43F6FF73C4F20103D4
:10236000984221DC42F20003C4F2000398422DD0CF
:102370000023C4F20103984228D0604526D02AE009
:1023800040F60043C4F2000398421FD041F6000318
:10239000C4F20003984219D041F60043C4F200038E
:1023A000984213D017E000BF44F20003C4F20103C7
:1023B00098420BD044F60003C4F20103984205D0C2
:1023C00044F20043C4F20103984204D1CB6825F4DF
:1023D000407243EA02050A688C684B69C46240F4A3
:1023E00080648262644504BF09690163026825F064
:1023F000800142F00402194302600122426101603F
:10240000B0BD0000FEE700002DE9F0418AB02020B9
:1024100040F2B01400906020C2F20004E8460026AA
:10242000012701904FF6FF75204641460996059613
:10243000CDE90677CDE9025504960897FEF778F9BD
:1024400041F20800009040F60C00CDE9010520465D
:102450004146CDE905760797CDE903560897FEF783
:1024600067F92046FEF7D4FC20460221FEF7F6F875
:102470000AB0BDE8F081000082B0FEF7FDFDFFF775
:10248000B9FEFFF7AFFDFFF739FDFFF7E9FD40F2B9
:102490002020C2F2000000210024FFF797FC052055
:1024A0000421002201F04AFC40F27806C2F2000644
:1024B0003060052001210022012501F03FFC706001
:1024C000FFF7A2FF0320009043F21930C0F600008E
:1024D00013A14FF480720023019401F0CDFF02207C
:1024E000009043F22520C0F6000010A14FF4807246
:1024F0000023019401F0C0FF43F22170C0F60000F8
:102500000CA14FF4807200230095019401F0B4FFF8
:1025100000F024F8FFF712FD00F034F8FEE700BFEA
:10252000466565646261636B00000000436F6E7412
:10253000726F6C005374617475730000EFF3058162
:1025400000291CBF6FF005007047002804BF002061
:10255000704780B501F00AF9002080BDEFF30580D7
:1025600000281CBF6FF00500704740F2A810C2F2AF
:1025700000000168002911BF4FF0FF300121016008
:102580000020704710B5EFF3058000281CBF6FF0E6
:10259000050010BD40F2A810C2F200000168012938
:1025A0001CBF4FF0FF3010BD4EF61F51CEF20001A0
:1025B00000240C700221016001F008FA204610BDD1
:1025C00070B582B0154600294FF00004EFF3058284
:1025D00018BF002802D1204602B070BD002AFAD1EF
:1025E000B5B1D5E902321BB3502A26D32A6922B3EA
:1025F0006E6901FB00F4A6424FF00004EBD3009497
:1026000001F0E0FB06460028E5D02C6807E000BF9B
:102610000022002401F092FB0028DCD00646304660
:10262000214600F0FBFF3446204602B070BD00BFDB
:102630001AB92A690AB96A6922B10024204602B08F
:1026400070BD00BF0022002401F078FB0646002880
:10265000DBD1C0E7F0B585B08C4600230493EFF3DF
:10266000058140B139B94AB19469002C08BF1824DA
:10267000382C15D90023184605B0F0BD0021802361
:10268000182404AF9AB263460094019701F0F4FE57
:1026900001280CBF049B0023184605B0F0BD00BF05
:1026A0001179C90720D15669D2E902574FEA960E2F
:1026B0001168002E734608BF80238DB15C2F13D3A1
:1026C00012690023002A18BF002ED4D0CDE90042A1
:1026D00072466346029501F0FFFE05B0F0BD00BFF3
:1026E00017B91269002ACCD00023184605B0F0BDF6
:1026F0002DE9F041044600F0A1FE40F2A406C2F22A
:102700000006F06840F258350130F0603068C2F2DF
:10271000000558B13069002840F007813068E16A4F
:10272000C06A884298BF3460FFE000BF3460F06840
:10273000012840F0FA80284600F026FE05F114003A
:1027400000F022FE05F1280000F01EFE05F13C001D
:1027500000F01AFE05F1500000F016FE05F16400CD
:1027600000F012FE05F1780000F00EFE05F18C007D
:1027700000F00AFE05F1A00000F006FE05F1B4002D
:1027800000F002FE05F1C80000F0FEFD05F1DC00DE
:1027900000F0FAFD05F1F00000F0F6FD05F582709D
:1027A00000F0F2FD05F58C7000F0EEFD05F5967079
:1027B00000F0EAFD05F5A07000F0E6FD05F5AA7051
:1027C00000F0E2FD05F5B47000F0DEFD05F5BE7029
:1027D00000F0DAFD05F5C87000F0D6FD05F5D27001
:1027E00000F0D2FD05F5DC7000F0CEFD05F5E670D9
:1027F00000F0CAFD05F5F07000F0C6FD05F5FA70B1
:1028000000F0C2FD05F5027000F0BEFD05F5077091
:1028100000F0BAFD05F50C7000F0B6FD05F511707D
:1028200000F0B2FD05F5167000F0AEFD05F51B7069
:1028300000F0AAFD05F5207000F0A6FD05F5257055
:1028400000F0A2FD05F52A7000F09EFD05F52F7041
:1028500000F09AFD05F5347000F096FD05F539702D
:1028600000F092FD05F53E7000F08EFD05F5437019
:1028700000F08AFD05F5487000F086FD05F54D7005
:1028800000F082FD05F5527000F07EFD05F55770F1
:1028900000F07AFD05F55C7000F076FD05F56170DD
:1028A00000F072FD05F5667000F06EFD05F56B70C9
:1028B00000F06AFD05F5707000F066FD05F57570B5
:1028C00000F062FD05F57A7000F05EFD05F57F70A1
:1028D00000F05AFD05F5826000F056FD05F2244037
:1028E00000F052FD05F5876000F04EFD05F24C400A
:1028F00000F04AFD40F28018C2F20008404600F0A5
:1029000043FD08F11407384600F03EFD06F164006F
:1029100000F03AFD06F13C0000F036FD06F15000F3
:1029200000F032FDC6F81C8037627068716A421C84
:10293000E06A72608842626488BF706200EB800067
:1029400005EB8000211D00F061FD00F09BFD30696A
:1029500088B13068E16AC06A884228BFBDE8F0816A
:102960004EF60450CEF200004FF080510160BFF3EC
:102970004F8FBFF36F8FBDE8F081000040F2A405D8
:1029800040F258364EF60458C2F20005C2F2000674
:10299000CEF200084FF0805703E000BF204600F061
:1029A00089FDA868D0B100F049FDA86CC468201D5D
:1029B00000F00AFCE8680138E860A8680138A860FF
:1029C00000F060FD94F859000228EAD00128E5D013
:1029D00070B9206B00F06EFDE0E700BF30680228A0
:1029E000DFD3C8F80070BFF34F8FBFF36F8FD8E706
:1029F0004FF0500080F31188BFF36F8FBFF34F8FFC
:102A0000FEE700002DE9F0470A9C8246206B16463F
:102A10000F46DDE908599100A5229846FDF7E1FC33
:102A2000206B002F00EB8600A0F1040020F00706C9
:102A300056D0387884F83400387800284BD078782D
:102A400084F835007878002845D0B87884F83600C6
:102A5000B87800283FD0F87884F83700F878D0B3F9
:102A6000387984F838003879A8B3787984F839004F
:102A7000787980B3B87984F83A00B87958B3F8799E
:102A800084F83B00F87930B3387A84F83C00387A1F
:102A900008B3787A84F83D00787AE0B1B87A84F89F
:102AA0003E00B87AB8B1F87A84F83F00F87A90B16D
:102AB000387B84F84000387B68B1787B84F841002B
:102AC000787B40B1B87B84F84200B87B00281CBFFB
:102AD000F87B84F84300002084F8430003E000BF43
:102AE000002084F834000027201D372D28BF37250B
:102AF000E562C4E9135700F053FC04F1180000F03C
:102B00004FFCC5F13800A061304651464246246171
:102B10006462676584F8587000F042FBB9F1000FF9
:102B2000206018BFC9F80040BDE8F0870848006879
:102B3000006880F308884FF0000080F3148862B6C4
:102B400061B6BFF34F8FBFF36F8F00DF00BF000090
:102B500008ED00E081B00020009040F21000C2F2C9
:102B6000000000684FF0500181F31188BFF36F8FB0
:102B7000BFF34F8F013007D0FEE700BF009830B998
:102B8000009820B9009810B900980028F6D001B03C
:102B90007047000088B040F21C1AC2F2000A0DF122
:102BA0001009EB46DAF8080005681DB1C068046832
:102BB00001E000BF002400F081FF01F0D9FCDAF849
:102BC00010100646884220D3002DCAF8106051D05C
:102BD000A6424FD301F0D4FDDAF80800C068C768F8
:102BE0003D1D284600F0F0FA97F82800410745D42B
:102BF00000F0FE0087F8280084E000BF6860DAF883
:102C0000080039462D6100F0CFFBDAF808000168B2
:102C100031B3C068C56804682F1D384600F0D4FA87
:102C2000296A2846884795F828004007EDD5A86905
:102C30002044A042E2D8DAF80000002800F04881E1
:102C4000002004A931C101F083FCDAF800004946F4
:102C50000022002301F026F90028D6D138E100BF78
:102C6000DAF80C10CAF81060CAE9021001F088FD09
:102C70001AE100BF65B1002210E000BFB8693F61F2
:102C80000119B14279601FD90AF1080021E000BFA3
:102C9000DAF80C000068B0FA80F04209DAF80000B7
:102CA000A11B00F013FD01F06BFD002840F0FC803B
:102CB0004EF60450CEF200004FF080510160BFF399
:102CC0004F8FBFF36F8FEFE0311B814206D20AF1C5
:102CD0000C000068294600F067FB13E0DAF80000FA
:102CE000002800F01381002004A991C101F030FCFC
:102CF000DAF8000049460022002301F0D3F800284A
:102D000000F00481396A38468847CDE00098B0F178
:102D1000FF3F07DCDDE90120039990470098002878
:102D200000F1C280029E706910B1301D00F04CFAB3
:102D300001F01EFCDAF81010074688420DD3009807
:102D4000CAF8107009283FD9AEE000BF6860DAF811
:102D5000080021462D6100F027FBDAF80800016821
:102D600041B3C068C568D0F800802C1D204600F033
:102D70002BFA296A2846884795F828004007ECD5A1
:102D8000A86940444045E1D8DAF80000002800F086
:102D900095800020CDE90408069501F0D9FBDAF80A
:102DA000000049460022002301F07CF80028D4D11D
:102DB00084E000BFDAF80C10CAE902100098CAF8E3
:102DC0001070092800F27080DFE800F00606064463
:102DD00048620606444800BF96F82800019A40F071
:102DE0000101B06986F828108318314641F8043F84
:102DF000BB42366106D997420AF1080007D29342D6
:102E00000AD204E0BA1A824206D20AF10C00006823
:102E100000F0CAFA48E000BF316A3046884796F8A9
:102E20002800400740D5DAF8000000285AD0019861
:102E3000B169069608440021CDE9041001F088FB31
:102E4000DAF8000049460022002301F02BF858BBB5
:102E500048E000BF96F8280022E000BF96F828005E
:102E600040F00101019886F828100028B06143D095
:102E7000384431460AF10C0241F8040F3661B84279
:102E800088BF0AF10802106800F08EFA0CE000BF5B
:102E900096F82800810703D4304600F00BFB03E0CE
:102EA00000F0FE0086F82800DAF8000059460022FB
:102EB00001F0BAF900287FF429AF73E64FF0500013
:102EC00080F31188BFF36F8FBFF34F8FFEE700BF12
:102ED0004FF0500080F31188BFF36F8FBFF34F8F17
:102EE000FEE700BF4FF0500080F31188BFF36F8FF3
:102EF000BFF34F8FFEE700BF4FF0500080F3118803
:102F0000BFF36F8FBFF34F8FFEE700BF4FF050004E
:102F100080F31188BFF36F8FBFF34F8FFEE7000080
:102F2000F0B581B0044600F089FA94F94560012EAD
:102F30000FDB04F1240500BF286850B1284601F0DA
:102F4000E5FB002818BF00F0C1FCF0B2013E0128EB
:102F5000F2D8FF2684F8456000F094FA00F06EFA8B
:102F600094F94470012F0EDB04F11005286850B16C
:102F7000284601F0CBFB002818BF00F0A7FCF8B2F0
:102F8000013F0128F2D884F8446001B0BDE8F04068
:102F900000F078BA70B5044600F090FD40F2581C7D
:102FA000C2F2000CDCF8040050B19CF800000028CC
:102FB00018BF4FF000404FF000057CBB8DE000BF14
:102FC00040F2B870C2F20000C21D22F0070210F0F9
:102FD0000701A0EB020318BF104600224FF4804502
:102FE000CCE90602002918BF03F5804541190839CC
:102FF00021F00701CCF80410C1E90022DCF804201C
:10300000091AC0E9002101208CF800004FF00040AF
:10301000CCE90211002C4FF000055ED020405CD1BD
:1030200004F1100020F00702600708BF04F1080255
:10303000002A4FF0000550D0DCF8080082424CD83E
:10304000604650F818EFDEF8045095422BD2DEF8B7
:103050000010B9B174464D68954217D20B68ABB1F8
:103060005D68954216D21868A0B14568954215D2A0
:1030700004689CB16568954214D22168A64600296F
:10308000E9D110E00CF118000DE000BF8E4620469B
:1030900009E000BF9E46084605E000BF8646184688
:1030A00001E000BFA646DCF804108E4514D001688C
:1030B000DEF80040AB1A112B04604DD30EEB020575
:1030C000680719D04FF0500080F31188BFF36F8F5D
:1030D000BFF34F8FFEE700BF002501F051FB6807EB
:1030E0005BD04FF0500080F31188BFF36F8FBFF3B8
:1030F0004F8F00BFFEE700BF0CF118006B60CEF8E9
:10310000042000BF0368AB420AD21868A8420BD261
:103110000368AB4204D218681A46A842F2D304E00E
:103120000246184601E000BF1A4653686C68D6187C
:10313000AE4202D11C44154654602B19834207D17C
:10314000DCF80430984203D0D0E9000323446B60DC
:10315000AA42286018BF156001F10805DEF80400D6
:10316000DCE90212091A9142CCF8081038BFCCF8F9
:103170000C109CF80010002918BF40F00040CEF859
:103180000400DCF8100000210130CEF80010CCF86B
:10319000100001F0F5FA6807A3D1284670BD0000C1
:1031A000034642F65530C0F600004FF0807C21F017
:1031B000010103E903106FF0020043F8240CA3F1AE
:1031C000440043F8202C7047D0E9013201699A602D
:1031D000D1F804C082688445536008BF4A60002269
:1031E00002610868013808600868704744F6BC133B
:1031F000C2F20003036044F2BC70C2F20000086037
:10320000802010607047000044F61863C2F200038B
:10321000036044F61820C2F2000008604FF480708A
:103220001060704782B0002440F27806C4F20204B5
:10323000002001274FF47A75C2F20006EA464FF0EB
:1032400000084FF000098DF80700009024E000BF4F
:10325000A9B2480841F27B4249FA87F95043322922
:103260001FFA89F140F220224FEA50404FEAD10183
:10327000C2F2000238BF01207C2988BF4FF47A795E
:1032800088BF4FF0FF3712681FFA89F1002908BF85
:103290000127516300F06AFA70680DF107010022FE
:1032A00000F0C2FF01281DD19DF80700D0B14FF0FA
:1032B000000B00BF20464FF480710122FDF7C2FED3
:1032C000642000F053FA20464FF480710022FDF78D
:1032D000B9FE322000F04AFA9DF807000BF1010B0D
:1032E0008345E7D330685146002200F09DFF012856
:1032F000009904BF4FEA11480D465FEA0860A7D164
:1033000040F22020C2F200000068002141636420E6
:1033100000F02CFAC0E700008AB001F029F99FED17
:10332000188A02219FED179A40F2B01509900020EB
:10333000029104210DF12408B7EE00AAC2F20005A3
:1033400002AE08AF01ACB0EE48BA049006918DF819
:103350001C0000BF40460A2100F048FA3BEE09BAC3
:10336000B4EE4ABA284631463A462346F1EE10FA00
:10337000C8BFB0EE48BA8DED08BAFDF787F9E9E7A6
:10338000000000000AD7233C4FF0FF31024642F80C
:10339000081F00214260C0E903220160704700005D
:1033A000002101617047000010B5D1F800E01EF166
:1033B000010213D000F1080462681368734511D844
:1033C00053681C68744511D85A68146874450FD83E
:1033D00054682368A4467345EED90BE00269D2F81D
:1033E00004C007E09446224604E000BF9C4601E08A
:1033F00094461A46C1F804C0CCF808108A6051609F
:10340000086101680131016010BD0000D0F800C002
:10341000436808619A684B608A609A689960516055
:103420000CF1010101607047DFF80C00016841F404
:10343000700101607047000088ED00E04FF050001F
:1034400080F31188BFF36F8FBFF34F8F40F21000EE
:10345000C2F2000001684A1C026009B1704700BF57
:103460004EF60450CEF200000068000608BF704718
:103470004FF0500080F31188BFF36F8FBFF34F8F71
:10348000FEE7000040F21000C2F20000016839B10E
:103490000139016018BF7047002080F31188704720
:1034A0004FF0500080F31188BFF36F8FBFF34F8F41
:1034B000FEE7000070B5002808BF70BD40F2581547
:1034C000C2F200050446287854F8041C002818BFEE
:1034D0004FF0004008420DD0A4F1080632689AB1BE
:1034E0004FF0500080F31188BFF36F8FBFF34F8F01
:1034F000FEE700BF4FF0500080F31188BFF36F8FDD
:10350000BFF34F8FFEE700BF21EA000044F8040C30
:1035100000F0D4FA54F8041CA8680844A86005F127
:10352000180000BF0368B3420AD21868B04225D21F
:103530000368B34204D218681A46B042F2D301E0DD
:10354000024618465368D418B44202D119441646AC
:1035500051607318834206D16B68984203D0D0E95A
:10356000000319447160B242306018BF1660686988
:1035700001306861BDE8704001F002B91A46536835
:10358000D418B442E5D1E1E74EF21000CEF20000CB
:1035900000210160816040F20801C2F20001096867
:1035A00044F6D352C1F26202A1FB02124FF0FF3186
:1035B00001EB9211416007210160704740F27810E1
:1035C000EFF305811029C2F2000011D34EF2F03260
:1035D000CEF20002895C0278914209D24FF050008D
:1035E00080F31188BFF36F8FBFF34F8FFEE700BFEB
:1035F0004EF60C51CEF200010968406801F4E0611A
:10360000814298BF70474FF0500080F31188BFF39C
:103610006F8FBFF34F8F00BFFEE7000044F6746C5E
:10362000C2F2000CDCF8002022B3634653F8082FE6
:1036300042B3634653F8102F52B3634653F8182F22
:1036400062B3634653F8202F72B3634653F8282FB2
:1036500082B3634653F8302F92B3634653F8382F42
:10366000002A18BF7047072219600CEBC20148609E
:10367000704700BF0022634619600CEBC20148602E
:10368000704700BF012219600CEBC201486070470F
:10369000022219600CEBC2014860704703221960D6
:1036A0000CEBC20148607047042219600CEBC201A8
:1036B00048607047052219600CEBC20148607047F2
:1036C000062219600CEBC2014860704770B51546C0
:1036D0000E460446FFF7B2FE94F84400FF2804BFEC
:1036E000002084F8440094F84500FF2804BF00201F
:1036F00084F84500FFF7C6FEA06B28B12046BDE860
:103700007040FFF70DBC00BF04F1240031462A468B
:1037100000F01EF92046BDE87040FFF701BC000034
:103720008AB000F025FF09905520122140F2B01513
:103730008DF823000020029101210DF12408C2F22E
:10374000000502AE0DF1230701AC049006918DF83F
:103750001C0000BF40464FF4FA7100F047F82846BD
:1037600031463A462346FCF791FFF3E770B588B33C
:1037700040F2A405C2F200050446686950B14FF05A
:10378000500080F31188BFF36F8FBFF34F8F00BFDE
:10379000FEE700BF686901306861AE6928680430DF
:1037A000FFF712FD2868A419446005D3286A296828
:1037B0000431FFF7F9FD08E0E86929680431FFF7F3
:1037C000F3FDE86A844238BFEC6200F0D9FF0028BC
:1037D00018BF70BD4EF60450CEF200004FF080517D
:1037E0000160BFF34F8FBFF36F8F70BD70B588B1AD
:1037F000D1B140F2A404C2F200046269F2B14FF008
:10380000500080F31188BFF36F8FBFF34F8F00BF5D
:10381000FEE700BF4FF0500080F31188BFF36F8FB9
:10382000BFF34F8FFEE700BF4FF0500080F31188C9
:10383000BFF36F8FBFF34F8FFEE700BF62690132A6
:103840006261A26903689A42194403D2994203D380
:1038500016E000BF994201D3914211D90160A569D8
:1038600020688E1A0430FFF7AFFC2068AD19456060
:1038700008D3206A21680431FFF796FD0BE000BFF2
:10388000016008E0E06921680431FFF78DFDE06A1E
:10389000854238BFE56200F073FF002818BF70BD95
:1038A0004EF60450CEF200004FF080510160BFF39D
:1038B0004F8FBFF36F8F70BD40F2A401C2F20001C1
:1038C0008A6B0260896941607047000040F2A40081
:1038D000C2F20000012101637047000070B5D8B149
:1038E00040F2A404C2F200040D4621681831FFF72B
:1038F0005BFDA66920680430FFF766FC681C15D0E4
:103900002068AD19456019D3206A21680431BDE8EB
:103910007040FFF749BD00BF4FF0500080F31188A1
:10392000BFF36F8FBFF34F8FFEE700BF54F8500B0C
:10393000011D2046BDE87040FFF768BDE0692168C1
:103940000431FFF731FDE06A854238BFE56270BDA2
:10395000F0B581B0C0B140F2A404C2F200040D463B
:10396000216816461831FFF751FDA7692068043019
:10397000FFF72AFC96B154F8500B011D204601B008
:10398000BDE8F040FFF742BD4FF0500080F31188D2
:10399000BFF36F8FBFF34F8FFEE700BF2068ED19B5
:1039A000456007D3206A2168043101B0BDE8F040CA
:1039B000FFF7FABCE06921680431FFF7F5FCE06A23
:1039C000854238BFE56201B0F0BD000010B588B097
:1039D0000020CDE9050006A805A904AAFFF706FC0A
:1039E000059800283ED0069C002C45D05C21049A06
:1039F000079107995C2949D107992063022084F82F
:103A0000590007A80021CDE9001042F67D10C0F64C
:103A1000000028A100230294FEF7F4FF2046FEF7E1
:103A200067FE079840F2A404C2F20004A062B0B19D
:103A300000F01EFF411C33D0012810D14FF0500080
:103A400080F31188BFF36F8FBFF34F8F4FF0FF30BC
:103A5000E062012020610020A06100F095F808B02C
:103A600010BD00BF4FF0500080F31188BFF36F8F7F
:103A7000BFF34F8FFEE700BF4FF0500080F3118877
:103A8000BFF36F8FBFF34F8FFEE700BF4FF05000C3
:103A900080F31188BFF36F8FBFF34F8FFEE700BF36
:103AA0004FF0500080F31188BFF36F8FBFF34F8F3B
:103AB000FEE700BF49444C450000000040F2A4006E
:103AC000C2F20000416901314161704780B540F2A6
:103AD000A40EC2F2000EDEF8141019B10121CEF8C6
:103AE000301080BD0021CEF83010DEF8241040F2F6
:103AF000583C01EB8103C2F2000C5CF823208AB130
:103B000001EB81020CEB820353F8042F5268181D5D
:103B100082421A6020D0D068CEF80000CEF824107F
:103B200080BD00BF0CEB8302A2F12803E1B15A690A
:103B300022BB012918D01A6812BB022914D053F8ED
:103B4000142CFAB903290FD053F8282C0439002A71
:103B5000A3F15003EAD0D3E752681A60D068CEF8D8
:103B60000000CEF8241080BD4FF0500080F3118883
:103B7000BFF36F8FBFF34F8FFEE700BF0139BFE781
:103B80000239BDE70339BBE7B0B584B04EF2004C53
:103B9000CEF2000C4CF27021C4F20F11DCF80029B7
:103BA0004B1C9A420AD14FF0500080F31188BFF3AA
:103BB0006F8FBFF34F8F00BFFEE700BFDCF8002917
:103BC0008A4209D14FF0500080F31188BFF36F8F04
:103BD000BFF34F8FFEE700BF9CF800100291FF215A
:103BE0008CF800109CF800108DF807109DF8071055
:103BF00001F0500240F27811C2F200010A7007226F
:103C00004A609DF90720B2F1FF3F69DC032200BF43
:103C1000D31C4B609DF8070040008DF807009DF90C
:103C20000700B0F1FF3F23DC931C4B609DF80700B9
:103C300040008DF807009DF90700B0F1FF3F17DC49
:103C4000531C4B609DF8070040008DF807009DF95C
:103C50000700B0F1FF3F0BDC4A609DF80700043A13
:103C600040008DF807009DF907000028D0D4131DEF
:103C7000032B35D14FF44070486002988CF8000057
:103C8000DCF8200940F47000CCF82009DCF82009A9
:103C900040F07040CCF82009FFF776FC40F21004A9
:103CA000C2F2000400252560FFF7BEFB4EF634701B
:103CB000CEF20000016841F040410160FEF736FF9E
:103CC000FFF704FF039520684FF0500181F311883E
:103CD000BFF36F8FBFF34F8F013011D0FEE700BFEE
:103CE0004FF0500080F31188BFF36F8FBFF34F8FF9
:103CF000FEE700BF039830B9039820B9039810B9C4
:103D000003980028F6D0002004B0B0BD80B54FF075
:103D1000500080F31188BFF36F8FBFF34F8F00F017
:103D20002DFC30B14EF60450CEF200004FF0805121
:103D30000160002080F3118880BD00002DE9F04172
:103D4000B0B306464843503014460F46FFF722F9F9
:103D5000054650B34FF00008284685F84680002FEE
:103D600018BF50302860C5E90F67FFF767FB286868
:103D7000D5E90F12C5F8388002FB0103013901FBB8
:103D80000201C5E90103FF20E96085F8440085F8D8
:103D9000450005F11000FFF7F7FA05F12400FFF7E1
:103DA000F3FAFFF76FFB85F84C402846BDE8F08139
:103DB0004FF0500080F31188BFF36F8FBFF34F8F28
:103DC000FEE7000070B582B070B11C46B3B1F9B91E
:103DD000F2B14FF0500080F31188BFF36F8FBFF343
:103DE0004F8F00BFFEE700BF4FF0500080F31188F7
:103DF000BFF36F8FBFF34F8FFEE700BF4FF0500050
:103E000080F31188BFF36F8FBFF34F8FFEE700BFC2
:103E100051B14AB94FF0500080F31188BFF36F8F52
:103E2000BFF34F8FFEE700BF50230193019B502B40
:103E30002ED1019B069E0123002984F8463014BF31
:103E400022602460C4E90F01FFF7F8FA2068D4E982
:103E50000F12002502FB0103013901FB0201A563DA
:103E6000C4E90103FF20E16084F8440084F84500C0
:103E700004F11000FFF788FA04F12400FFF784FA38
:103E8000FFF700FB204684F84C6002B070BD00BF15
:103E90004FF0500080F31188BFF36F8FBFF34F8F47
:103EA000FEE700002DE9F04F83B00292C0B11D463D
:103EB00017460E460446E9B1022D03D1E06B0128F6
:103EC00040F0888000F044FB10BB0FB34FF050006F
:103ED00080F31188BFF36F8FBFF34F8FFEE700BFF2
:103EE0004FF0500080F31188BFF36F8FBFF34F8FF7
:103EF000FEE700BF206C0028DED04FF0500080F3BA
:103F00001188BFF36F8FBFF34F8F00BFFEE700BF75
:103F1000FFF794FAA06B022D66D0E16B884263D361
:103F200004F1100801206F460DF108090DE000BFF3
:103F30002046FEF7F5FF00F023FCFFF77FFAA06BA9
:103F4000E16B88424FF000004ED30299002973D0F4
:103F5000C00702D03846FFF7AFFCFFF793FAFFF730
:103F6000ADFDFFF76BFA94F84400FF2804BF002072
:103F700084F8440094F84500FF2804BF002084F82A
:103F80004500FFF77FFA3846494600F023FA00283B
:103F900058D1FFF753FAD4F838A0D4F83CB0FFF763
:103FA00071FADA45C4D102994046FFF797FC2046E2
:103FB000FEF7B6FF00F0E4FB0028BED14EF6045039
:103FC000CEF200004FF080510160BFF34F8FBFF37E
:103FD0006F8FB2E74FF0500080F31188BFF36F8FFF
:103FE000BFF34F8FFEE700BFA76B226CD2B19DB32A
:103FF000E0683146FCF7B0F9E168206C2268091AE4
:104000009142E16003D2A16840420844E060A81EEA
:10401000B0FA80F040093946002F18BF012108404E
:104020003F1A26E02068002520BBA06800F028FB8E
:10403000A56005461EE000BFFFF724FA002003B08C
:10404000BDE8F08F2046FEF76BFF00F099FB0020E3
:1040500003B0BDE8F08F00BF60683146FCF77CF923
:10406000216CD4E9010208449042606001D32068C9
:1040700060600025781CA06354F8240FA0B120468E
:1040800000F044FB50B14EF60450CEF200004FF069
:1040900080510160BFF34F8FBFF36F8FFFF7F2F9CD
:1040A000012003B0BDE8F08F002DF7D04EF604508C
:1040B000CEF200004FF080510160BFF34F8FBFF38D
:1040C0006F8FFFF7DFF9012003B0BDE8F08F00002C
:1040D0002DE9F04700B31E46144605460F4629B3A6
:1040E000022E02D1E86B012852D1FFF767FAEFF3F5
:1040F00011884FF0500080F31188BFF36F8FBFF32A
:104100004F8FA86B022E1FD0E96B88421CD3002072
:1041100088F31188BDE8F0874FF0500080F31188D4
:10412000BFF36F8FBFF34F8FFEE700BF286C0028EF
:10413000D6D04FF0500080F31188BFF36F8FBFF3DC
:104140004F8F00BFFEE700BF95F84590A86BD5F8EC
:1041500038A02A6C32B36EB3E8683946FCF7FCF835
:10416000E968286C2A68091A9142E96003D2A968B3
:1041700040420844E860B01EB0FA80F04009514661
:10418000BAF1000F18BF01210840AAEB000A1EE097
:104190004FF0500080F31188BFF36F8FBFF34F8F44
:1041A000FEE700BF286890B9A86800F069FA00200F
:1041B000A8600CE068683946FCF7CEF8296CD5E9B0
:1041C000010208449042686001D3286868600AF1DF
:1041D0000100B9F1FF0FA86310D155F8240FB8B151
:1041E000284600F093FA0146002C4FF0010018BF5A
:1041F000002913D188F31188BDE8F08709F1010087
:1042000085F84500012088F31188BDE8F08700BFDC
:10421000012088F31188BDE8F08700BF01202060ED
:1042200088F31188BDE8F0872DE9F04F83B0029242
:1042300090B116460D460446002949D000F088F991
:10424000A0B99EB14FF0500080F31188BFF36F8F7B
:10425000BFF34F8FFEE700BF4FF0500080F311888F
:10426000BFF36F8FBFF34F8FFEE700BFFFF7E6F896
:10427000D4F838A0BAF1000F38D0226C52B1D4E98A
:1042800002308118E160994224BF2168E16028462C
:10429000FCF762F8AAF10100A06354F8100F80B196
:1042A000204600F033FA002800F086804EF60450D5
:1042B000CEF200004FF080510160BFF34F8FBFF38B
:1042C0006F8F0126FFF7DEF8304603B0BDE8F08FB0
:1042D000206C0028B2D04FF0500080F31188BFF35B
:1042E0006F8FBFF34F8F00BFFEE700BF002E4FF070
:1042F000000662D0EB46584604F12408FFF7DCFACA
:104300000DF10809FFF7BEF8FFF7D8FBFFF796F8A5
:1043100094F84400FF2808BF84F8446094F84500EE
:10432000FF2808BF84F84560FFF7ACF858464946B7
:1043300000F050F860B12046FEF7F2FD00F020FAE0
:10434000FFF77CF8A76BFFF79DF81FBB3CE000BFB1
:10435000FFF774F8A76BFFF795F82FB12046FEF72B
:10436000DFFD00F00DFA15E002994046FFF7B6FABE
:104370002046FEF7D5FD00F003FA58B94EF604507A
:10438000CEF200004FF080510160BFF34F8FBFF3BA
:104390006F8F00BFFFF752F8D4F838A0BAF1000FC2
:1043A0007FF46BAF02980028ACD10026FFF76AF8C3
:1043B000304603B0BDE8F08F0126FFF763F83046C2
:1043C00003B0BDE8F08F00BF0026304603B0BDE863
:1043D000F08F0000B0B5D8B10D4619B30446FFF711
:1043E0002DF840F2A40CC2F2000CDCF81820296869
:1043F0004B1C21D0D4E9000EDCF83830834221D0A8
:1044000072451FD30124FFF73DF82046B0BD00BF21
:104410004FF0500080F31188BFF36F8FBFF34F8FC1
:10442000FEE700BF4FF0500080F31188BFF36F8F9D
:10443000BFF34F8FFEE700BF0024FFF723F82046AD
:10444000B0BD00BFA2EB0E0291420DD9881A2860C0
:10445000DCF838002060DCF8180060600024FFF70A
:1044600011F82046B0BD00BF002001242860FFF7EE
:1044700009F82046B0BD00002DE9F04383B007469F
:104480009000984615468946FEF784FDF8B1064629
:104490005C20FEF77FFDB8B10446DDE90A1000227A
:1044A000266384F85920CDE90010384649462A464B
:1044B00043460294FEF7A6FA2046FEF719F90120BA
:1044C00003B0BDE8F08300BF3046FEF7F3FF4FF0C6
:1044D000FF3003B0BDE8F08370B586B00B9CCCB163
:1044E0000C9E0EB35C250495049D5C2D26D1049D85
:1044F000DDF828C0022586F8595005AD3463CDE9B2
:1045000000C50296FEF77EFA3046FEF7F1F80598F0
:1045100006B070BD4FF0500080F31188BFF36F8F6D
:10452000BFF34F8FFEE700BF4FF0500080F31188BC
:10453000BFF36F8FBFF34F8FFEE700BF4FF0500008
:1045400080F31188BFF36F8FBFF34F8FFEE700003A
:1045500040F2A400C2F20000016900290FBF01204F
:104560004069B0FA80F0400918BF40007047000071
:1045700040F2A400C2F20000806970472DE9F043C8
:1045800081B040F2A406C2F20006706940B1706BBF
:10459000002401307063204601B0BDE8F08300BF05
:1045A000B06910F10109C6F8189020D3F0690068CD
:1045B00050B14FF0500080F31188BFF36F8FBFF3FD
:1045C0004F8F00BFFEE700BFF069316AF1613062D2
:1045D000B06B0130B063F069006828B1F069C06861
:1045E000C068406802E000BF4FF0FF30F062F06A40
:1045F00040F258388145C2F2000801D200242EE072
:10460000F0690024006813E0F86A716A884288BF84
:10461000706200EB800008EB80002946FEF7F6FE92
:10462000F86A3168C96AF269884228BF01241068B3
:1046300090B1F069C068C7683D4655F8040F8145E0
:104640000CD32846FEF7C0FDB86A0028DCD007F17D
:104650001800FEF7B9FDD7E74FF0FF30F062306881
:10466000C06A00EB800058F82000012888BF0124B0
:10467000306B002818BF0124204601B0BDE8F0834C
:1046800070B588B140F2A406C2F200060446306854
:10469000A0420BD04FF0500080F31188BFF36F8F12
:1046A000BFF34F8FFEE700BF002070BD206D18B331
:1046B000411EE06AE26C216590424FF0000008BFA5
:1046C00070BDC1B9251D2846FEF77EFDE06CC0F126
:1046D0003801E062A161716A884240F2583188BFB6
:1046E000706200EB8000C2F2000101EB80002946FD
:1046F000FEF78CFE012070BD4FF0500080F3118852
:10470000BFF36F8FBFF34F8FFEE7000070B5C06837
:10471000C5686DB105F118042046FEF755FD40F25D
:10472000A406C2F20006706960B106F164001AE0E6
:104730004FF0500080F31188BFF36F8FBFF34F8F9E
:10474000FEE700BF2C1D2046FEF73EFDE86A716AB9
:10475000884240F2583188BF706200EB8000C2F29C
:10476000000101EB80002146FEF750FEE86A316847
:10477000C96A884292BF00200120306370BD0000EA
:104780002DE9F04140F2A405C2F20005686968B164
:10479000FEF754FE686901386861686980B10024D9
:1047A000FEF770FE2046BDE8F08100BF4FF05000DC
:1047B00080F31188BFF36F8FBFF34F8FFEE700BF09
:1047C000E8680028EBD0686E88B340F25836C2F231
:1047D00000064FF0010800BF286FC76807F11800F6
:1047E000FEF7F2FC3C1D2046FEF7EEFCF86A696A13
:1047F000884288BF686200EB800006EB800021469B
:10480000FEF704FEF86A2968C96A884228BFC5F81D
:104810003080686E0028DFD1E869006820B1E8695F
:10482000C068C068406801E04FF0FF30E8626C6B20
:104830004CB10126FFF7A2FE002818BF2E63013CF1
:10484000F8D100206863286B0028A8D04EF60450E9
:10485000CEF200004FF080510160BFF34F8F012472
:10486000BFF36F8FFEF70EFE2046BDE8F08100001B
:1048700070B586B0FEF7E2FD40F21C16C2F20006EB
:10488000306808BB06F114042046FEF77DFD06F1F2
:1048900028052846FEF778FD40F2682240F20833EA
:1048A000C6E902450025C2F20002C2F200030A2056
:1048B00010210095FFF786FA306028B144F6A9511F
:1048C000C0F60001FEF7AAFEFEF7DCFD3068D8B1A5
:1048D0000020CDE9040005A804A903AAFEF794FC72
:1048E000DDE903200221059DCDE9001042F6953057
:1048F000C0F6000009A100230295FFF7EDFD7060EE
:1049000010B1012006B070BD4FF0500080F3118847
:10491000BFF36F8FBFF34F8FFEE700BF546D722060
:10492000537663004100080218BF04200A0E18BF26
:1049300040F001004FF07F4232EA010108BF40F031
:104940000200012808BF05207047000000B510EEE6
:10495000101A2DED028B81B0524A6846B2EB410F1E
:104960002ED94FF0E640B0EB410F94BF00204FF03E
:10497000FF3000900098B0EE408A00286ADB10F00B
:10498000010F4BD068EE080A9FED471A9FED470ACA
:1049900000EE810A9FED461A10F0020F00EE801A19
:1049A000B7EE000A00EE810A02BF01B0BDEC028B37
:1049B00000BD00BF01B0B1EE400ABDEC028B00BDEE
:1049C0003C4B21F00042934241D911F0004FDFED02
:1049D0003A0A20EE201ADFED390A19BF31EE601ACB
:1049E00071EE200A31EE201A71EE600ABDEEE01A77
:1049F00011EE100A9FED321A00F0030000EEC10A1A
:104A00009FED301A009000EEC10A9FED2F1A00EEC4
:104A1000C10A9FED2E1A00EEC10AABE728EE080A84
:104A20009FED2B1ADFED2B0A10F0020F40EE010A6A
:104A30009FED291A00EE201A61EE000AB0EE480A36
:104A400008EE200AB6D101B0BDEC028B00BD00F02B
:104A500059F88FE718EE100A4000B0F17F4F0DD2E1
:104A600018EE100AFFF75EFF042808BF00F042F8B6
:104A7000B0EE480A01B0BDEC028B00BD09D10120A7
:104A8000FBF7E6FC01B0BDEC028B5DF804EB00F037
:104A900029B801B0B0EE480ABDEC028B5DF804EB1A
:104AA00000F01CB8B61F927EB93AB2BACA9F2A3D2E
:104AB000DDFFFFBE490E494683F9223F0000004B4F
:104AC0000000C93F00A0FD390020A2331A61342C38
:104AD000336D4CB9DA82083CA0AA2ABE30EE000A37
:104AE00070470000DFED020A80EEA00A7047000068
:104AF000000000009FED020A20EE000A704700004F
:104B0000000000102DE9F0014FF07F42B2EB410FA1
:104B10009FBF4FF0FF310160BDE8F00170474FF0DB
:104B2000004242EA0123C1F3C752783A551112F00C
:104B30001F0C434CCCF120067C44C1F3C752A2F1B8
:104B400078024FEA621204EB820254F8254008BF53
:104B5000D2E9015612D0556804FA0CF425FA06F78A
:104B60003C43976805FA0CF527FA06F8D26807FA6D
:104B70000CFCF24045EA08054CEA0206A4FB034C93
:104B8000A5FB0352A6FB03631D449D4234BF0126CF
:104B900000261319334416B1934202D903E093421D
:104BA00001D2012200E00022624402F1200C9206B0
:104BB000DC0C42EA443200EE102A5B03DFED210AEE
:104BC000F8EEC01A00EE103A4FEA9C1C11F0004FAC
:104BD000B8EE400AC0F800C020EE201A00EE105ACD
:104BE000DFED190AB8EE400A20EE200A71EE810AC4
:104BF00070EE800A10EE902A02F500626FF30B024D
:104C000000EE902A70EEE11A31EEC11ADFED101AB3
:104C100030EE411A9FED0D0A20EE800A01EE210AC6
:104C20009FED0C1A00EE810A04BFBDE8F001704749
:104C3000CCF180510160BDE8F001B1EE400A70474F
:104C400038010000000000360000802C22AAFD2957
:104C5000DB0FC92F0000C92FF1EE100A4FF6FF71CC
:104C6000C0F2C03120EA010040F04070E1EE100ACD
:104C700070470000000000006E83F9A22915444E21
:104C8000D15727FCC0DD34F5999562DB4190433C58
:104C9000AB6351FE000000000000000001020304AD
:104CA000060708090000000001020304704D000817
:104CB00000000000000000000000000000000000F4
:104CC00000040000180000000000000000000000C8
:104CD0009D4D0008000000000000000000000000E2
:104CE00000000000000400001800000000000000A8
:104CF000000000008F4D00080000000000000000D0
:104D00000000000000000000000200000800000099
:104D10000000000000000000804D000800000000BE
:104D20000000000000000000000000000002000081
:104D3000180000000000000000000000604D0008A6
:104D40000000000000000000000000000000000063
:104D50000002000008000000000000000000000049
:104D60005374617475735F53656E645F547361004F
:104D70004272656174684C65645F5F5461736B0077
:104D80005374617475734C65645F5461736B004652
:104D90006565646261636B5F5461736B0043616E50
:104DA0005F52785F5461736B00546D725100000064
:104DB000D04D00080000002018000000C4010008C9
:104DC000E84D000818000020A05A0000E00100088B
:104DD00001000000100000000024F400E803D007E8
:084DE000AAAAAAAA0000000023
:040000050800018965
:00000001FF
