:020000040800F2
:10000000A05A0020E90200088F1E0008031D000806
:100010008D1E00088D0600083D220008000000002B
:10002000000000000000000000000000290200089D
:10003000350700080000000085020008FD1E0008CA
:100040000303000803030008030300080303000878
:100050000303000803030008030300080303000868
:100060000303000803030008030300080303000858
:100070000303000803030008030300080303000848
:10008000030300080303000803030008B506000883
:10009000910600089D060008A90600080303000851
:1000A00003030008C11F000803030008030300083E
:1000B0000303000803030008030300080303000808
:1000C00003030008030300080303000803030008F8
:1000D00003030008030300080303000803030008E8
:1000E00003030008030300080303000803030008D8
:1000F00003030008030300080303000803030008C8
:1001000003030008030300080303000803030008B7
:1001100003030008030300080303000803030008A7
:100120000303000803030008030300080303000897
:1001300003030008000000000000000003030008A3
:100140000303000803030008030300080303000877
:100150000303000803030008030300080303000867
:100160000303000803030008030300080303000857
:100170000303000803030008000000000000000063
:10018000030300080303000800F002F800F03CF845
:100190000AA090E8000C82448344AAF10107DA45E2
:1001A00001D100F031F8AFF2090EBAE80F0013F0F8
:1001B000010F18BFFB1A43F001031847C03D0000B0
:1001C000E03D0000103A24BF78C878C1FAD8520741
:1001D00024BF30C830C144BF04680C6070470000C1
:1001E0000023002400250026103A28BF78C1FBD840
:1001F000520728BF30C148BF0B6070471FB503F0DE
:100200002BFE1FBD10B510BD00F0D0F91146FFF751
:10021000F5FF02F0B7F800F0EEF903B4FFF7F2FFD4
:1002200003BC00F0F5F900002C4B19680868B0E831
:10023000F04F80F30988BFF36F8F4FF0000080F319
:10024000118870470000000008480068006880F3CB
:1002500008884FF0000080F3148862B661B6BFF3DF
:100260004F8FBFF36F8F00DF00BF00BF08ED00E0CE
:10027000DFF80C00016841F470010160704700BFB5
:1002800088ED00E0EFF30980BFF36F8F134B1A681E
:100290001EF0100F08BF20ED108A20E9F04F10600B
:1002A00009B44FF0500080F31188BFF34F8FBFF3B4
:1002B0006F8F03F02DF84FF0000080F3118809BC18
:1002C00019680868B0E8F04F1EF0100F08BFB0ECD6
:1002D000108A80F30988BFF36F8F704730000020C9
:1002E000EFF3058070470000094880470948004740
:1002F000FEE7FEE7FEE7FEE7FEE7FEE7FEE7FEE7D6
:10030000FEE7FEE704480549054A064B7047000032
:10031000B11F000889010008A04E0020A05A00204B
:10032000A0560020A056002053EA020C00F069807D
:100330002DE9F04B4FF00006002B1FBFB3FA83F5F9
:1003400003FA05F424FA05F65E4012BF1643B2FA2A
:1003500082F502FA05F4C5F120051EBF22FA05FC5C
:1003600044EA0C04203556EA044C4FEA144418BF02
:10037000641C4FF000084FF00009904271EB030C31
:1003800039D3002919BFB1FA81F701FA07F6B0FA9B
:1003900080F700FA07F6C7F120071EBF20FA07FC16
:1003A00046EA0C062037B6FBF4FCA7EB0507103F26
:1003B00007F01F0BCBF120060CFA0BFB2CFA06F60C
:1003C00044BFB3460026202FA4BF5E464FF0000B6B
:1003D0005BEA060C08BF4FF0010B19EB0B09ABFBF6
:1003E000027C48EB0608C01B06FB02CC0BFB03CCCF
:1003F00071EB0C01C1E70B46024641464846BDE899
:10040000F08B13B54FF000004FF00001AFF3008008
:10041000BDE81C407047032A40F2308010F0030C06
:1004200000F0158011F8013BBCF1020F624498BF47
:1004300011F801CB00F8013B38BF11F8013BA2F1E4
:10044000040298BF00F801CB38BF00F8013B11F05F
:10045000030300F05780083AC0F0088051F8043BCD
:10046000083A51F804CBA0E80810F5E7121D5CBF6C
:1004700051F8043B40F8043BAFF30080D20724BF9F
:1004800011F8013B11F801CB48BF11F8012B24BF33
:1004900000F8013B00F801CB48BF00F8012B704782
:1004A00002F0FF0343EA032242EA024200F05EB890
:1004B0004FF0000200B5134694469646203922BFFD
:1004C000A0E80C50A0E80C50B1F12001BFF4F7AF48
:1004D000090728BFA0E80C5048BF0CC05DF804EB2A
:1004E000890028BF40F8042B08BF704748BF20F898
:1004F000022B11F0804F18BF00F8012B7047704796
:100500007047704710B5203AC0F00B80B1E8185022
:10051000203AA0E81850B1E81850A0E81850BFF4ED
:10052000F5AF5FEA027C24BFB1E81850A0E818508C
:1005300044BF18C918C0BDE810405FEA827C24BFE0
:1005400051F8043B40F8043B08BF7047D20728BF6E
:1005500031F8023B48BF11F8012B28BF20F8023BBD
:1005600048BF00F8012B70474FF000020429C0F08B
:10057000128010F0030C3FF49DAFCCF1040CBCF1E1
:10058000020F18BF00F8012BA8BF20F8022BA1EB27
:100590000C01FFF78FBF5FEAC17C24BF00F8012B7D
:1005A00000F8012B48BF00F8012B7047754600F09A
:1005B0002BF8AE4605006946534620F007008546F5
:1005C00018B020B5FFF79EFEBDE820404FF00006B2
:1005D0004FF000074FF000084FF0000B21F007012B
:1005E000AC46ACE8C009ACE8C009ACE8C009ACE86E
:1005F000C0098D46704710B50446AFF30080204611
:10060000BDE81040FFF709BE004870473C4E00208F
:1006100001491820ABBEFEE726000200704700002B
:100620002DED028B00249FED158A154D154FDFED42
:10063000168A14264FF47A7A4FF06408A146287877
:10064000A8B13444002C01DD544500DB764200EEB5
:10065000104AB8EEC00AC0EE080AC5ED010A3868B3
:1006600044636988B1FBF8F001F0A4FEE7E7C5ED4B
:10067000018A3968C1F834906420F5E700007A44B3
:1006800000000020D800002000000000FEE700006D
:10069000014800F0E0B90000B0000020014800F07F
:1006A000DAB90000B0000020014800F0D4B9000021
:1006B000B0000020014800F0CEB90000B0000020DA
:1006C0001FB501F051FE194E6425194C4FF0FF384B
:1006D0000127434600226946A06801F0C5FE0028B4
:1006E000F7D10098012805D0032815D0F042F0D1A9
:1006F0006770EEE79DF804000328EAD39DF8050033
:10070000012800D000202070BDF8060060806088BD
:100710006428DED26580DCE79DF804000028D8D08C
:100720009DF8050001F09CFDD3E70000FFFEFEFDF3
:1007300000000020704772B6FEE700001FB501F010
:100740005DFE0B4D022604465FF0040795ED010A9D
:10075000009610EE100A8DF80470CDF8050068467A
:1007600001F0E0FD0A34204601F031FEEEE7000022
:100770000000002090F82020012A07D0022A05D08E
:10078000416A41F48021416201207047006842695A
:100790000A43426100207047F0B590F82050046889
:1007A000A468012D05D0022D03D0416A41F48021B7
:1007B0004DE014F0406F01D1E50045D5C4F301646C
:1007C0000125A5401D608D684FF4C0739DB1CE68B2
:1007D00035434E6845EAC605066803EB0417F55134
:1007E0004FF4C275076805EB04150E697E51097D4B
:1007F000012905D009E00E88CD6845EA4655EBE7AA
:1008000001684E5946F480764E511179D2F8055060
:100810004FF4C67641EA0521056806EB0416A95196
:100820001178D2F801204FF4C47541EA0221026820
:1008300005EB04155151006803EB0411425842F0D6
:10084000010242500020F0BD416A41F400114162B2
:100850000120F0BD10B590F82020012A07D0022A0F
:1008600005D0416A41F480214162012010BD3B481E
:10087000D0F8002242F00102C0F80022D0F8002295
:1008800022F47C52C0F80022D0F800224B6A42EADF
:100890000322C0F800220A7D02F01F0301229A40C1
:1008A000D0F81C329343C0F81C32CB69B3B9D0F8EE
:1008B0000C329343C0F80C328C894B6864F31F43AD
:1008C0004C6900EBC404C4F840320C890B6864F333
:1008D0001F434C6900EBC404C4F84432CB69012BBC
:1008E00016D1D0F80C321343C0F80C320C884B6888
:1008F00064F31F434C6900EBC404C4F840320C8914
:10090000CB6864F31F434C6900EBC404C4F8443261
:100910008B69002BD0F804320ED01343C0F8043298
:100920000B69002BD0F8143208D01343C0F81432EE
:10093000096A012904D008E09343EFE79343F5E700
:10094000D0F81C121143C0F81C12D0F8001221F08C
:100950000101C0F80012002010BD0000006400403A
:10096000704770B590F82040012C05D0022C03D0C0
:10097000416A41F4802128E0046809B32469A4078E
:1009800020D04FF4D874056804EB01142D5915F0EC
:100990000405956005682D591AD0ED085560056865
:1009A0002C5904F00204D4604FF4DA74056804EBA7
:1009B00001142E5906F00F06082E0CD308250DE061
:1009C000E468DCE7416A41F400114162012070BD36
:1009D0006D0D1560E3E72D5905F00F0515610568EC
:1009E0002D59C5F30725956105682C59240C5461D0
:1009F0004FF4DC72046802EB0112A4581C70046806
:100A0000A458240A5C700468A458240C9C700468E0
:100A1000A258120EDA704FF4DE72046802EB011273
:100A2000A4581C710468A458240A5C710468A45872
:100A3000240C9C710468A258120EDA71006829B166
:100A4000016941F020010161002070BDC16841F0E1
:100A50002001C160F8E72DE9F05F05460068002439
:100A60004669D0F804908768D0F80CB0D0F810A090
:100A7000D0F81880F10748D0F90714D0012181601F
:100A8000B80703D5284600F020FA0CE0780702D515
:100A90004FF4006407E0380702D54FF4805402E0B9
:100AA000284600F011FAF80516D529684FF4807031
:100AB0008860B80503D5284600F009FA0CE07805EF
:100AC00002D544F4005407E0380502D544F48044CC
:100AD00002E0284600F0FAF9F80316D529684FF429
:100AE00080308860B80303D5284600F0F2F90CE0A6
:100AF000780302D544F4004407E0380302D544F4F7
:100B0000803402E0284600F0E3F9300707D55FEAB9
:100B1000CB6004D52968102044F40074C8607007C5
:100B20004FF0080707D55FEA0B7004D52868C76047
:100B3000284600F071F9B00706D52868C06880071C
:100B400002D0284600F06AF9700607D55FEACA604D
:100B500004D52968102044F480640861B00607D5E4
:100B60005FEA0A7004D528680761284600F07CF91E
:100B7000F00606D528680069800702D0284600F0F4
:100B800074F9B00308D55FEAC96005D5296810205B
:100B90004860284600F06AF9F00307D55FEA09705B
:100BA00004D528684760284600F094F9300446D5FB
:100BB0005FEA497040D5F00504D55FEAC87001D0FE
:100BC00044F00104B00504D55FEA887001D544F013
:100BD0000204700504D55FEA487001D544F00404AE
:100BE000300529D518F0700F26D008F07000402885
:100BF00015D006DC102809D020280AD0302816D1BC
:100C00000AE050280ED0602811D10EE044F008040C
:100C10000DE044F010040AE044F0200407E044F042
:100C2000400404E044F0800401E044F48074286847
:100C3000816921F070018161296804204860002CDD
:100C400005D0686A204368622846FFF789FEBDE840
:100C5000F09F70B5040003D094F8200010B104E0B8
:100C6000012070BD204600F081F82068016841F045
:100C70000101016000F036FA0546052604E000F0A7
:100C800031FA401B0A2811D820684068C007F6D006
:100C90002068016821F00201016000F023FA054696
:100CA0000BE000F01FFA401B0A2806D9606A40F4E6
:100CB0000030606284F82060D2E7206840688007D6
:100CC000EFD4207E0128206801683DD021F080010A
:100CD0000160607E01282068016838D021F0400161
:100CE0000160A07E01282068016833D021F0200136
:100CF0000160E07E0128206801682ED041F01001DB
:100D00000160207F01282068016829D021F00801B6
:100D10000160607F01282068016824D021F004016F
:100D20000160D4E902010843D4E9041211430843E5
:100D30006168491E08432168C86100206062012083
:100D400084F82000002070BD41F08001C0E741F030
:100D50004001C5E741F02001CAE721F01001CFE7CB
:100D600041F00801D4E741F00401D9E710B586B09D
:100D7000044614216846FFF79BFB244920688842FB
:100D800041D123480021026842F0007202600068ED
:100D900000F0007005901E481038026842F0010211
:100DA0000260006800F0010005904FF4C050009010
:100DB0000220CDE901010320039009200490694637
:100DC000144800F089F800220521132000F022FACF
:100DD000132000F011FA00220521142000F01AFA65
:100DE000142000F009FA00220521152000F012FA63
:100DF000152000F001FA00220521162000F00AFA61
:100E0000162000F0F9F906B010BD000000640040A3
:100E100040380240000002407047000000B5104A10
:100E200001688BB0914216D10DF121036A46002171
:100E3000FFF797FD00280ED1029804280DD00098E6
:100E4000079004988DF82000064800231A4607A949
:100E5000006801F067FB0BB000BD0198F0E70000EF
:100E60000064004008000020704770477047000091
:100E700070B5044690F82000012804D0606A40F460
:100E80000020606218E0022084F8200020680168D9
:100E900021F00101016000F025F905460EE000BFD8
:100EA00000F020F9401B0A2808D9606A40F400309D
:100EB0006062052084F82000012070BD2068406831
:100EC000C007EDD1606270BD7047704770477047D2
:100ED00070477047704700002DE9F84FDFF8BCA15C
:100EE0000022012503264FF00F090AF1040BAAF195
:100EF000040E00BF0B6805FA02F42340A34270D130
:100F00000F7907F00307012F01D0022F16D1876850
:100F10004FEA420806FA08FC27EA0C07D1F80CC091
:100F20000CFA08FC4CEA070CC0F808C04768A74355
:100F30000C79C4F3001494403C4344600C79E443BE
:100F4000A4070AD0C4684FEA420C06FA0CF7BC4367
:100F50008F6807FA0CF72743C7600C7904F0030485
:100F6000022C12D1D40800EB840CDCF82040570787
:100F7000FF0E09FA07F824EA0804D1F8108008FAED
:100F800007F848EA0408CCF8208004684FEA420CCD
:100F900006FA0CF7BC430F7907F0030707FA0CF7C2
:100FA000274307604C6814F4403F70D03C4C2768DE
:100FB00047F480472760246822F0030704F4804444
:100FC0000094384C07EB040CDCF8084897074FEA0C
:100FD000177809FA08F7BC43334FB84202D100270B
:100FE00024E054E0314FB84201D101271EE0304FD8
:100FF000B84201D1022719E02E4FB84201D1032790
:1010000014E02D4FB84201D104270FE02B4FB84216
:1010100001D105270AE02A4FB84201D1062705E091
:10102000284FB84201D1072700E0082707FA08F740
:101030002743CCF80878DAF800405746D1F804C0C6
:101040009C435FEACC2C00D51C433C60DBF800409D
:101050005F46D1F804C09C435FEA8C2C00D51C434A
:101060003C60DEF800407746D1F804C09C435FEA5C
:101070008C3C00D51C433C60084F083F3C68D1F8CD
:1010800004C09C435FEACC3C00D51C433C60521C2E
:10109000102AFFF42FAFBDE8F88F0000083C014094
:1010A0004438024000300140000002400004024089
:1010B00000080240000C02400010024000140240F0
:1010C00000180240001C0240426921EA02030A4063
:1010D00043EA0241816170470AB1816170470904A6
:1010E000FBE70000014880687047000020000020F6
:1010F0000248816802781144816070472000002016
:101100000B4810B5016841F400710160016841F4B9
:1011100080610160016841F480710160032000F08A
:1011200099F80F2000F006F800F04AF8002010BDF2
:10113000003C024030B505461C4887B000240168D9
:1011400041F001010160006806A900F00100009073
:1011500001A800F02BF900F049F915494000B0FB57
:10116000F1F11548134A491E026040F2E732C0E926
:101170000324C0E90114846100F07AFB040012D159
:101180000D4800F0A3FB04000DD1192000F034F845
:10119000102D07D200222946192000F03BF80748FD
:1011A000056000E0012407B0204630BD443802400D
:1011B00040420F00000001402001002024000020D8
:1011C0000C4882B0016841F480410160006800F47D
:1011D000804000900748001F016841F08051016085
:1011E0000068002200F0805000900F21901E02B095
:1011F00000F010B844380240002809DB00F01F025C
:10120000012191404009800000F1E020C0F8001168
:1012100070470000F0B40E4B1B680C46C3F302236A
:10122000C3F10705042D00D90425191D072901D292
:10123000002300E0DB1E012606FA05F1491E2140CD
:1012400099409E40761E16403143F0BC00F0F7BF37
:101250000CED00E0064900F0070208684FF6FF03B6
:10126000184040EA0220034A10430860704700001B
:101270000CED00E00000FA052DE9F0470E460500F0
:1012800065D0DFF81481D8F80000F7B200F007004D
:10129000B04207D288F80070D8F8000000F00700CC
:1012A000B04254D128683D4C810712D5400703D580
:1012B000206840F4E05020602878000703D52068BB
:1012C00040F4604020602068A96820F0F0000843E6
:1012D00020602878C0072DD0304968680839012877
:1012E00012D0022813D0032811D0096889070029D9
:1012F0002DDA216821F0030101432160FFF7F2FE9E
:10130000814641F2883A0EE009688903EFE70968EF
:101310008901ECE7FFF7E6FEA0EB0901514502D990
:101320000320BDE8F0872068696800F00C00B0EB8E
:10133000810FEFD1D8F80010404601F00701B1420B
:1013400007D90770006800F00700B04201D0012003
:10135000E7E72878400705D52068E96820F4E050E1
:10136000084320602878000706D52068296920F402
:10137000604040EAC100206000F048F82168084A57
:10138000C1F30311515CC840064908600648006873
:10139000FFF7D0FE0020C4E7003C024008380240BE
:1013A000183F00082C000020240000200F220260BB
:1013B0000C4A136803F003034360136803F0F0035F
:1013C0008360136803F4E053C36012684FF4E05382
:1013D00003EAD20202610448006800F007000860D6
:1013E0007047000008380240003C024004480549AC
:1013F00000680968044AC1F34231515CC840704733
:101400002C00002008380240283F0008154810B57D
:10141000006810F00C02144813D01449042A0FD0AD
:10142000082A0ED10F4C241F2268236802F03F02C5
:101430005B0207D52068C0F38810A0FB010106E01D
:10144000084610BD2168C1F38811A1FB00010023EB
:10145000FEF76AFF2168C1F30141491C4900B0FB56
:10146000F1F010BD083802400024F40040787D01FE
:101470002DE9F84F04006ED02078DFF84C93C007B8
:10148000A9F104054AD009F104000168C1F3810102
:10149000012908D00068C0F3810002280AD1D9F8D8
:1014A0000000400206D52868800337D56068002810
:1014B000E1D033E06068B0F5803F10D0B0F5A02FE8
:1014C000286810D020F480302860286820F480201C
:1014D00028606068A8B1FFF705FE06460DE02868A1
:1014E00040F48030F4E740F480202860F7E700BF44
:1014F000FFF7F8FD801B642873D828688003F7D5B0
:101500000CE0FFF7EFFD064605E000BFFFF7EAFD40
:10151000801B6428F0D828688003F7D42078DFF88F
:10152000AC8280074FF0000A3ED5A748001D016835
:1015300011F00C0F08D00068C0F3810002280BD115
:10154000D9F80000400207D42868800716D5E06863
:10155000012800D112E033E1E068B8B10120C8F8F9
:101560000000FFF7BFFD064605E000BFFFF7BAFD2C
:10157000801B0228C0D828688007F7D52868216911
:1015800020F0F80040EAC10028600DE0C8F800A093
:10159000FFF7A8FD064604E0FFF7A4FD801B022824
:1015A0001FD828688007F7D42078000722D5864FF7
:1015B00087486169703771B101210160FFF792FDC1
:1015C000064604E0FFF78EFD801B022809D8386824
:1015D0008007F7D50EE0C0F800A0FFF783FD0646B0
:1015E00005E082E0FFF77EFD801B02287DD8386889
:1015F0008007F7D42078400768D5DFF8CCB1002702
:101600000BF13C0BDBF80000C0000BD4DBF8001042
:1016100041F08051CBF80010DBF80000012700F00A
:10162000805000906B4E3068C00510D4306840F494
:1016300080703060FFF756FD009005E0FFF752FD27
:101640000099401A022850D83068C005F6D55E4E81
:10165000A0686C3601280FD00528306810D020F023
:1016600001003060306820F004003060A068B8B13C
:10167000FFF738FD00900FE0306840F00100F4E71C
:1016800040F004003060F7E7FFF72CFD0099411AA5
:1016900041F28830814266D830688007F4D50EE088
:1016A000FFF720FD009007E0FFF71CFD0099411AAD
:1016B00041F28830814256D830688007F4D42FB187
:1016C000DBF8001021F08051CBF80010A069C8B3FE
:1016D0003D49091D0968C1F3810102294AD0022848
:1016E000504607D0C8F8600000E03CE0FFF7FAFC85
:1016F00004463BE04746C8F86000FFF7F3FC0646A7
:1017000005E000BFFFF7EEFC801B02282BD82868FD
:101710008001F7D4D4E907010843A16A2E4A490899
:1017200002EB0141626A41EA8211084394F82C10ED
:1017300040EA0161C9F8001001203866FFF7D2FCC9
:10174000044606E03EE000BFFFF7CCFC001B022889
:1017500009D828688001F7D534E000BFFFF7C2FC44
:10176000001B022802D90320BDE8F88F28688001F9
:10177000F4D427E00128F7D0D9F80000E26900F49A
:10178000800191421CD1226A00F03F01914217D1A1
:1017900047F6C071626A0140B1EB821F10D1A26AA4
:1017A0004FF0FF3300F4403103EB5202B1EB024F34
:1017B00006D194F82C1000F07060B0EB016F01D0EE
:1017C0000120D1E70020CFE7043802400000474263
:1017D000800E4742007000400000FFFF70477047D6
:1017E00070B590F83C20012A32D0012480F83C40AA
:1017F000022280F83D2003685A689D6822F0700636
:101800000A6832435A60134B02689A4214D0B2F10C
:10181000804F11D0104B9A420ED0104B9A420BD0F1
:101820000F4B9A4208D00F4B9A4205D00E4B9A426A
:1018300002D00E4B9A4204D1496825F08003194327
:10184000916080F83D40002180F83C10084670BD52
:10185000022070BD0000014000040040000800406C
:10186000000C00400004014000400140001800400E
:1018700010B5040003D094F83D0010B107E001203A
:1018800010BD002084F83C00204600F01EF8022025
:1018900084F83D00211D206800F098FB012084F8A9
:1018A000460084F83E0084F83F0084F8400084F845
:1018B000410084F8420084F8430084F8440084F82E
:1018C000450084F83D00002010BD704790F83D10A1
:1018D000012901D001207047022180F83D100168E4
:1018E000CA6842F00102CA6000681149884214D0F7
:1018F000B0F1804F11D00F4988420ED00E49884276
:101900000BD00E49884208D00D49884205D00D49B8
:10191000884202D00C49884204D1816801F0070155
:10192000062903D0016841F00101016000207047E1
:10193000000001400004004000080040000C00408E
:1019400000040140004001400018004070472DE9AC
:10195000F04104460068C66805694FF00007A90712
:1019600013D5B10711D5F91E016101202077206838
:1019700080698007204602D0FFF7E8FF04E000F00E
:10198000A7F8204600F04CF92777680716D57007AE
:1019900014D521686FF004000861022020772068C8
:1019A000806910F4407F204602D0FFF7CFFF04E0AB
:1019B00000F08EF8204600F033F92777280715D578
:1019C000300713D521686FF00800086104202077E4
:1019D0002068C0698007204602D0FFF7B7FF04E007
:1019E00000F076F8204600F01BF92777E80616D5B8
:1019F000F00614D521686FF01000086108202077E8
:101A00002068C06910F4407F204602D0FFF79EFF97
:101A100004E000F05DF8204600F002F92777E807BF
:101A200008D0F00706D021686FF001000861204659
:101A300000F05CF9280608D5300606D521686FF05D
:101A4000800008612046FFF7C9FE680608D57006C9
:101A500006D521686FF040000861204600F050F97B
:101A6000A8060AD5B00608D521686FF020000861E5
:101A70002046BDE8F041FFF7B2BEBDE8F0810000AE
:101A800010B586B0044614216846FEF711FD0D49D5
:101A90002068884214D10C480021026842F00102FB
:101AA0000260006800F001000590402000900220D4
:101AB000CDE902010190049069460448FFF70CFA51
:101AC00006B010BD00040040303802400000024063
:101AD000704770B5044690F83C0000260D4601287A
:101AE0000FD0012084F83C006AB1042A1DD0082AD6
:101AF0002FD00C2A3FD00126002084F83C0030462D
:101B000070BD022070BD206800F0D6FA206881699F
:101B100041F0080181612068816921F0040181613F
:101B2000206881692A69114311E0206800F0F4FA05
:101B30002068816941F4006181612068816921F434
:101B400080618161206881692A6941EA022181619D
:101B5000D2E7206800F016FB2068C16941F0080157
:101B6000C1612068C16921F00401C1612068C169B7
:101B70002A69114311E0206800F038FB2068C16930
:101B800041F40061C1612068C16921F48061C161D3
:101B90002068C1692A6941EA0221C161ACE710B538
:101BA000040003D094F83D0010B107E0012010BDFF
:101BB000002084F83C00204600F01EF8022084F843
:101BC0003D00211D206800F001FA012084F8460044
:101BD00084F83E0084F83F0084F8400084F8410017
:101BE00084F8420084F8430084F8440084F84500F7
:101BF00084F83D00002010BD08B500680649884201
:101C000008D10648016841F002010160006800F057
:101C10000200009008BD000000040040403802406F
:101C20007047000010B50446022249B104290ED0C5
:101C3000082913D094F84100012816D0012010BDC6
:101C400094F83E000128F9D184F83E200FE094F882
:101C50003F000128F2D184F83F2008E094F84000CA
:101C60000128EBD184F8402001E084F841200122D2
:101C7000206800F013FA16492068164A884201D0FD
:101C8000904203D1436C43F400434364206888428C
:101C900013D0B0F1804F10D00F4988420DD00F49BA
:101CA00088420AD00E49884207D0904205D00D499B
:101CB000884202D00C49884204D1816801F00701B2
:101CC000062903D0016841F001010160002010BD28
:101CD00000000140000401400004004000080040F2
:101CE000000C00400040014000180040006803491B
:101CF000884201D1FFF7FCB97047000000000140A5
:101D00007047FEE70F4810B50D490160032141609F
:101D100000214FF400228160C0E903124FF4401209
:101D20004261017641768176C17601774177FEF78F
:101D300090FF002803D0BDE81040FEF7FCBC10BDAA
:101D400000640040B000002010B5102100220846B9
:101D500000F0BCFB124C134A0021A060124800F0B6
:101D600015FC104AE06024320021104800F00EFCFF
:101D70000C4A2061483200210D4800F007FC094A56
:101D800060616C3200210B4800F000FC054AA06144
:101D900090320021084800F0F9FBE06110BD00001E
:101DA00000000020643E000821060008911E000883
:101DB000C10600083D070008CD1E000870B586B0BA
:101DC00014216846FEF774FB12480025016841F0B3
:101DD00080010160016801F080010591016841F016
:101DE0000101016000680C4E00F001004FF498748E
:101DF00005902A4621463046FFF76EF90120CDE9CD
:101E000000400220CDE9020569463046FFF764F83C
:101E100006B070BD303802400000024010B58AB0F4
:101E2000002407941C2168460894FEF741FB1648DD
:101E3000144901605321C0E9011440F2E731C0E9BF
:101E400003148461FFF7ABFE08B1FEF774FC07943E
:101E500007A90D480894FFF7C3FC08B1FEF76BFC17
:101E60006020CDE9000402940022694606480494EB
:101E7000FFF72FFE08B1FEF75EFC0348FFF700FEF8
:101E80000AB010BD00040040D8000020FEE7FEE7C5
:101E9000002405250C4F0A26641CB4FBF5F005FB55
:101EA000104018B910213846FFF70EF9B4FBF6F0D0
:101EB00006FB104018B920213846FFF705F96420C9
:101EC00000F078FAE8E70000000002401FB500F0DB
:101ED00095FA1225084F0446012600958DF80460F6
:101EE00038788DF80500684600F01CFA04F5FA749D
:101EF000204600F06CFAF0E70000002010B54FF02B
:101F0000E020006901F0EAFD012803D0BDE810409F
:101F100001F0AABA10BD000030B593B03021684678
:101F2000FEF7C6FA14210CA8FEF7C2FA1E480025D7
:101F3000016841F080510160006800F0805011900C
:101F40001A48016841F4804101600068022400F4ED
:101F50008040119001200090000401908001CDE9A3
:101F60000640192008904FF4A870CDE90904042018
:101F70000B906846FFF77CFA08B172B6FEE70CA931
:101F80000F2081E831004FF4A0500F904FF48050A3
:101F9000109005210CA8FFF76FF9002801D072B648
:101FA000FEE713B030BD0000403802400070004032
:101FB0000248016841F470010160704788ED00E05B
:101FC0000148FFF7C4BC000020010020F0B5026802
:101FD000274B284D284E294F294C4FF0804C9842D2
:101FE00009D0604507D0A84205D0B04203D0B8421E
:101FF00001D0A04204D122F0700E4A6842EA0E02DB
:1020000098421BD0604519D0A84217D0B04215D0D5
:10201000B84213D0A04211D01A4DA8420ED01A4D8A
:10202000A8420BD0194DA84208D0194DA84205D09E
:10203000184DA84202D0184DA84203D122F4407591
:10204000CA682A434D6922F080022A438D68C5621E
:102050000D688562984201D0A04201D109690163EF
:10206000016841F004010160012141610260F0BD9D
:10207000000001400004004000080040000C004047
:10208000000401400040014000440140004801407C
:1020900000180040001C00400020004010B501F076
:1020A0001F030121046A99408C430462016A9A402B
:1020B0001143016210BD0000F0B5036A026A22F00C
:1020C0000102026242688469124E24F073050C68B2
:1020D0002C4323F002058B682B430D4DA84201D001
:1020E000B04205D123F00807CB683B4323F004033B
:1020F000A84201D0B04205D14D6922F44072154387
:102100008A692A4342608461496841630362F0BD81
:102110000000014000040140F0B5026A036A23F0A8
:1021200010030362436884690D6824F4E64444EABA
:1021300005248D6822F0200242EA05120F4D104E50
:10214000A84201D0B04206D1CF6822F0800242EA14
:10215000071222F04002A84201D0B04207D14D69D7
:1021600023F4406343EA85038D6943EA85034360B2
:102170008461496881630262F0BD00000000014093
:1021800000040140F0B5026A036A23F4807303621D
:102190004368C46922F4007224F073050C68124E7F
:1021A0002C438D6842EA05220E4DA84201D0B04270
:1021B00006D1CF6822F4006242EA072222F480624C
:1021C000A84201D0B04207D14D6923F4405343EAFD
:1021D00005138D6943EA05134360C4614968C1630F
:1021E0000262F0BD000001400004014030B5046A05
:1021F000026A22F4805202624268C3690D6823F4C5
:10220000E64343EA05238D6824F4005444EA053488
:10221000084DA84202D0084DA84204D14D6922F4CD
:10222000804242EA85124260C361496801640462E7
:1022300030BD00000000014000040140FEE7090736
:10224000090E002804DB00F1E02080F8001470473C
:1022500000F00F0000F1E02080F8141D704700002E
:102260002DE9F04104460A2802D90A24002501E09C
:10227000002513E001220B4F160231463846FEF7C7
:102280002BFF642000F096F8002231463846FEF716
:1022900023FF642000F08EF86D1CEDB2A542E9D357
:1022A000BDE8F0810000024030B58BB028216846BF
:1022B000FEF7FEF800200124CDE906042021059058
:1022C00008944FF6E075CDE90010CDE90250049076
:1022D00069461348FEF7BEFA08B1FEF72CFA6020F3
:1022E00005940090694602950D48FEF7B3FA08B1CF
:1022F000FEF721FA0220059041F20800009040F616
:102300000C0001904FF6FF7002900390694604485C
:10231000FEF7A0FA002801D0FEF70DFA0BB030BD91
:10232000B000002010B588B0044618216846FEF7BA
:10233000BFF821680020B1F5006F04D30421029199
:102340002168019102E002902168009103902079B8
:10235000049006AB621D69460248FEF71DFA08B0FC
:1023600010BD0000B000002010B5FFF79DFF04482D
:10237000FEF77EFDBDE8104002210148FEF7FAB9E4
:10238000B0000020FEF7BCFEFFF7C6FDFFF716FD0C
:10239000FFF7B8FCFFF742FD00210548FFF742FCBC
:1023A00000F034F8FFF7D0FC00F042F8FEE7000040
:1023B000D800002010B5EFF3058111B16FF00504CE
:1023C00003E0002408B100F0A9FE204610BD38B596
:1023D0000546EFF3058010B16FF005040CE0002412
:1023E00001F08AFB291A0090002903DD684600F0FD
:1023F000BBFE01E06FF00304204638BDEFF305801B
:1024000008B101F07FBB01F077BB0000EFF305805E
:1024100010B16FF0050070470448016811B14FF02A
:10242000FF307047012101600020704780000020CC
:1024300010B5EFF3058010B16FF0050010BD08482E
:102440000168012902D04FF0FF3010BD054A00217C
:1024500082F8141D0221016000F00EFF002010BD63
:10246000800000200BE000E0F8B51D466FF003028D
:102470006FF002064FF00004EFF30583A3B1F0B153
:10248000E9B1E5B9002200926A4601F047FA012855
:1024900017D10098B0B10C494FF080500860BFF3DD
:1024A0004F8FBFF36F8F0DE048B141B12A4601F065
:1024B00099F9012806D025B16FF0010402E0144615
:1024C00000E034462046F8BD04ED00E0F8B51446BF
:1024D0004FF00005EFF3058212BB08B301B3A4B1BE
:1024E000D4E9023263B1502A1AD32269C2B16769B2
:1024F00000FB01F6B74213D3009500F0ECFF07E0B4
:1025000072B9226962B9626952B9002200F0C2FF51
:10251000050005D00CB1216800E0002100F0C8FDE5
:102520002846F8BDF8B51D466FF003026FF00206AD
:102530004FF00004EFF30583ABB100B3F9B1F5B987
:102540000022134600926A4601F0ECF8012818D1E7
:102550000098B8B10C494FF080500860BFF34F8F1E
:10256000BFF36F8F0EE050B149B100232A4601F04E
:1025700029F8012806D025B16FF0010402E01446C5
:1025800000E034462046F8BD04ED00E02DE9FF41AF
:102590004FEA01034FF00005EFF30581039549BBB6
:1025A00040B38027182100244AB3166806B1344688
:1025B00096691EB13146761E382E02D21679F6077C
:1025C00003D0002004B0BDE8F081566906B1B70819
:1025D000D2F808C0BCF1000F0DD0D5685C2D18D31F
:1025E00012693AB136B18DE806103A46214601F03B
:1025F0004AFA03900DE0D6685EB912694AB903AA97
:10260000CDE90012BAB2214601F010FA012800D03B
:1026100003950398D6E700002DE9F041134C0F46CF
:102620000546E6682068001D00F044FC681C07D1E0
:1026300037B12168BDE8F0410D48091D00F08ABCA2
:1026400020683544B5424560216805D2A06BBDE8DD
:10265000F041091D00F066BC606B091D00F062FCD2
:10266000A06A854200D2A562BDE8F081300000205A
:10267000580600202DE9F041054600F077FC2D4C6E
:10268000A068401CA06020682B4F10B1606930B377
:102690002BE02560A068012827D1002606EB8600E4
:1026A00007EB800000F030FC761C382EF6D3234870
:1026B00000F02AFC2148143000F026FC1F48283086
:1026C00000F022FC1D483C3000F01EFC1B4850303E
:1026D00000F01AFC194860631430A06305E020681C
:1026E000E96AC06A884200D82560606A401C60625E
:1026F0006864E86A2169884200D9206100EB8000A3
:1027000007EB8000291D00F025FC00F04FFC6069FC
:1027100000280CD02068E96AC06A884207D20849BC
:102720004FF080500860BFF34F8FBFF36F8FBDE84D
:10273000F081000030000020A801002008060020E1
:1027400004ED00E038B500F011FC104C2068C8B969
:102750000F4800F0D9FB0E48143000F0D5FB0C48B0
:10276000E060143020610A4B0020F03B009003F140
:10277000500210210A2000F0AEFE206010B105A129
:1027800000F096FCBDE8384000F010BC6C00002062
:102790005C070020546D72510000000030B4026CE0
:1027A0000B46002A0BD0C1681144C1608468A14265
:1027B00001D30168C16030BC1846FDF72CBE30BCA7
:1027C00070472DE9F041856B174604460026026CE0
:1027D00082B1C7B1E068FDF71EFEE168206C091AFE
:1027E000E1602268914202D2A168081AE060022FDB
:1027F00016D017E02068A8B9A06801F0EFF90646E6
:102800000020A0600EE06068FDF705FE216C6068A6
:1028100008446060A168884204D32068606001E0D9
:1028200005B16D1E6D1CA5633046BDE8F08110B585
:10283000044690F8590058B101280CD002280FD056
:10284000502080F31188BFF34F8FBFF36F8FFEE7E7
:10285000206B00F0BFFB2046BDE8104000F0BABB83
:1028600010BD000010484FF48041420706D0C01D43
:102870000D4920F00700411AC1F580410B4A0023A1
:102880000144C2E900030839183A21F00701116038
:102890004B600B600B1AC0E9001393604FF00040CF
:1028A00053605061704700003C0E00209C000020E7
:1028B000144E154CA6F29C474FF08058DFF84C9010
:1028C00012E000BF00F052FBF068C568281D00F060
:1028D000F1FAA068401EA0606068401E606000F0D1
:1028E00065FB2846FFF7A3FF60680028EAD1386837
:1028F0000128F9D9C9F80080BFF34F8FBFF36F8F5C
:10290000F2E70000440600203000002004ED00E063
:1029100070B51D46049C51B1C4F80020C4E90F01F4
:102920000121204600F00AFE84F84C5070BD24605E
:10293000F4E700002DE9F05F8846DDE90B941546C9
:10294000834691009A460A9EA522206BFDF7A8FDBA
:102950006FF00301206B01EB8501084420F00707AD
:10296000780707D0502080F31188BFF34F8FBFF353
:102970006F8FFEE70025B8F1000F0FD05FF0000069
:10298000221818F8001082F8341018F8001011B14D
:10299000401C1028F4D384F8435001E084F83450EC
:1029A000382E00D33726E662C4E91365201D00F0F7
:1029B000B6FA04F1180000F0B2FA2461C6F138004A
:1029C0006462A061656584F858505246594638469D
:1029D00000F05AFA2060B9F1000F01D0C9F80040A8
:1029E000BDE8F09F30B5114900E011460A68824207
:1029F000FBD34B685C18844203D14068184448609C
:102A0000084643681C18944209D1084C183C2468B5
:102A1000A24209D052681A4442600A6812680260F1
:102A2000814200D0086030BD0460F9E79C000020BE
:102A300070B5002441600B4D0061914206D8D11A57
:102A40008269914206D2011D286907E09A4203D2A9
:102A5000994201D3012403E0011DE86800F062FA05
:102A6000204670BD6C00002010B5044600F07EFAD0
:102A7000A06B28B15FF0000400F098FA204610BD6A
:102A80000124F9E730B589B03C4D6EE00498002888
:102A900006DADDE90601059A90470498002864DB10
:102AA000069C606910B1201D00F004FA03A800F034
:102AB000D7F8024604980A2857D2DFE800F0050547
:102AC000052D334A05052D3394F8280040F0010008
:102AD00084F828000599A069059B01442046FFF76A
:102AE000A7FF68B3216A2046884794F8280040076A
:102AF0003BD5002000900598A16900234218194693
:102B0000204601F075F9D8B9502080F31188BFF341
:102B10004F8FBFF36F8FFEE714F8280F20F00100EE
:102B2000207022E094F8280040F0010084F828008A
:102B30000598A06128B1811813462046FFF778FF59
:102B400013E0502080F31188BFF34F8FBFF36F8FD6
:102B5000FEE794F82800810703D4204600F03AFAF3
:102B600003E020F0010084F82800002204A928686E
:102B700000F038FE002889D109B030BD6C0000207B
:102B80002DE9FC410F46054600F0BAFB01A800F014
:102B900067F80446019818B101F098F8BDE8FC8187
:102BA000254EAFB130690068D0B30027291B3A46E3
:102BB000306800F091FA01F089F80028EED11F4941
:102BC0004FF080500860BFF34F8FBFF36F8FE5E782
:102BD000A542EBD801F07AF8F0682746C068C468CF
:102BE000201D00F067F994F82800410719D5A06965
:102BF0002B4641193A462046FFF71AFFA8B100209C
:102C00000346014600902A46204601F0F1F860B9DB
:102C1000502080F31188BFF34F8FBFF36F8FFEE713
:102C200007E020F0010084F82800216A2046884748
:102C3000B4E70127BAE700006C00002004ED00E0D3
:102C40000648416B096829B1416BC968C968496880
:102C5000816270474FF0FF31FAE70000300000203A
:102C600070B5054600F048FF064E0446B068844241
:102C700003D200F009F8012000E00020286020467F
:102C8000B46070BD6C000020F8B5194D20E0C0683C
:102C9000C4680668201D00F00DF9216A20468847A7
:102CA00094F82800400713D5A0693044B04206D9F3
:102CB00024616060211DE86800F034F908E000201C
:102CC0000346014600903246204601F091F838B1A3
:102CD000E86801680029DAD12969C5E90310F8BD5F
:102CE000502080F31188BFF34F8FBFF36F8FFEE743
:102CF0006C00002008484068401C4FF0500080F3F2
:102D0000118804D0BFF34F8FBFF36F8FFEE7BFF37F
:102D10004F8FBFF36F8FFEE7A4000020074CE068E1
:102D2000016841B1C0680021D0F80000FFF728FF1A
:102D3000FFF7A8FEF3E701210020F7E76C00002071
:102D40002DE9F041044600F011F994F9455004F1E1
:102D5000240609E0606A48B1304600F07FFF08B100
:102D600000F050FA6D1E6DB2002DF3DC4FF0FF360F
:102D700084F8456000F01AF900F0F8F894F944502E
:102D800004F1100709E0206948B1384600F066FFF9
:102D900008B100F037FA6D1E6DB2002DF3DC84F837
:102DA0004460BDE8F04100F001B900002DE9F041B8
:102DB0000546002700F0A4FA324E306808B9FFF744
:102DC00051FD706905424ED1C5B3083568070ED074
:102DD00005F00700C0F108000544680707D050203F
:102DE00080F31188BFF34F8FBFF36F8FFEE72DB3D2
:102DF0007068854237D82348183001460C6801E0D6
:102E000020460C466168A94202D221680029F7D108
:102E100031688C4227D007682168016060680837F4
:102E2000411B10290FD96019420708D0502080F3A8
:102E30001188BFF34F8FBFF36F8FFEE713E0416040
:102E40006560FFF7CFFD61687068401A7060B26816
:102E5000904200D2B060706901430020C4E90001D3
:102E6000F068401CF06000F031FF780707D0502078
:102E700080F31188BFF34F8FBFF36F8FFEE73846A3
:102E8000BDE8F0818400002010B5031F4FF080746E
:102E90001C601B1F21F001011960191F044B0B60FE
:102EA00014390A60091F6FF0020244380A6010BD2D
:102EB000F52C0008D0E9013201699A60D0E90123BC
:102EC0005A604A68824201D182684A6000220261E7
:102ED0000868401E0860086870470000034B0360E4
:102EE00003F15C00086080201060704784070020B8
:102EF000044B036003F15C0008604FF480701060C5
:102F000070470000E009002000F108014FF0FF3297
:102F1000C0E90112C1600161002101607047002118
:102F20000161704730B50B685A1C02D000F10802ED
:102F300002E0026904E02246546825689D42FAD9FD
:102F400053684B6099608A60516008610168491C50
:102F5000016030BD42684A6093688B609368596035
:102F6000916008610168491C01607047502080F33E
:102F70001188BFF34F8FBFF36F8F0A494868401C19
:102F8000486001280CD10848006810F0FF0F07D0F6
:102F9000502080F31188BFF34F8FBFF36F8FFEE790
:102FA00070470000A400002004ED00E008494868D4
:102FB00028B1401E486001D180F31188704750202D
:102FC00080F31188BFF34F8FBFF36F8FFEE70000D0
:102FD000A400002070B500282AD0164DA0F10804E6
:102FE00060686969084207D1502080F31188BFF3F7
:102FF0004F8FBFF36F8FFEE722683AB1502080F306
:103000001188BFF34F8FBFF36F8FFEE78843606077
:1030100000F076F960686968084468602046FFF748
:10302000E1FC2869401C2861BDE8704000F04EBEFC
:1030300070BD0000840000204FF0E02000210161FD
:10304000816105494FF47A720968B1FBF2F1491EBA
:1030500041610721016170472C00002010B5FDF788
:103060003FF9114910280ED300F1E02090F8F00349
:103070000A78904207D2502080F31188BFF34F8F17
:10308000BFF36F8FFEE709480068896800F4E060CD
:10309000884207D9502080F31188BFF34F8FBFF3C8
:1030A0006F8FFEE710BD0000A40000200CED00E0D3
:1030B00010B5084B002200BF53F832401CB1521C1F
:1030C000082AF9D310BD43F8321003EBC20148605F
:1030D00010BD00006801002070B515460E4604467C
:1030E000FFF744FF94F944100020491C01D184F8F3
:1030F000440094F94510491C01D184F84500FFF7BC
:1031000055FFA06B28B92A46314604F1240000F08F
:1031100097F82046BDE87040FFF712BE10B50200D8
:1031200014D00F48006B38B1502080F31188BFF3E2
:103130004F8FBFF36F8FFEE700F0E2F800211046DB
:10314000FFF76AFA00F0C2FD002807D105494FF0E9
:1031500080500860BFF34F8FBFF36F8F10BD00002A
:103160003000002004ED00E070B50D4604000BD0E7
:1031700095B11E4A106BB8B1502080F31188BFF38F
:103180004F8FBFF36F8FFEE7502080F31188BFF39E
:103190004F8FBFF36F8FFEE7502080F31188BFF38E
:1031A0004F8FBFF36F8FFEE700F0AAF8D268236855
:1031B0005919934204D98B420AD9914202D807E0A7
:1031C0008B42FAD9881A21600021FFF725FA00E026
:1031D000216000F07BFD002807D105494FF08050A9
:1031E0000860BFF34F8FBFF36F8F70BD30000020BA
:1031F00004ED00E002490A6A0260C9684160704754
:103200003000002001490120C861704730000020D3
:1032100010B50C4650B1094909681831FFF782FE14
:103220002046BDE810400121FFF7F6B9502080F399
:103230001188BFF34F8FBFF36F8FFEE73000002080
:1032400070B514460D4668B10A4909681831FFF790
:1032500081FE0CB14FF0FF3521462846BDE8704095
:10326000FFF7DAB9502080F31188BFF34F8FBFF317
:103270006F8FFEE73000002030B587B00024039444
:1032800005AA04A903A80494FFF728FEDDE90301B9
:103290000094CDE90110002315A11748059A00F00C
:1032A000F2FB164D0028E8621FD000F071FD0128E6
:1032B00009D0401C19D1502080F31188BFF34F8FE3
:1032C000BFF36F8FFEE7502080F31188BFF34F8F5D
:1032D000BFF36F8F4FF0FF30A86201206861EC6090
:1032E00007B0BDE8304000F045B807B030BD000081
:1032F00049444C4500000000B1280008300000207F
:103300000248016B491C0163704700003000002037
:10331000164810B5016B11B10121C16110BD00212A
:10332000C1610169124A01E0B9B1491E01EB810393
:1033300052F82330002BF7D001EB810302EB83021C
:1033400002F1080453685B685360A34201D15B68D3
:103350005360DA680260016110BD502080F311886B
:10336000BFF34F8FBFF36F8FFEE7000030000020E8
:10337000A80100201CB537480168374A914207D19F
:10338000502080F31188BFF34F8FBFF36F8FFEE79C
:1033900000683149491E884207D1502080F31188C6
:1033A000BFF34F8FBFF36F8FFEE72C490878019072
:1033B000FF20087008788DF800009DF800009DF847
:1033C000002000F0F000904207D0502080F31188D8
:1033D000BFF34F8FBFF36F8FFEE79DF80000204CC7
:1033E00000F0500020700720A06005E09DF800204C
:1033F00052008DF80020401E9DF800201206F5D4E2
:10340000A060032807D0502080F31188BFF34F8FAE
:10341000BFF36F8FFEE74FF44070A0600198087013
:103420000C482030016841F470010160016841F0EE
:1034300070410160FFF700FE00206060FCF718FF9C
:103440000848016841F040410160FCF7FDFE0020A2
:103450001CBD000000ED00E071C20F4100E400E07F
:10346000A400002034EF00E010B5502080F3118854
:10347000BFF34F8FBFF36F8F00F04CFB18B10449BF
:103480004FF080500860002080F3118810BD0000CC
:1034900004ED00E0F8B517460E46050013D005FB15
:1034A00006F05030FFF782FC04000AD0002084F8B8
:1034B000460004F150023B46314628460094FFF78F
:1034C00027FA2046F8BD502080F31188BFF34F8FB4
:1034D000BFF36F8FFEE738B5049D18B153B1CAB181
:1034E00081B120E0502080F31188BFF34F8FBFF3EC
:1034F0006F8FFEE7502080F31188BFF34F8FBFF32B
:103500006F8FFEE7502080F31188BFF34F8FBFF31A
:103510006F8FFEE739B1502080F31188BFF34F8FD2
:10352000BFF36F8FFEE750241C46012384F846301A
:103530002B460094FFF7ECF9204638BD70B50D46D8
:10354000040025D0FFF712FDD4E90F20216802FB0B
:103550000011A1600021A163216861600A46D4E9DD
:103560000F01401E00FB0121E16021464FF0FF30BA
:1035700001F8440F487004F110008DB1FFF7C4FC4E
:1035800004F12400FFF7C0FCFFF710FD012070BD1F
:10359000502080F31188BFF34F8FBFF36F8FFEE78A
:1035A00021690029F0D000F059FB0028ECD0044933
:1035B0004FF080500860BFF34F8FBFF36F8FE3E78A
:1035C00004ED00E02DE9FF4782B01D468A464FF02A
:1035D0000008040003D0BAF1000F08D011E0502019
:1035E00080F31188BFF34F8FBFF36F8FFEE7206C1E
:1035F00038B1502080F31188BFF34F8FBFF36F8F26
:10360000FEE7022D0AD1E06B012807D0502080F39D
:103610001188BFF34F8FBFF36F8FFEE700F05EFAA4
:103620003F4F4FF000094FF0805648B9049838B129
:10363000502080F31188BFF34F8FBFF36F8FFEE7E9
:10364000FFF794FCA06BE16B884207D3022D05D0F5
:103650000498D0B1B8F1000F1AD01EE02A465146A6
:103660002046FFF7AEF8616A19B104F1240000F0BA
:10367000F5FA20B13E60BFF34F8FBFF36F8FFFF7B6
:1036800095FC012006B0BDE8F087FFF78FFC22E033
:103690006846FFF7AFFD4FF00108FFF787FCFFF723
:1036A0002FFEFFF763FC94F94400401C01D184F81D
:1036B000449094F94500401C01D184F84590FFF7EF
:1036C00075FC04A9684600F077F930B12046FFF791
:1036D00037FB00F0FBFA0020D4E7FFF747FCA06BB4
:1036E000E16B884213D1FFF761FC04F110000499EB
:1036F000FFF78EFD2046FFF723FB00F0E7FA0028D6
:103700009ED13E60BFF34F8FBFF36F8F98E7FFF7F7
:103710004DFC2046FFF714FB00F0D8FA90E70000BC
:1037200004ED00E02DE9F0471F469046894604006D
:1037300003D0B9F1000F08D011E0502080F31188B8
:10374000BFF34F8FBFF36F8FFEE7206C38B150206F
:1037500080F31188BFF34F8FBFF36F8FFEE7022F07
:103760000AD1E06B012807D0502080F31188BFF305
:103770004F8FBFF36F8FFEE7FFF770FC5020EFF322
:10378000118680F31188BFF34F8FBFF36F8FA06B4B
:10379000E16B884206D3022F04D0002086F3118803
:1037A000BDE8F08794F94550A06B3A46494620465B
:1037B000FFF707F8681C04D06D1C84F84550012001
:1037C000ECE7606A0028FAD004F1240000F046FA21
:1037D0000028F4D0B8F1000FF1D00121C8F8001092
:1037E000EDE700002DE9F747002683B08A46040084
:1037F00003D0BAF1000F08D011E0502080F31188F7
:10380000BFF34F8FBFF36F8FFEE7206C38B15020AE
:1038100080F31188BFF34F8FBFF36F8FFEE700F087
:103820005DF9DFF8F4804FF000094FF0805748B998
:10383000059838B1502080F31188BFF34F8FBFF344
:103840006F8FFEE7FFF792FBA56BC5B1514620468F
:10385000FEF7A4FF6D1EA563206950B104F11000AE
:1038600000F0FCF928B1C8F80070BFF34F8FBFF328
:103870006F8FFFF79BFB012006B0BDE8F08705982E
:1038800008B11EB106E0FFF791FB27E06846FFF79D
:10389000B1FC0126FFF78AFBFFF732FDFFF766FB5D
:1038A00094F94400401C01D184F8449094F94500F7
:1038B000401C01D184F84590FFF778FB05A96846C4
:1038C00000F07AF8002820460AD0FFF739FA00F015
:1038D000FDF92046FFF7C8F80028B3D00020CBE759
:1038E000FFF7C2F890B104F124000599FFF790FCAE
:1038F0002046FFF725FA00F0E9F90028A2D1C8F820
:103900000070BFF34F8FBFF36F8F9BE72046FFF729
:1039100017FA00F0DBF995E704ED00E02DE9F04738
:1039200090468946040003D0B9F1000F08D011E099
:10393000502080F31188BFF34F8FBFF36F8FFEE7E6
:10394000206C38B1502080F31188BFF34F8FBFF344
:103950006F8FFEE7FFF782FB5020EFF3118680F3B5
:103960001188BFF34F8FBFF36F8FA76BF7B194F937
:10397000445049462046FEF711FF7F1EA763681C8E
:1039800004D06D1C84F84450012010E02069002808
:10399000FAD004F1100000F061F90028F4D0B8F179
:1039A000000FF1D00121C8F80010EDE7002086F3E8
:1039B0001188BDE8F08700002DE9F0410C460500B4
:1039C00011D0C4B1FFF7D2FA174BDA686E682068DD
:1039D000911B471C17D02F681B6A9F4219D0964233
:1039E00017D8012410E0502080F31188BFF34F8FC7
:1039F000BFF36F8FFEE7502080F31188BFF34F8F26
:103A0000BFF36F8FFEE70024FFF7D0FA2046BDE832
:103A1000F081884205D9401A20602846FFF7EAFB6A
:103A2000F1E700202060DCE7300000202DE9FF5F97
:103A30008346DDE90E87994616468A469000FFF7D1
:103A4000B5F905001CD05C20FFF7B0F9040014D0D4
:103A50000020256384F85900CDE90240CDE90087B4
:103A60004B46324651465846FEF764FF2046FEF765
:103A700001FE012004B0BDE8F09F2846FFF7AAFA36
:103A80004FF0FF30F6E7F0B585B0DDE90B640A9D35
:103A9000A6B1DCB15C2700972663022684F8596042
:103AA000002604AFCDE90246CDE90057FEF742FFFC
:103AB0002046FEF7DFFD049805B0F0BD502080F3EE
:103AC0001188BFF34F8FBFF36F8FFEE7502080F355
:103AD0001188BFF34F8FBFF36F8FFEE70548416931
:103AE00019B1006B18B10020704701207047022007
:103AF00070470000300000200148C0687047000097
:103B00003000002010B5FFF7A9FA0148C06810BDC9
:103B1000300000202DE9F0412E4C0027206B28B109
:103B2000A069401CA0613846BDE8F081E668761CBB
:103B3000E66013D1606B006838B1502080F31188C3
:103B4000BFF34F8FBFF36F8FFEE7606BA16B6163B5
:103B5000A063206A401C2062FFF772F8A06ADFF8B9
:103B60007880864209D3606B0068A0B1606BC06842
:103B7000C5686868864211D2A0622068C06A00EBFE
:103B8000800158F82100012800D90127E0690028A8
:103B9000C9D00127C7E74FF0FF30EDE7281DFFF739
:103BA00089F9A86A18B105F11800FFF783F9E86AE6
:103BB0002169884200D9206100EB800108EB810077
:103BC000291DFFF7C7F9E86A2168C96A8842CAD384
:103BD0000127C8E730000020A801002070B50400CC
:103BE0004FF0000133D01B4D2868844207D050208D
:103BF00080F31188BFF34F8FBFF36F8FFEE7206D07
:103C000038B1401E2065E36CE26A9A421FD040B191
:103C10001DE0502080F31188BFF34F8FBFF36F8FEB
:103C2000FEE7201DFFF746F9E06CE062C0F13800C6
:103C3000A061E06A2969884200D92861064900EB41
:103C4000800001EB8000211DFFF784F90121084667
:103C500070BD000030000020A801002070B5C068D1
:103C6000C46854B104F118000646FFF723F9144D57
:103C7000286B50B13146134815E0502080F311886D
:103C8000BFF34F8FBFF36F8FFEE7201DFFF712F9D1
:103C9000E06A2969884200D928610B4900EB80005D
:103CA00001EB8000211DFFF755F9E06A2968C96A18
:103CB000884202D90120E86170BD002070BD00007B
:103CC0003000002030060020A80100202DE9F04738
:103CD0002C4D00242746286B38B1FFF747F9286B95
:103CE000401E2863286B40B146E0502080F31188C5
:103CF000BFF34F8FBFF36F8FFEE7A968224E0120FD
:103D0000D1B3A6F5916980463068E0B1F068C46827
:103D100004F11800FFF7CEF8201DFFF7CBF8E06A9A
:103D20002969884200D9286100EB800109EB8100F4
:103D3000211DFFF70FF9E06A2968C96A8842E3D3B9
:103D4000C5F81C80E0E70CB1FEF77AFFAC694CB116
:103D50004FEA0806FFF7DEFE00B1EE61641EF9D1FE
:103D60000020A861E86938B10849012738070860D0
:103D7000BFF34F8FBFF36F8FFFF718F93846BDE8D9
:103D8000F0870000300000203006002004ED00E045
:103D900010B586B0FEF7D6FC114C2068B8B10020F3
:103DA0000390049005AA04A903A8FFF7A1F8DDE990
:103DB000032102208DE8070000230AA10B48059A81
:103DC000FFF761FE606010B106B0012010BD502009
:103DD00080F31188BFF34F8FBFF36F8FFEE70000B2
:103DE0006C000020546D7220537663001D2D000876
:103DF0002DE9FF411E46134602000A9D4FF00000C8
:103E000016D0144C2768002F0FD0CDE90013029272
:103E1000062917DAFFF762FE02284FF000030FD0E1
:103E2000002269462068FFF7CDFB04B0BDE8F081B1
:103E3000502080F31188BFF34F8FBFF36F8FFEE7E1
:103E40002A46EEE70023324669463846FFF76AFC09
:103E5000EBE700006C0000204FF04070E1EE100A2C
:103E600070470000403F0008000000000000000014
:103E70000000000000000000000400001800000026
:103E80000000000000000000503F0008000000009B
:103E90000000000000000000000000000002000020
:103EA000180000000000000000000000703F000843
:103EB0000000000000000000000000000000000002
:103EC00000040000180000000000000000000000D6
:103ED000603F00080000000000000000000000003B
:103EE00000000000000200000800000000000000C8
:103EF00000000000303F000800000000000000004B
:103F000000000000000000000002000008000000A7
:103F100000000000000000000000000000000000A1
:103F2000010203040607080900000000010203045F
:103F30005374617475735F53656E645F547361008D
:103F40004272656174684C65645F5F5461736B00B5
:103F50005374617475734C65645F5461736B0000D6
:103F6000466565646261636B5F5461736B0000005A
:103F700043616E5F52785F5461736B009C3F000831
:103F800000000020B0000000C40100084C40000800
:103F9000B0000020F0590000E00100080000D00748
:103FA0000000000000000000000000000000000011
:103FB0000000000000000000000000000100000000
:103FC00010000000000000000024F40000000000C9
:103FD00000000000000000000000000000000000E1
:103FE00000000000000000000000000000000000D1
:103FF00000000000000000000000000000000000C1
:1040000000000000000000000000000000000000B0
:1040100000000000000000000000000000000000A0
:104020000000000000000000000000000000000090
:104030000000000000000000000000000000000080
:0C40400000000000AAAAAAAA00000000CC
:040000050800018965
:00000001FF
